{"abi":[{"inputs":[{"internalType":"address","name":"managerInput","type":"address"},{"internalType":"string","name":"titleInput","type":"string"},{"internalType":"uint256","name":"minimumContributionInput","type":"uint256"},{"internalType":"uint256","name":"targetAmountInput","type":"uint256"},{"internalType":"string","name":"descriptionInput","type":"string"},{"internalType":"string","name":"targetDateInput","type":"string"},{"internalType":"string","name":"imageLinkInput","type":"string"},{"internalType":"string","name":"categoryInput","type":"string"}],"stateMutability":"nonpayable","type":"constructor"},{"inputs":[{"internalType":"uint256","name":"index","type":"uint256"}],"name":"approveRequest","outputs":[],"stateMutability":"nonpayable","type":"function"},{"inputs":[{"internalType":"address","name":"","type":"address"}],"name":"backers","outputs":[{"internalType":"bool","name":"","type":"bool"}],"stateMutability":"view","type":"function"},{"inputs":[],"name":"backersCount","outputs":[{"internalType":"uint256","name":"","type":"uint256"}],"stateMutability":"view","type":"function"},{"inputs":[],"name":"category","outputs":[{"internalType":"string","name":"","type":"string"}],"stateMutability":"view","type":"function"},{"inputs":[],"name":"contribute","outputs":[],"stateMutability":"payable","type":"function"},{"inputs":[{"internalType":"string","name":"descriptionInput","type":"string"},{"internalType":"uint256","name":"amountInput","type":"uint256"},{"internalType":"address","name":"recipientInput","type":"address"}],"name":"createRequest","outputs":[],"stateMutability":"nonpayable","type":"function"},{"inputs":[],"name":"description","outputs":[{"internalType":"string","name":"","type":"string"}],"stateMutability":"view","type":"function"},{"inputs":[{"internalType":"uint256","name":"index","type":"uint256"}],"name":"finalizeRequest","outputs":[],"stateMutability":"nonpayable","type":"function"},{"inputs":[],"name":"finalizedRequests","outputs":[{"internalType":"uint256","name":"","type":"uint256"}],"stateMutability":"view","type":"function"},{"inputs":[],"name":"fundingReceived","outputs":[{"internalType":"uint256","name":"","type":"uint256"}],"stateMutability":"view","type":"function"},{"inputs":[],"name":"getRequestsCount","outputs":[{"internalType":"uint256","name":"","type":"uint256"}],"stateMutability":"view","type":"function"},{"inputs":[],"name":"getSummary","outputs":[{"internalType":"address","name":"","type":"address"},{"internalType":"uint256","name":"","type":"uint256"},{"internalType":"string","name":"","type":"string"},{"internalType":"string","name":"","type":"string"},{"internalType":"string","name":"","type":"string"},{"internalType":"uint256","name":"","type":"uint256"},{"internalType":"uint256","name":"","type":"uint256"},{"internalType":"uint256","name":"","type":"uint256"},{"internalType":"string","name":"","type":"string"},{"internalType":"string","name":"","type":"string"},{"internalType":"uint256","name":"","type":"uint256"},{"internalType":"uint256","name":"","type":"uint256"}],"stateMutability":"view","type":"function"},{"inputs":[],"name":"imageLink","outputs":[{"internalType":"string","name":"","type":"string"}],"stateMutability":"view","type":"function"},{"inputs":[],"name":"manager","outputs":[{"internalType":"address","name":"","type":"address"}],"stateMutability":"view","type":"function"},{"inputs":[],"name":"minimumContribution","outputs":[{"internalType":"uint256","name":"","type":"uint256"}],"stateMutability":"view","type":"function"},{"inputs":[],"name":"pendingRequests","outputs":[{"internalType":"uint256","name":"","type":"uint256"}],"stateMutability":"view","type":"function"},{"inputs":[{"internalType":"uint256","name":"","type":"uint256"}],"name":"requests","outputs":[{"internalType":"string","name":"description","type":"string"},{"internalType":"uint256","name":"amount","type":"uint256"},{"internalType":"address","name":"recipient","type":"address"},{"internalType":"bool","name":"complete","type":"bool"},{"internalType":"uint256","name":"approvalCount","type":"uint256"}],"stateMutability":"view","type":"function"},{"inputs":[],"name":"targetAmount","outputs":[{"internalType":"uint256","name":"","type":"uint256"}],"stateMutability":"view","type":"function"},{"inputs":[],"name":"targetDate","outputs":[{"internalType":"string","name":"","type":"string"}],"stateMutability":"view","type":"function"},{"inputs":[],"name":"title","outputs":[{"internalType":"string","name":"","type":"string"}],"stateMutability":"view","type":"function"}],"devdoc":{"kind":"dev","methods":{},"version":1},"evm":{"assembly":"    /* \"Project.sol\":1547:4880  contract Project {... */\n  mstore(0x40, 0x80)\n    /* \"Project.sol\":1678:1679  0 */\n  0x00\n    /* \"Project.sol\":1653:1679  uint public backersCount=0 */\n  0x03\n  sstore\n    /* \"Project.sol\":1803:1804  0 */\n  0x00\n    /* \"Project.sol\":1775:1804  uint public fundingReceived=0 */\n  0x07\n  sstore\n    /* \"Project.sol\":1838:1839  0 */\n  0x00\n    /* \"Project.sol\":1810:1839  uint public pendingRequests=0 */\n  0x08\n  sstore\n    /* \"Project.sol\":1875:1876  0 */\n  0x00\n    /* \"Project.sol\":1845:1876  uint public finalizedRequests=0 */\n  0x09\n  sstore\n    /* \"Project.sol\":2316:2877  constructor (address managerInput, string memory titleInput, uint minimumContributionInput, uint targetAmountInput, string memory descriptionInput, string memory targetDateInput, string memory imageLinkInput, string memory categoryInput) {... */\n  callvalue\n  dup1\n  iszero\n  tag_1\n  jumpi\n  0x00\n  dup1\n  revert\ntag_1:\n  pop\n  mload(0x40)\n  sub(codesize, bytecodeSize)\n  dup1\n  bytecodeSize\n  dup4\n  codecopy\n  dup2\n  dup2\n  add\n  0x40\n  mstore\n  dup2\n  add\n  swap1\n  tag_2\n  swap2\n  swap1\n  tag_3\n  jump\t// in\ntag_2:\n    /* \"Project.sol\":2583:2595  managerInput */\n  dup8\n    /* \"Project.sol\":2573:2580  manager */\n  0x00\n  dup1\n    /* \"Project.sol\":2573:2595  manager = managerInput */\n  0x0100\n  exp\n  dup2\n  sload\n  dup2\n  0xffffffffffffffffffffffffffffffffffffffff\n  mul\n  not\n  and\n  swap1\n  dup4\n  0xffffffffffffffffffffffffffffffffffffffff\n  and\n  mul\n  or\n  swap1\n  sstore\n  pop\n    /* \"Project.sol\":2613:2623  titleInput */\n  dup7\n    /* \"Project.sol\":2605:2610  title */\n  0x01\n    /* \"Project.sol\":2605:2623  title = titleInput */\n  swap1\n  dup1\n  mload\n  swap1\n  0x20\n  add\n  swap1\n  tag_6\n  swap3\n  swap2\n  swap1\n  tag_7\n  jump\t// in\ntag_6:\n  pop\n    /* \"Project.sol\":2655:2679  minimumContributionInput */\n  dup6\n    /* \"Project.sol\":2633:2652  minimumContribution */\n  0x0b\n    /* \"Project.sol\":2633:2679  minimumContribution = minimumContributionInput */\n  dup2\n  swap1\n  sstore\n  pop\n    /* \"Project.sol\":2704:2721  targetAmountInput */\n  dup5\n    /* \"Project.sol\":2689:2701  targetAmount */\n  0x02\n    /* \"Project.sol\":2689:2721  targetAmount = targetAmountInput */\n  dup2\n  swap1\n  sstore\n  pop\n    /* \"Project.sol\":2745:2761  descriptionInput */\n  dup4\n    /* \"Project.sol\":2731:2742  description */\n  0x04\n    /* \"Project.sol\":2731:2761  description = descriptionInput */\n  swap1\n  dup1\n  mload\n  swap1\n  0x20\n  add\n  swap1\n  tag_8\n  swap3\n  swap2\n  swap1\n  tag_7\n  jump\t// in\ntag_8:\n  pop\n    /* \"Project.sol\":2784:2799  targetDateInput */\n  dup3\n    /* \"Project.sol\":2771:2781  targetDate */\n  0x05\n    /* \"Project.sol\":2771:2799  targetDate = targetDateInput */\n  swap1\n  dup1\n  mload\n  swap1\n  0x20\n  add\n  swap1\n  tag_9\n  swap3\n  swap2\n  swap1\n  tag_7\n  jump\t// in\ntag_9:\n  pop\n    /* \"Project.sol\":2821:2835  imageLinkInput */\n  dup2\n    /* \"Project.sol\":2809:2818  imageLink */\n  0x06\n    /* \"Project.sol\":2809:2835  imageLink = imageLinkInput */\n  swap1\n  dup1\n  mload\n  swap1\n  0x20\n  add\n  swap1\n  tag_10\n  swap3\n  swap2\n  swap1\n  tag_7\n  jump\t// in\ntag_10:\n  pop\n    /* \"Project.sol\":2856:2869  categoryInput */\n  dup1\n    /* \"Project.sol\":2845:2853  category */\n  0x0a\n    /* \"Project.sol\":2845:2869  category = categoryInput */\n  swap1\n  dup1\n  mload\n  swap1\n  0x20\n  add\n  swap1\n  tag_11\n  swap3\n  swap2\n  swap1\n  tag_7\n  jump\t// in\ntag_11:\n  pop\n    /* \"Project.sol\":2316:2877  constructor (address managerInput, string memory titleInput, uint minimumContributionInput, uint targetAmountInput, string memory descriptionInput, string memory targetDateInput, string memory imageLinkInput, string memory categoryInput) {... */\n  pop\n  pop\n  pop\n  pop\n  pop\n  pop\n  pop\n  pop\n    /* \"Project.sol\":1547:4880  contract Project {... */\n  jump(tag_12)\ntag_7:\n  dup3\n  dup1\n  sload\n  tag_13\n  swap1\n  tag_14\n  jump\t// in\ntag_13:\n  swap1\n  0x00\n  mstore\n  keccak256(0x00, 0x20)\n  swap1\n  0x1f\n  add\n  0x20\n  swap1\n  div\n  dup2\n  add\n  swap3\n  dup3\n  tag_16\n  jumpi\n  0x00\n  dup6\n  sstore\n  jump(tag_15)\ntag_16:\n  dup3\n  0x1f\n  lt\n  tag_17\n  jumpi\n  dup1\n  mload\n  not(0xff)\n  and\n  dup4\n  dup1\n  add\n  or\n  dup6\n  sstore\n  jump(tag_15)\ntag_17:\n  dup3\n  dup1\n  add\n  0x01\n  add\n  dup6\n  sstore\n  dup3\n  iszero\n  tag_15\n  jumpi\n  swap2\n  dup3\n  add\ntag_18:\n  dup3\n  dup2\n  gt\n  iszero\n  tag_19\n  jumpi\n  dup3\n  mload\n  dup3\n  sstore\n  swap2\n  0x20\n  add\n  swap2\n  swap1\n  0x01\n  add\n  swap1\n  jump(tag_18)\ntag_19:\ntag_15:\n  pop\n  swap1\n  pop\n  tag_20\n  swap2\n  swap1\n  tag_21\n  jump\t// in\ntag_20:\n  pop\n  swap1\n  jump\t// out\ntag_21:\ntag_22:\n  dup1\n  dup3\n  gt\n  iszero\n  tag_23\n  jumpi\n  0x00\n  dup2\n  0x00\n  swap1\n  sstore\n  pop\n  0x01\n  add\n  jump(tag_22)\ntag_23:\n  pop\n  swap1\n  jump\t// out\n    /* \"#utility.yul\":7:82   */\ntag_24:\n    /* \"#utility.yul\":40:46   */\n  0x00\n    /* \"#utility.yul\":73:75   */\n  0x40\n    /* \"#utility.yul\":67:76   */\n  mload\n    /* \"#utility.yul\":57:76   */\n  swap1\n  pop\n    /* \"#utility.yul\":7:82   */\n  swap1\n  jump\t// out\n    /* \"#utility.yul\":88:205   */\ntag_25:\n    /* \"#utility.yul\":197:198   */\n  0x00\n    /* \"#utility.yul\":194:195   */\n  dup1\n    /* \"#utility.yul\":187:199   */\n  revert\n    /* \"#utility.yul\":211:328   */\ntag_26:\n    /* \"#utility.yul\":320:321   */\n  0x00\n    /* \"#utility.yul\":317:318   */\n  dup1\n    /* \"#utility.yul\":310:322   */\n  revert\n    /* \"#utility.yul\":334:460   */\ntag_27:\n    /* \"#utility.yul\":371:378   */\n  0x00\n    /* \"#utility.yul\":411:453   */\n  0xffffffffffffffffffffffffffffffffffffffff\n    /* \"#utility.yul\":404:409   */\n  dup3\n    /* \"#utility.yul\":400:454   */\n  and\n    /* \"#utility.yul\":389:454   */\n  swap1\n  pop\n    /* \"#utility.yul\":334:460   */\n  swap2\n  swap1\n  pop\n  jump\t// out\n    /* \"#utility.yul\":466:562   */\ntag_28:\n    /* \"#utility.yul\":503:510   */\n  0x00\n    /* \"#utility.yul\":532:556   */\n  tag_51\n    /* \"#utility.yul\":550:555   */\n  dup3\n    /* \"#utility.yul\":532:556   */\n  tag_27\n  jump\t// in\ntag_51:\n    /* \"#utility.yul\":521:556   */\n  swap1\n  pop\n    /* \"#utility.yul\":466:562   */\n  swap2\n  swap1\n  pop\n  jump\t// out\n    /* \"#utility.yul\":568:690   */\ntag_29:\n    /* \"#utility.yul\":641:665   */\n  tag_53\n    /* \"#utility.yul\":659:664   */\n  dup2\n    /* \"#utility.yul\":641:665   */\n  tag_28\n  jump\t// in\ntag_53:\n    /* \"#utility.yul\":634:639   */\n  dup2\n    /* \"#utility.yul\":631:666   */\n  eq\n    /* \"#utility.yul\":621:684   */\n  tag_54\n  jumpi\n    /* \"#utility.yul\":680:681   */\n  0x00\n    /* \"#utility.yul\":677:678   */\n  dup1\n    /* \"#utility.yul\":670:682   */\n  revert\n    /* \"#utility.yul\":621:684   */\ntag_54:\n    /* \"#utility.yul\":568:690   */\n  pop\n  jump\t// out\n    /* \"#utility.yul\":696:839   */\ntag_30:\n    /* \"#utility.yul\":753:758   */\n  0x00\n    /* \"#utility.yul\":784:790   */\n  dup2\n    /* \"#utility.yul\":778:791   */\n  mload\n    /* \"#utility.yul\":769:791   */\n  swap1\n  pop\n    /* \"#utility.yul\":800:833   */\n  tag_56\n    /* \"#utility.yul\":827:832   */\n  dup2\n    /* \"#utility.yul\":800:833   */\n  tag_29\n  jump\t// in\ntag_56:\n    /* \"#utility.yul\":696:839   */\n  swap3\n  swap2\n  pop\n  pop\n  jump\t// out\n    /* \"#utility.yul\":845:962   */\ntag_31:\n    /* \"#utility.yul\":954:955   */\n  0x00\n    /* \"#utility.yul\":951:952   */\n  dup1\n    /* \"#utility.yul\":944:956   */\n  revert\n    /* \"#utility.yul\":968:1085   */\ntag_32:\n    /* \"#utility.yul\":1077:1078   */\n  0x00\n    /* \"#utility.yul\":1074:1075   */\n  dup1\n    /* \"#utility.yul\":1067:1079   */\n  revert\n    /* \"#utility.yul\":1091:1193   */\ntag_33:\n    /* \"#utility.yul\":1132:1138   */\n  0x00\n    /* \"#utility.yul\":1183:1185   */\n  0x1f\n    /* \"#utility.yul\":1179:1186   */\n  not\n    /* \"#utility.yul\":1174:1176   */\n  0x1f\n    /* \"#utility.yul\":1167:1172   */\n  dup4\n    /* \"#utility.yul\":1163:1177   */\n  add\n    /* \"#utility.yul\":1159:1187   */\n  and\n    /* \"#utility.yul\":1149:1187   */\n  swap1\n  pop\n    /* \"#utility.yul\":1091:1193   */\n  swap2\n  swap1\n  pop\n  jump\t// out\n    /* \"#utility.yul\":1199:1379   */\ntag_34:\n    /* \"#utility.yul\":1247:1324   */\n  0x4e487b7100000000000000000000000000000000000000000000000000000000\n    /* \"#utility.yul\":1244:1245   */\n  0x00\n    /* \"#utility.yul\":1237:1325   */\n  mstore\n    /* \"#utility.yul\":1344:1348   */\n  0x41\n    /* \"#utility.yul\":1341:1342   */\n  0x04\n    /* \"#utility.yul\":1334:1349   */\n  mstore\n    /* \"#utility.yul\":1368:1372   */\n  0x24\n    /* \"#utility.yul\":1365:1366   */\n  0x00\n    /* \"#utility.yul\":1358:1373   */\n  revert\n    /* \"#utility.yul\":1385:1666   */\ntag_35:\n    /* \"#utility.yul\":1468:1495   */\n  tag_62\n    /* \"#utility.yul\":1490:1494   */\n  dup3\n    /* \"#utility.yul\":1468:1495   */\n  tag_33\n  jump\t// in\ntag_62:\n    /* \"#utility.yul\":1460:1466   */\n  dup2\n    /* \"#utility.yul\":1456:1496   */\n  add\n    /* \"#utility.yul\":1598:1604   */\n  dup2\n    /* \"#utility.yul\":1586:1596   */\n  dup2\n    /* \"#utility.yul\":1583:1605   */\n  lt\n    /* \"#utility.yul\":1562:1580   */\n  0xffffffffffffffff\n    /* \"#utility.yul\":1550:1560   */\n  dup3\n    /* \"#utility.yul\":1547:1581   */\n  gt\n    /* \"#utility.yul\":1544:1606   */\n  or\n    /* \"#utility.yul\":1541:1629   */\n  iszero\n  tag_63\n  jumpi\n    /* \"#utility.yul\":1609:1627   */\n  tag_64\n  tag_34\n  jump\t// in\ntag_64:\n    /* \"#utility.yul\":1541:1629   */\ntag_63:\n    /* \"#utility.yul\":1649:1659   */\n  dup1\n    /* \"#utility.yul\":1645:1647   */\n  0x40\n    /* \"#utility.yul\":1638:1660   */\n  mstore\n    /* \"#utility.yul\":1428:1666   */\n  pop\n    /* \"#utility.yul\":1385:1666   */\n  pop\n  pop\n  jump\t// out\n    /* \"#utility.yul\":1672:1801   */\ntag_36:\n    /* \"#utility.yul\":1706:1712   */\n  0x00\n    /* \"#utility.yul\":1733:1753   */\n  tag_66\n  tag_24\n  jump\t// in\ntag_66:\n    /* \"#utility.yul\":1723:1753   */\n  swap1\n  pop\n    /* \"#utility.yul\":1762:1795   */\n  tag_67\n    /* \"#utility.yul\":1790:1794   */\n  dup3\n    /* \"#utility.yul\":1782:1788   */\n  dup3\n    /* \"#utility.yul\":1762:1795   */\n  tag_35\n  jump\t// in\ntag_67:\n    /* \"#utility.yul\":1672:1801   */\n  swap2\n  swap1\n  pop\n  jump\t// out\n    /* \"#utility.yul\":1807:2115   */\ntag_37:\n    /* \"#utility.yul\":1869:1873   */\n  0x00\n    /* \"#utility.yul\":1959:1977   */\n  0xffffffffffffffff\n    /* \"#utility.yul\":1951:1957   */\n  dup3\n    /* \"#utility.yul\":1948:1978   */\n  gt\n    /* \"#utility.yul\":1945:2001   */\n  iszero\n  tag_69\n  jumpi\n    /* \"#utility.yul\":1981:1999   */\n  tag_70\n  tag_34\n  jump\t// in\ntag_70:\n    /* \"#utility.yul\":1945:2001   */\ntag_69:\n    /* \"#utility.yul\":2019:2048   */\n  tag_71\n    /* \"#utility.yul\":2041:2047   */\n  dup3\n    /* \"#utility.yul\":2019:2048   */\n  tag_33\n  jump\t// in\ntag_71:\n    /* \"#utility.yul\":2011:2048   */\n  swap1\n  pop\n    /* \"#utility.yul\":2103:2107   */\n  0x20\n    /* \"#utility.yul\":2097:2101   */\n  dup2\n    /* \"#utility.yul\":2093:2108   */\n  add\n    /* \"#utility.yul\":2085:2108   */\n  swap1\n  pop\n    /* \"#utility.yul\":1807:2115   */\n  swap2\n  swap1\n  pop\n  jump\t// out\n    /* \"#utility.yul\":2121:2428   */\ntag_38:\n    /* \"#utility.yul\":2189:2190   */\n  0x00\n    /* \"#utility.yul\":2199:2312   */\ntag_73:\n    /* \"#utility.yul\":2213:2219   */\n  dup4\n    /* \"#utility.yul\":2210:2211   */\n  dup2\n    /* \"#utility.yul\":2207:2220   */\n  lt\n    /* \"#utility.yul\":2199:2312   */\n  iszero\n  tag_75\n  jumpi\n    /* \"#utility.yul\":2298:2299   */\n  dup1\n    /* \"#utility.yul\":2293:2296   */\n  dup3\n    /* \"#utility.yul\":2289:2300   */\n  add\n    /* \"#utility.yul\":2283:2301   */\n  mload\n    /* \"#utility.yul\":2279:2280   */\n  dup2\n    /* \"#utility.yul\":2274:2277   */\n  dup5\n    /* \"#utility.yul\":2270:2281   */\n  add\n    /* \"#utility.yul\":2263:2302   */\n  mstore\n    /* \"#utility.yul\":2235:2237   */\n  0x20\n    /* \"#utility.yul\":2232:2233   */\n  dup2\n    /* \"#utility.yul\":2228:2238   */\n  add\n    /* \"#utility.yul\":2223:2238   */\n  swap1\n  pop\n    /* \"#utility.yul\":2199:2312   */\n  jump(tag_73)\ntag_75:\n    /* \"#utility.yul\":2330:2336   */\n  dup4\n    /* \"#utility.yul\":2327:2328   */\n  dup2\n    /* \"#utility.yul\":2324:2337   */\n  gt\n    /* \"#utility.yul\":2321:2422   */\n  iszero\n  tag_76\n  jumpi\n    /* \"#utility.yul\":2410:2411   */\n  0x00\n    /* \"#utility.yul\":2401:2407   */\n  dup5\n    /* \"#utility.yul\":2396:2399   */\n  dup5\n    /* \"#utility.yul\":2392:2408   */\n  add\n    /* \"#utility.yul\":2385:2412   */\n  mstore\n    /* \"#utility.yul\":2321:2422   */\ntag_76:\n    /* \"#utility.yul\":2170:2428   */\n  pop\n    /* \"#utility.yul\":2121:2428   */\n  pop\n  pop\n  pop\n  jump\t// out\n    /* \"#utility.yul\":2434:2855   */\ntag_39:\n    /* \"#utility.yul\":2523:2528   */\n  0x00\n    /* \"#utility.yul\":2548:2614   */\n  tag_78\n    /* \"#utility.yul\":2564:2613   */\n  tag_79\n    /* \"#utility.yul\":2606:2612   */\n  dup5\n    /* \"#utility.yul\":2564:2613   */\n  tag_37\n  jump\t// in\ntag_79:\n    /* \"#utility.yul\":2548:2614   */\n  tag_36\n  jump\t// in\ntag_78:\n    /* \"#utility.yul\":2539:2614   */\n  swap1\n  pop\n    /* \"#utility.yul\":2637:2643   */\n  dup3\n    /* \"#utility.yul\":2630:2635   */\n  dup2\n    /* \"#utility.yul\":2623:2644   */\n  mstore\n    /* \"#utility.yul\":2675:2679   */\n  0x20\n    /* \"#utility.yul\":2668:2673   */\n  dup2\n    /* \"#utility.yul\":2664:2680   */\n  add\n    /* \"#utility.yul\":2713:2716   */\n  dup5\n    /* \"#utility.yul\":2704:2710   */\n  dup5\n    /* \"#utility.yul\":2699:2702   */\n  dup5\n    /* \"#utility.yul\":2695:2711   */\n  add\n    /* \"#utility.yul\":2692:2717   */\n  gt\n    /* \"#utility.yul\":2689:2801   */\n  iszero\n  tag_80\n  jumpi\n    /* \"#utility.yul\":2720:2799   */\n  tag_81\n  tag_32\n  jump\t// in\ntag_81:\n    /* \"#utility.yul\":2689:2801   */\ntag_80:\n    /* \"#utility.yul\":2810:2849   */\n  tag_82\n    /* \"#utility.yul\":2842:2848   */\n  dup5\n    /* \"#utility.yul\":2837:2840   */\n  dup3\n    /* \"#utility.yul\":2832:2835   */\n  dup6\n    /* \"#utility.yul\":2810:2849   */\n  tag_38\n  jump\t// in\ntag_82:\n    /* \"#utility.yul\":2529:2855   */\n  pop\n    /* \"#utility.yul\":2434:2855   */\n  swap4\n  swap3\n  pop\n  pop\n  pop\n  jump\t// out\n    /* \"#utility.yul\":2875:3230   */\ntag_40:\n    /* \"#utility.yul\":2942:2947   */\n  0x00\n    /* \"#utility.yul\":2991:2994   */\n  dup3\n    /* \"#utility.yul\":2984:2988   */\n  0x1f\n    /* \"#utility.yul\":2976:2982   */\n  dup4\n    /* \"#utility.yul\":2972:2989   */\n  add\n    /* \"#utility.yul\":2968:2995   */\n  slt\n    /* \"#utility.yul\":2958:3080   */\n  tag_84\n  jumpi\n    /* \"#utility.yul\":2999:3078   */\n  tag_85\n  tag_31\n  jump\t// in\ntag_85:\n    /* \"#utility.yul\":2958:3080   */\ntag_84:\n    /* \"#utility.yul\":3109:3115   */\n  dup2\n    /* \"#utility.yul\":3103:3116   */\n  mload\n    /* \"#utility.yul\":3134:3224   */\n  tag_86\n    /* \"#utility.yul\":3220:3223   */\n  dup5\n    /* \"#utility.yul\":3212:3218   */\n  dup3\n    /* \"#utility.yul\":3205:3209   */\n  0x20\n    /* \"#utility.yul\":3197:3203   */\n  dup7\n    /* \"#utility.yul\":3193:3210   */\n  add\n    /* \"#utility.yul\":3134:3224   */\n  tag_39\n  jump\t// in\ntag_86:\n    /* \"#utility.yul\":3125:3224   */\n  swap2\n  pop\n    /* \"#utility.yul\":2948:3230   */\n  pop\n    /* \"#utility.yul\":2875:3230   */\n  swap3\n  swap2\n  pop\n  pop\n  jump\t// out\n    /* \"#utility.yul\":3236:3313   */\ntag_41:\n    /* \"#utility.yul\":3273:3280   */\n  0x00\n    /* \"#utility.yul\":3302:3307   */\n  dup2\n    /* \"#utility.yul\":3291:3307   */\n  swap1\n  pop\n    /* \"#utility.yul\":3236:3313   */\n  swap2\n  swap1\n  pop\n  jump\t// out\n    /* \"#utility.yul\":3319:3441   */\ntag_42:\n    /* \"#utility.yul\":3392:3416   */\n  tag_89\n    /* \"#utility.yul\":3410:3415   */\n  dup2\n    /* \"#utility.yul\":3392:3416   */\n  tag_41\n  jump\t// in\ntag_89:\n    /* \"#utility.yul\":3385:3390   */\n  dup2\n    /* \"#utility.yul\":3382:3417   */\n  eq\n    /* \"#utility.yul\":3372:3435   */\n  tag_90\n  jumpi\n    /* \"#utility.yul\":3431:3432   */\n  0x00\n    /* \"#utility.yul\":3428:3429   */\n  dup1\n    /* \"#utility.yul\":3421:3433   */\n  revert\n    /* \"#utility.yul\":3372:3435   */\ntag_90:\n    /* \"#utility.yul\":3319:3441   */\n  pop\n  jump\t// out\n    /* \"#utility.yul\":3447:3590   */\ntag_43:\n    /* \"#utility.yul\":3504:3509   */\n  0x00\n    /* \"#utility.yul\":3535:3541   */\n  dup2\n    /* \"#utility.yul\":3529:3542   */\n  mload\n    /* \"#utility.yul\":3520:3542   */\n  swap1\n  pop\n    /* \"#utility.yul\":3551:3584   */\n  tag_92\n    /* \"#utility.yul\":3578:3583   */\n  dup2\n    /* \"#utility.yul\":3551:3584   */\n  tag_42\n  jump\t// in\ntag_92:\n    /* \"#utility.yul\":3447:3590   */\n  swap3\n  swap2\n  pop\n  pop\n  jump\t// out\n    /* \"#utility.yul\":3596:5909   */\ntag_3:\n    /* \"#utility.yul\":3779:3785   */\n  0x00\n    /* \"#utility.yul\":3787:3793   */\n  dup1\n    /* \"#utility.yul\":3795:3801   */\n  0x00\n    /* \"#utility.yul\":3803:3809   */\n  dup1\n    /* \"#utility.yul\":3811:3817   */\n  0x00\n    /* \"#utility.yul\":3819:3825   */\n  dup1\n    /* \"#utility.yul\":3827:3833   */\n  0x00\n    /* \"#utility.yul\":3835:3841   */\n  dup1\n    /* \"#utility.yul\":3884:3887   */\n  0x0100\n    /* \"#utility.yul\":3872:3881   */\n  dup10\n    /* \"#utility.yul\":3863:3870   */\n  dup12\n    /* \"#utility.yul\":3859:3882   */\n  sub\n    /* \"#utility.yul\":3855:3888   */\n  slt\n    /* \"#utility.yul\":3852:3972   */\n  iszero\n  tag_94\n  jumpi\n    /* \"#utility.yul\":3891:3970   */\n  tag_95\n  tag_25\n  jump\t// in\ntag_95:\n    /* \"#utility.yul\":3852:3972   */\ntag_94:\n    /* \"#utility.yul\":4011:4012   */\n  0x00\n    /* \"#utility.yul\":4036:4100   */\n  tag_96\n    /* \"#utility.yul\":4092:4099   */\n  dup12\n    /* \"#utility.yul\":4083:4089   */\n  dup3\n    /* \"#utility.yul\":4072:4081   */\n  dup13\n    /* \"#utility.yul\":4068:4090   */\n  add\n    /* \"#utility.yul\":4036:4100   */\n  tag_30\n  jump\t// in\ntag_96:\n    /* \"#utility.yul\":4026:4100   */\n  swap9\n  pop\n    /* \"#utility.yul\":3982:4110   */\n  pop\n    /* \"#utility.yul\":4170:4172   */\n  0x20\n    /* \"#utility.yul\":4159:4168   */\n  dup10\n    /* \"#utility.yul\":4155:4173   */\n  add\n    /* \"#utility.yul\":4149:4174   */\n  mload\n    /* \"#utility.yul\":4201:4219   */\n  0xffffffffffffffff\n    /* \"#utility.yul\":4193:4199   */\n  dup2\n    /* \"#utility.yul\":4190:4220   */\n  gt\n    /* \"#utility.yul\":4187:4304   */\n  iszero\n  tag_97\n  jumpi\n    /* \"#utility.yul\":4223:4302   */\n  tag_98\n  tag_26\n  jump\t// in\ntag_98:\n    /* \"#utility.yul\":4187:4304   */\ntag_97:\n    /* \"#utility.yul\":4328:4402   */\n  tag_99\n    /* \"#utility.yul\":4394:4401   */\n  dup12\n    /* \"#utility.yul\":4385:4391   */\n  dup3\n    /* \"#utility.yul\":4374:4383   */\n  dup13\n    /* \"#utility.yul\":4370:4392   */\n  add\n    /* \"#utility.yul\":4328:4402   */\n  tag_40\n  jump\t// in\ntag_99:\n    /* \"#utility.yul\":4318:4402   */\n  swap8\n  pop\n    /* \"#utility.yul\":4120:4412   */\n  pop\n    /* \"#utility.yul\":4451:4453   */\n  0x40\n    /* \"#utility.yul\":4477:4541   */\n  tag_100\n    /* \"#utility.yul\":4533:4540   */\n  dup12\n    /* \"#utility.yul\":4524:4530   */\n  dup3\n    /* \"#utility.yul\":4513:4522   */\n  dup13\n    /* \"#utility.yul\":4509:4531   */\n  add\n    /* \"#utility.yul\":4477:4541   */\n  tag_43\n  jump\t// in\ntag_100:\n    /* \"#utility.yul\":4467:4541   */\n  swap7\n  pop\n    /* \"#utility.yul\":4422:4551   */\n  pop\n    /* \"#utility.yul\":4590:4592   */\n  0x60\n    /* \"#utility.yul\":4616:4680   */\n  tag_101\n    /* \"#utility.yul\":4672:4679   */\n  dup12\n    /* \"#utility.yul\":4663:4669   */\n  dup3\n    /* \"#utility.yul\":4652:4661   */\n  dup13\n    /* \"#utility.yul\":4648:4670   */\n  add\n    /* \"#utility.yul\":4616:4680   */\n  tag_43\n  jump\t// in\ntag_101:\n    /* \"#utility.yul\":4606:4680   */\n  swap6\n  pop\n    /* \"#utility.yul\":4561:4690   */\n  pop\n    /* \"#utility.yul\":4750:4753   */\n  0x80\n    /* \"#utility.yul\":4739:4748   */\n  dup10\n    /* \"#utility.yul\":4735:4754   */\n  add\n    /* \"#utility.yul\":4729:4755   */\n  mload\n    /* \"#utility.yul\":4782:4800   */\n  0xffffffffffffffff\n    /* \"#utility.yul\":4774:4780   */\n  dup2\n    /* \"#utility.yul\":4771:4801   */\n  gt\n    /* \"#utility.yul\":4768:4885   */\n  iszero\n  tag_102\n  jumpi\n    /* \"#utility.yul\":4804:4883   */\n  tag_103\n  tag_26\n  jump\t// in\ntag_103:\n    /* \"#utility.yul\":4768:4885   */\ntag_102:\n    /* \"#utility.yul\":4909:4983   */\n  tag_104\n    /* \"#utility.yul\":4975:4982   */\n  dup12\n    /* \"#utility.yul\":4966:4972   */\n  dup3\n    /* \"#utility.yul\":4955:4964   */\n  dup13\n    /* \"#utility.yul\":4951:4973   */\n  add\n    /* \"#utility.yul\":4909:4983   */\n  tag_40\n  jump\t// in\ntag_104:\n    /* \"#utility.yul\":4899:4983   */\n  swap5\n  pop\n    /* \"#utility.yul\":4700:4993   */\n  pop\n    /* \"#utility.yul\":5053:5056   */\n  0xa0\n    /* \"#utility.yul\":5042:5051   */\n  dup10\n    /* \"#utility.yul\":5038:5057   */\n  add\n    /* \"#utility.yul\":5032:5058   */\n  mload\n    /* \"#utility.yul\":5085:5103   */\n  0xffffffffffffffff\n    /* \"#utility.yul\":5077:5083   */\n  dup2\n    /* \"#utility.yul\":5074:5104   */\n  gt\n    /* \"#utility.yul\":5071:5188   */\n  iszero\n  tag_105\n  jumpi\n    /* \"#utility.yul\":5107:5186   */\n  tag_106\n  tag_26\n  jump\t// in\ntag_106:\n    /* \"#utility.yul\":5071:5188   */\ntag_105:\n    /* \"#utility.yul\":5212:5286   */\n  tag_107\n    /* \"#utility.yul\":5278:5285   */\n  dup12\n    /* \"#utility.yul\":5269:5275   */\n  dup3\n    /* \"#utility.yul\":5258:5267   */\n  dup13\n    /* \"#utility.yul\":5254:5276   */\n  add\n    /* \"#utility.yul\":5212:5286   */\n  tag_40\n  jump\t// in\ntag_107:\n    /* \"#utility.yul\":5202:5286   */\n  swap4\n  pop\n    /* \"#utility.yul\":5003:5296   */\n  pop\n    /* \"#utility.yul\":5356:5359   */\n  0xc0\n    /* \"#utility.yul\":5345:5354   */\n  dup10\n    /* \"#utility.yul\":5341:5360   */\n  add\n    /* \"#utility.yul\":5335:5361   */\n  mload\n    /* \"#utility.yul\":5388:5406   */\n  0xffffffffffffffff\n    /* \"#utility.yul\":5380:5386   */\n  dup2\n    /* \"#utility.yul\":5377:5407   */\n  gt\n    /* \"#utility.yul\":5374:5491   */\n  iszero\n  tag_108\n  jumpi\n    /* \"#utility.yul\":5410:5489   */\n  tag_109\n  tag_26\n  jump\t// in\ntag_109:\n    /* \"#utility.yul\":5374:5491   */\ntag_108:\n    /* \"#utility.yul\":5515:5589   */\n  tag_110\n    /* \"#utility.yul\":5581:5588   */\n  dup12\n    /* \"#utility.yul\":5572:5578   */\n  dup3\n    /* \"#utility.yul\":5561:5570   */\n  dup13\n    /* \"#utility.yul\":5557:5579   */\n  add\n    /* \"#utility.yul\":5515:5589   */\n  tag_40\n  jump\t// in\ntag_110:\n    /* \"#utility.yul\":5505:5589   */\n  swap3\n  pop\n    /* \"#utility.yul\":5306:5599   */\n  pop\n    /* \"#utility.yul\":5659:5662   */\n  0xe0\n    /* \"#utility.yul\":5648:5657   */\n  dup10\n    /* \"#utility.yul\":5644:5663   */\n  add\n    /* \"#utility.yul\":5638:5664   */\n  mload\n    /* \"#utility.yul\":5691:5709   */\n  0xffffffffffffffff\n    /* \"#utility.yul\":5683:5689   */\n  dup2\n    /* \"#utility.yul\":5680:5710   */\n  gt\n    /* \"#utility.yul\":5677:5794   */\n  iszero\n  tag_111\n  jumpi\n    /* \"#utility.yul\":5713:5792   */\n  tag_112\n  tag_26\n  jump\t// in\ntag_112:\n    /* \"#utility.yul\":5677:5794   */\ntag_111:\n    /* \"#utility.yul\":5818:5892   */\n  tag_113\n    /* \"#utility.yul\":5884:5891   */\n  dup12\n    /* \"#utility.yul\":5875:5881   */\n  dup3\n    /* \"#utility.yul\":5864:5873   */\n  dup13\n    /* \"#utility.yul\":5860:5882   */\n  add\n    /* \"#utility.yul\":5818:5892   */\n  tag_40\n  jump\t// in\ntag_113:\n    /* \"#utility.yul\":5808:5892   */\n  swap2\n  pop\n    /* \"#utility.yul\":5609:5902   */\n  pop\n    /* \"#utility.yul\":3596:5909   */\n  swap3\n  swap6\n  swap9\n  pop\n  swap3\n  swap6\n  swap9\n  swap1\n  swap4\n  swap7\n  pop\n  jump\t// out\n    /* \"#utility.yul\":5915:6095   */\ntag_44:\n    /* \"#utility.yul\":5963:6040   */\n  0x4e487b7100000000000000000000000000000000000000000000000000000000\n    /* \"#utility.yul\":5960:5961   */\n  0x00\n    /* \"#utility.yul\":5953:6041   */\n  mstore\n    /* \"#utility.yul\":6060:6064   */\n  0x22\n    /* \"#utility.yul\":6057:6058   */\n  0x04\n    /* \"#utility.yul\":6050:6065   */\n  mstore\n    /* \"#utility.yul\":6084:6088   */\n  0x24\n    /* \"#utility.yul\":6081:6082   */\n  0x00\n    /* \"#utility.yul\":6074:6089   */\n  revert\n    /* \"#utility.yul\":6101:6421   */\ntag_14:\n    /* \"#utility.yul\":6145:6151   */\n  0x00\n    /* \"#utility.yul\":6182:6183   */\n  0x02\n    /* \"#utility.yul\":6176:6180   */\n  dup3\n    /* \"#utility.yul\":6172:6184   */\n  div\n    /* \"#utility.yul\":6162:6184   */\n  swap1\n  pop\n    /* \"#utility.yul\":6229:6230   */\n  0x01\n    /* \"#utility.yul\":6223:6227   */\n  dup3\n    /* \"#utility.yul\":6219:6231   */\n  and\n    /* \"#utility.yul\":6250:6268   */\n  dup1\n    /* \"#utility.yul\":6240:6321   */\n  tag_116\n  jumpi\n    /* \"#utility.yul\":6306:6310   */\n  0x7f\n    /* \"#utility.yul\":6298:6304   */\n  dup3\n    /* \"#utility.yul\":6294:6311   */\n  and\n    /* \"#utility.yul\":6284:6311   */\n  swap2\n  pop\n    /* \"#utility.yul\":6240:6321   */\ntag_116:\n    /* \"#utility.yul\":6368:6370   */\n  0x20\n    /* \"#utility.yul\":6360:6366   */\n  dup3\n    /* \"#utility.yul\":6357:6371   */\n  lt\n    /* \"#utility.yul\":6337:6355   */\n  dup2\n    /* \"#utility.yul\":6334:6372   */\n  eq\n    /* \"#utility.yul\":6331:6415   */\n  iszero\n  tag_117\n  jumpi\n    /* \"#utility.yul\":6387:6405   */\n  tag_118\n  tag_44\n  jump\t// in\ntag_118:\n    /* \"#utility.yul\":6331:6415   */\ntag_117:\n    /* \"#utility.yul\":6152:6421   */\n  pop\n    /* \"#utility.yul\":6101:6421   */\n  swap2\n  swap1\n  pop\n  jump\t// out\n    /* \"Project.sol\":1547:4880  contract Project {... */\ntag_12:\n  dataSize(sub_0)\n  dup1\n  dataOffset(sub_0)\n  0x00\n  codecopy\n  0x00\n  return\nstop\n\nsub_0: assembly {\n        /* \"Project.sol\":1547:4880  contract Project {... */\n      mstore(0x40, 0x80)\n      jumpi(tag_1, lt(calldatasize, 0x04))\n      shr(0xe0, calldataload(0x00))\n      dup1\n      0x8a9cfd55\n      gt\n      tag_22\n      jumpi\n      dup1\n      0xcaf7b759\n      gt\n      tag_23\n      jumpi\n      dup1\n      0xcaf7b759\n      eq\n      tag_17\n      jumpi\n      dup1\n      0xd7bb99ba\n      eq\n      tag_18\n      jumpi\n      dup1\n      0xd7d1bbdb\n      eq\n      tag_19\n      jumpi\n      dup1\n      0xef2c586f\n      eq\n      tag_20\n      jumpi\n      dup1\n      0xef430aa6\n      eq\n      tag_21\n      jumpi\n      jump(tag_1)\n    tag_23:\n      dup1\n      0x8a9cfd55\n      eq\n      tag_12\n      jumpi\n      dup1\n      0x937e09b1\n      eq\n      tag_13\n      jumpi\n      dup1\n      0x953b8fb8\n      eq\n      tag_14\n      jumpi\n      dup1\n      0xaffa7b6d\n      eq\n      tag_15\n      jumpi\n      dup1\n      0xb85dfb80\n      eq\n      tag_16\n      jumpi\n      jump(tag_1)\n    tag_22:\n      dup1\n      0x488c2ad2\n      gt\n      tag_24\n      jumpi\n      dup1\n      0x488c2ad2\n      eq\n      tag_7\n      jumpi\n      dup1\n      0x4a0aee29\n      eq\n      tag_8\n      jumpi\n      dup1\n      0x4a79d50c\n      eq\n      tag_9\n      jumpi\n      dup1\n      0x7284e416\n      eq\n      tag_10\n      jumpi\n      dup1\n      0x81d12c58\n      eq\n      tag_11\n      jumpi\n      jump(tag_1)\n    tag_24:\n      dup1\n      0x03441006\n      eq\n      tag_2\n      jumpi\n      dup1\n      0x1d565e78\n      eq\n      tag_3\n      jumpi\n      dup1\n      0x3410452a\n      eq\n      tag_4\n      jumpi\n      dup1\n      0x4051ddac\n      eq\n      tag_5\n      jumpi\n      dup1\n      0x481c6a75\n      eq\n      tag_6\n      jumpi\n    tag_1:\n      0x00\n      dup1\n      revert\n        /* \"Project.sol\":3830:4246  function finalizeRequest(uint index) public restricted {... */\n    tag_2:\n      callvalue\n      dup1\n      iszero\n      tag_25\n      jumpi\n      0x00\n      dup1\n      revert\n    tag_25:\n      pop\n      tag_26\n      0x04\n      dup1\n      calldatasize\n      sub\n      dup2\n      add\n      swap1\n      tag_27\n      swap2\n      swap1\n      tag_28\n      jump\t// in\n    tag_27:\n      tag_29\n      jump\t// in\n    tag_26:\n      stop\n        /* \"Project.sol\":1653:1679  uint public backersCount=0 */\n    tag_3:\n      callvalue\n      dup1\n      iszero\n      tag_30\n      jumpi\n      0x00\n      dup1\n      revert\n    tag_30:\n      pop\n      tag_31\n      tag_32\n      jump\t// in\n    tag_31:\n      mload(0x40)\n      tag_33\n      swap2\n      swap1\n      tag_34\n      jump\t// in\n    tag_33:\n      mload(0x40)\n      dup1\n      swap2\n      sub\n      swap1\n      return\n        /* \"Project.sol\":4784:4878  function getRequestsCount() public view returns (uint) {... */\n    tag_4:\n      callvalue\n      dup1\n      iszero\n      tag_35\n      jumpi\n      0x00\n      dup1\n      revert\n    tag_35:\n      pop\n      tag_36\n      tag_37\n      jump\t// in\n    tag_36:\n      mload(0x40)\n      tag_38\n      swap2\n      swap1\n      tag_34\n      jump\t// in\n    tag_38:\n      mload(0x40)\n      dup1\n      swap2\n      sub\n      swap1\n      return\n        /* \"Project.sol\":4256:4779  function getSummary() public view returns (... */\n    tag_5:\n      callvalue\n      dup1\n      iszero\n      tag_39\n      jumpi\n      0x00\n      dup1\n      revert\n    tag_39:\n      pop\n      tag_40\n      tag_41\n      jump\t// in\n    tag_40:\n      mload(0x40)\n      tag_42\n      swap13\n      swap12\n      swap11\n      swap10\n      swap9\n      swap8\n      swap7\n      swap6\n      swap5\n      swap4\n      swap3\n      swap2\n      swap1\n      tag_43\n      jump\t// in\n    tag_42:\n      mload(0x40)\n      dup1\n      swap2\n      sub\n      swap1\n      return\n        /* \"Project.sol\":1570:1592  address public manager */\n    tag_6:\n      callvalue\n      dup1\n      iszero\n      tag_44\n      jumpi\n      0x00\n      dup1\n      revert\n    tag_44:\n      pop\n      tag_45\n      tag_46\n      jump\t// in\n    tag_45:\n      mload(0x40)\n      tag_47\n      swap2\n      swap1\n      tag_48\n      jump\t// in\n    tag_47:\n      mload(0x40)\n      dup1\n      swap2\n      sub\n      swap1\n      return\n        /* \"Project.sol\":1716:1740  string public targetDate */\n    tag_7:\n      callvalue\n      dup1\n      iszero\n      tag_49\n      jumpi\n      0x00\n      dup1\n      revert\n    tag_49:\n      pop\n      tag_50\n      tag_51\n      jump\t// in\n    tag_50:\n      mload(0x40)\n      tag_52\n      swap2\n      swap1\n      tag_53\n      jump\t// in\n    tag_52:\n      mload(0x40)\n      dup1\n      swap2\n      sub\n      swap1\n      return\n        /* \"Project.sol\":1810:1839  uint public pendingRequests=0 */\n    tag_8:\n      callvalue\n      dup1\n      iszero\n      tag_54\n      jumpi\n      0x00\n      dup1\n      revert\n    tag_54:\n      pop\n      tag_55\n      tag_56\n      jump\t// in\n    tag_55:\n      mload(0x40)\n      tag_57\n      swap2\n      swap1\n      tag_34\n      jump\t// in\n    tag_57:\n      mload(0x40)\n      dup1\n      swap2\n      sub\n      swap1\n      return\n        /* \"Project.sol\":1598:1617  string public title */\n    tag_9:\n      callvalue\n      dup1\n      iszero\n      tag_58\n      jumpi\n      0x00\n      dup1\n      revert\n    tag_58:\n      pop\n      tag_59\n      tag_60\n      jump\t// in\n    tag_59:\n      mload(0x40)\n      tag_61\n      swap2\n      swap1\n      tag_53\n      jump\t// in\n    tag_61:\n      mload(0x40)\n      dup1\n      swap2\n      sub\n      swap1\n      return\n        /* \"Project.sol\":1685:1710  string public description */\n    tag_10:\n      callvalue\n      dup1\n      iszero\n      tag_62\n      jumpi\n      0x00\n      dup1\n      revert\n    tag_62:\n      pop\n      tag_63\n      tag_64\n      jump\t// in\n    tag_63:\n      mload(0x40)\n      tag_65\n      swap2\n      swap1\n      tag_53\n      jump\t// in\n    tag_65:\n      mload(0x40)\n      dup1\n      swap2\n      sub\n      swap1\n      return\n        /* \"Project.sol\":2197:2222  Request[] public requests */\n    tag_11:\n      callvalue\n      dup1\n      iszero\n      tag_66\n      jumpi\n      0x00\n      dup1\n      revert\n    tag_66:\n      pop\n      tag_67\n      0x04\n      dup1\n      calldatasize\n      sub\n      dup2\n      add\n      swap1\n      tag_68\n      swap2\n      swap1\n      tag_28\n      jump\t// in\n    tag_68:\n      tag_69\n      jump\t// in\n    tag_67:\n      mload(0x40)\n      tag_70\n      swap6\n      swap5\n      swap4\n      swap3\n      swap2\n      swap1\n      tag_71\n      jump\t// in\n    tag_70:\n      mload(0x40)\n      dup1\n      swap2\n      sub\n      swap1\n      return\n        /* \"Project.sol\":3130:3545  function createRequest(string memory descriptionInput, uint amountInput, address recipientInput) public restricted {... */\n    tag_12:\n      callvalue\n      dup1\n      iszero\n      tag_72\n      jumpi\n      0x00\n      dup1\n      revert\n    tag_72:\n      pop\n      tag_73\n      0x04\n      dup1\n      calldatasize\n      sub\n      dup2\n      add\n      swap1\n      tag_74\n      swap2\n      swap1\n      tag_75\n      jump\t// in\n    tag_74:\n      tag_76\n      jump\t// in\n    tag_73:\n      stop\n        /* \"Project.sol\":1910:1941  uint public minimumContribution */\n    tag_13:\n      callvalue\n      dup1\n      iszero\n      tag_77\n      jumpi\n      0x00\n      dup1\n      revert\n    tag_77:\n      pop\n      tag_78\n      tag_79\n      jump\t// in\n    tag_78:\n      mload(0x40)\n      tag_80\n      swap2\n      swap1\n      tag_34\n      jump\t// in\n    tag_80:\n      mload(0x40)\n      dup1\n      swap2\n      sub\n      swap1\n      return\n        /* \"Project.sol\":1623:1647  uint public targetAmount */\n    tag_14:\n      callvalue\n      dup1\n      iszero\n      tag_81\n      jumpi\n      0x00\n      dup1\n      revert\n    tag_81:\n      pop\n      tag_82\n      tag_83\n      jump\t// in\n    tag_82:\n      mload(0x40)\n      tag_84\n      swap2\n      swap1\n      tag_34\n      jump\t// in\n    tag_84:\n      mload(0x40)\n      dup1\n      swap2\n      sub\n      swap1\n      return\n        /* \"Project.sol\":1845:1876  uint public finalizedRequests=0 */\n    tag_15:\n      callvalue\n      dup1\n      iszero\n      tag_85\n      jumpi\n      0x00\n      dup1\n      revert\n    tag_85:\n      pop\n      tag_86\n      tag_87\n      jump\t// in\n    tag_86:\n      mload(0x40)\n      tag_88\n      swap2\n      swap1\n      tag_34\n      jump\t// in\n    tag_88:\n      mload(0x40)\n      dup1\n      swap2\n      sub\n      swap1\n      return\n        /* \"Project.sol\":1952:1991  mapping(address => bool) public backers */\n    tag_16:\n      callvalue\n      dup1\n      iszero\n      tag_89\n      jumpi\n      0x00\n      dup1\n      revert\n    tag_89:\n      pop\n      tag_90\n      0x04\n      dup1\n      calldatasize\n      sub\n      dup2\n      add\n      swap1\n      tag_91\n      swap2\n      swap1\n      tag_92\n      jump\t// in\n    tag_91:\n      tag_93\n      jump\t// in\n    tag_90:\n      mload(0x40)\n      tag_94\n      swap2\n      swap1\n      tag_95\n      jump\t// in\n    tag_94:\n      mload(0x40)\n      dup1\n      swap2\n      sub\n      swap1\n      return\n        /* \"Project.sol\":1746:1769  string public imageLink */\n    tag_17:\n      callvalue\n      dup1\n      iszero\n      tag_96\n      jumpi\n      0x00\n      dup1\n      revert\n    tag_96:\n      pop\n      tag_97\n      tag_98\n      jump\t// in\n    tag_97:\n      mload(0x40)\n      tag_99\n      swap2\n      swap1\n      tag_53\n      jump\t// in\n    tag_99:\n      mload(0x40)\n      dup1\n      swap2\n      sub\n      swap1\n      return\n        /* \"Project.sol\":2884:3123  function contribute() public payable {... */\n    tag_18:\n      tag_100\n      tag_101\n      jump\t// in\n    tag_100:\n      stop\n        /* \"Project.sol\":3552:3823  function approveRequest(uint index) public {... */\n    tag_19:\n      callvalue\n      dup1\n      iszero\n      tag_102\n      jumpi\n      0x00\n      dup1\n      revert\n    tag_102:\n      pop\n      tag_103\n      0x04\n      dup1\n      calldatasize\n      sub\n      dup2\n      add\n      swap1\n      tag_104\n      swap2\n      swap1\n      tag_28\n      jump\t// in\n    tag_104:\n      tag_105\n      jump\t// in\n    tag_103:\n      stop\n        /* \"Project.sol\":1775:1804  uint public fundingReceived=0 */\n    tag_20:\n      callvalue\n      dup1\n      iszero\n      tag_106\n      jumpi\n      0x00\n      dup1\n      revert\n    tag_106:\n      pop\n      tag_107\n      tag_108\n      jump\t// in\n    tag_107:\n      mload(0x40)\n      tag_109\n      swap2\n      swap1\n      tag_34\n      jump\t// in\n    tag_109:\n      mload(0x40)\n      dup1\n      swap2\n      sub\n      swap1\n      return\n        /* \"Project.sol\":1882:1904  string public category */\n    tag_21:\n      callvalue\n      dup1\n      iszero\n      tag_110\n      jumpi\n      0x00\n      dup1\n      revert\n    tag_110:\n      pop\n      tag_111\n      tag_112\n      jump\t// in\n    tag_111:\n      mload(0x40)\n      tag_113\n      swap2\n      swap1\n      tag_53\n      jump\t// in\n    tag_113:\n      mload(0x40)\n      dup1\n      swap2\n      sub\n      swap1\n      return\n        /* \"Project.sol\":3830:4246  function finalizeRequest(uint index) public restricted {... */\n    tag_29:\n        /* \"Project.sol\":2283:2290  manager */\n      0x00\n      dup1\n      sload\n      swap1\n      0x0100\n      exp\n      swap1\n      div\n      0xffffffffffffffffffffffffffffffffffffffff\n      and\n        /* \"Project.sol\":2269:2290  msg.sender == manager */\n      0xffffffffffffffffffffffffffffffffffffffff\n      and\n        /* \"Project.sol\":2269:2279  msg.sender */\n      caller\n        /* \"Project.sol\":2269:2290  msg.sender == manager */\n      0xffffffffffffffffffffffffffffffffffffffff\n      and\n      eq\n        /* \"Project.sol\":2261:2291  require(msg.sender == manager) */\n      tag_115\n      jumpi\n      0x00\n      dup1\n      revert\n    tag_115:\n        /* \"Project.sol\":3895:3918  Request storage request */\n      0x00\n        /* \"Project.sol\":3921:3929  requests */\n      0x0d\n        /* \"Project.sol\":3930:3935  index */\n      dup3\n        /* \"Project.sol\":3921:3936  requests[index] */\n      dup2\n      sload\n      dup2\n      lt\n      tag_117\n      jumpi\n      tag_118\n      tag_119\n      jump\t// in\n    tag_118:\n    tag_117:\n      swap1\n      0x00\n      mstore\n      keccak256(0x00, 0x20)\n      swap1\n      0x05\n      mul\n      add\n        /* \"Project.sol\":3895:3936  Request storage request = requests[index] */\n      swap1\n      pop\n        /* \"Project.sol\":3982:3994  backersCount */\n      sload(0x03)\n        /* \"Project.sol\":3978:3979  2 */\n      0x02\n        /* \"Project.sol\":3956:3963  request */\n      dup3\n        /* \"Project.sol\":3956:3977  request.approvalCount */\n      0x03\n      add\n      sload\n        /* \"Project.sol\":3956:3979  request.approvalCount*2 */\n      tag_121\n      swap2\n      swap1\n      tag_122\n      jump\t// in\n    tag_121:\n        /* \"Project.sol\":3956:3994  request.approvalCount*2 > backersCount */\n      gt\n        /* \"Project.sol\":3948:3995  require(request.approvalCount*2 > backersCount) */\n      tag_123\n      jumpi\n      0x00\n      dup1\n      revert\n    tag_123:\n        /* \"Project.sol\":4014:4021  request */\n      dup1\n        /* \"Project.sol\":4014:4030  request.complete */\n      0x02\n      add\n      0x14\n      swap1\n      sload\n      swap1\n      0x0100\n      exp\n      swap1\n      div\n      0xff\n      and\n        /* \"Project.sol\":4013:4030  !request.complete */\n      iszero\n        /* \"Project.sol\":4005:4031  require(!request.complete) */\n      tag_124\n      jumpi\n      0x00\n      dup1\n      revert\n    tag_124:\n        /* \"Project.sol\":4065:4086  address(this).balance */\n      selfbalance\n        /* \"Project.sol\":4049:4056  request */\n      dup2\n        /* \"Project.sol\":4049:4063  request.amount */\n      0x01\n      add\n      sload\n        /* \"Project.sol\":4049:4086  request.amount<=address(this).balance */\n      gt\n      iszero\n        /* \"Project.sol\":4041:4087  require(request.amount<=address(this).balance) */\n      tag_125\n      jumpi\n      0x00\n      dup1\n      revert\n    tag_125:\n        /* \"Project.sol\":4107:4114  request */\n      dup1\n        /* \"Project.sol\":4107:4124  request.recipient */\n      0x02\n      add\n      0x00\n      swap1\n      sload\n      swap1\n      0x0100\n      exp\n      swap1\n      div\n      0xffffffffffffffffffffffffffffffffffffffff\n      and\n        /* \"Project.sol\":4099:4134  payable(request.recipient).transfer */\n      0xffffffffffffffffffffffffffffffffffffffff\n      and\n        /* \"Project.sol\":4099:4150  payable(request.recipient).transfer(request.amount) */\n      0x08fc\n        /* \"Project.sol\":4135:4142  request */\n      dup3\n        /* \"Project.sol\":4135:4149  request.amount */\n      0x01\n      add\n      sload\n        /* \"Project.sol\":4099:4150  payable(request.recipient).transfer(request.amount) */\n      swap1\n      dup2\n      iszero\n      mul\n      swap1\n      mload(0x40)\n      0x00\n      mload(0x40)\n      dup1\n      dup4\n      sub\n      dup2\n      dup6\n      dup9\n      dup9\n      call\n      swap4\n      pop\n      pop\n      pop\n      pop\n      iszero\n      dup1\n      iszero\n      tag_127\n      jumpi\n      returndatasize\n      0x00\n      dup1\n      returndatacopy\n      revert(0x00, returndatasize)\n    tag_127:\n      pop\n        /* \"Project.sol\":4179:4183  true */\n      0x01\n        /* \"Project.sol\":4160:4167  request */\n      dup2\n        /* \"Project.sol\":4160:4176  request.complete */\n      0x02\n      add\n      0x14\n        /* \"Project.sol\":4160:4183  request.complete = true */\n      0x0100\n      exp\n      dup2\n      sload\n      dup2\n      0xff\n      mul\n      not\n      and\n      swap1\n      dup4\n      iszero\n      iszero\n      mul\n      or\n      swap1\n      sstore\n      pop\n        /* \"Project.sol\":4193:4210  finalizedRequests */\n      0x09\n      0x00\n        /* \"Project.sol\":4193:4212  finalizedRequests++ */\n      dup2\n      sload\n      dup1\n      swap3\n      swap2\n      swap1\n      tag_128\n      swap1\n      tag_129\n      jump\t// in\n    tag_128:\n      swap2\n      swap1\n      pop\n      sstore\n      pop\n        /* \"Project.sol\":4222:4237  pendingRequests */\n      0x08\n      0x00\n        /* \"Project.sol\":4222:4239  pendingRequests-- */\n      dup2\n      sload\n      dup1\n      swap3\n      swap2\n      swap1\n      tag_130\n      swap1\n      tag_131\n      jump\t// in\n    tag_130:\n      swap2\n      swap1\n      pop\n      sstore\n      pop\n        /* \"Project.sol\":3885:4246  {... */\n      pop\n        /* \"Project.sol\":3830:4246  function finalizeRequest(uint index) public restricted {... */\n      pop\n      jump\t// out\n        /* \"Project.sol\":1653:1679  uint public backersCount=0 */\n    tag_32:\n      sload(0x03)\n      dup2\n      jump\t// out\n        /* \"Project.sol\":4784:4878  function getRequestsCount() public view returns (uint) {... */\n    tag_37:\n        /* \"Project.sol\":4833:4837  uint */\n      0x00\n        /* \"Project.sol\":4856:4864  requests */\n      0x0d\n        /* \"Project.sol\":4856:4871  requests.length */\n      dup1\n      sload\n      swap1\n      pop\n        /* \"Project.sol\":4849:4871  return requests.length */\n      swap1\n      pop\n        /* \"Project.sol\":4784:4878  function getRequestsCount() public view returns (uint) {... */\n      swap1\n      jump\t// out\n        /* \"Project.sol\":4256:4779  function getSummary() public view returns (... */\n    tag_41:\n        /* \"Project.sol\":4306:4313  address */\n      0x00\n        /* \"Project.sol\":4315:4319  uint */\n      dup1\n        /* \"Project.sol\":4321:4334  string memory */\n      0x60\n        /* \"Project.sol\":4336:4349  string memory */\n      dup1\n        /* \"Project.sol\":4351:4364  string memory */\n      0x60\n        /* \"Project.sol\":4366:4370  uint */\n      0x00\n        /* \"Project.sol\":4372:4376  uint */\n      dup1\n        /* \"Project.sol\":4378:4382  uint */\n      0x00\n        /* \"Project.sol\":4384:4397  string memory */\n      0x60\n        /* \"Project.sol\":4399:4412  string memory */\n      dup1\n        /* \"Project.sol\":4414:4418  uint */\n      0x00\n        /* \"Project.sol\":4420:4424  uint */\n      dup1\n        /* \"Project.sol\":4464:4471  manager */\n      0x00\n      dup1\n      sload\n      swap1\n      0x0100\n      exp\n      swap1\n      div\n      0xffffffffffffffffffffffffffffffffffffffff\n      and\n        /* \"Project.sol\":4485:4506  address(this).balance */\n      selfbalance\n        /* \"Project.sol\":4520:4525  title */\n      0x01\n        /* \"Project.sol\":4539:4550  description */\n      0x04\n        /* \"Project.sol\":4564:4572  category */\n      0x0a\n        /* \"Project.sol\":4586:4598  targetAmount */\n      sload(0x02)\n        /* \"Project.sol\":4612:4631  minimumContribution */\n      sload(0x0b)\n        /* \"Project.sol\":4645:4657  backersCount */\n      sload(0x03)\n        /* \"Project.sol\":4671:4681  targetDate */\n      0x05\n        /* \"Project.sol\":4695:4704  imageLink */\n      0x06\n        /* \"Project.sol\":4718:4733  fundingReceived */\n      sload(0x07)\n        /* \"Project.sol\":4747:4762  pendingRequests */\n      sload(0x08)\n        /* \"Project.sol\":4443:4772  return (... */\n      dup10\n      dup1\n      sload\n      tag_134\n      swap1\n      tag_135\n      jump\t// in\n    tag_134:\n      dup1\n      0x1f\n      add\n      0x20\n      dup1\n      swap2\n      div\n      mul\n      0x20\n      add\n      mload(0x40)\n      swap1\n      dup2\n      add\n      0x40\n      mstore\n      dup1\n      swap3\n      swap2\n      swap1\n      dup2\n      dup2\n      mstore\n      0x20\n      add\n      dup3\n      dup1\n      sload\n      tag_136\n      swap1\n      tag_135\n      jump\t// in\n    tag_136:\n      dup1\n      iszero\n      tag_137\n      jumpi\n      dup1\n      0x1f\n      lt\n      tag_138\n      jumpi\n      0x0100\n      dup1\n      dup4\n      sload\n      div\n      mul\n      dup4\n      mstore\n      swap2\n      0x20\n      add\n      swap2\n      jump(tag_137)\n    tag_138:\n      dup3\n      add\n      swap2\n      swap1\n      0x00\n      mstore\n      keccak256(0x00, 0x20)\n      swap1\n    tag_139:\n      dup2\n      sload\n      dup2\n      mstore\n      swap1\n      0x01\n      add\n      swap1\n      0x20\n      add\n      dup1\n      dup4\n      gt\n      tag_139\n      jumpi\n      dup3\n      swap1\n      sub\n      0x1f\n      and\n      dup3\n      add\n      swap2\n    tag_137:\n      pop\n      pop\n      pop\n      pop\n      pop\n      swap10\n      pop\n      dup9\n      dup1\n      sload\n      tag_140\n      swap1\n      tag_135\n      jump\t// in\n    tag_140:\n      dup1\n      0x1f\n      add\n      0x20\n      dup1\n      swap2\n      div\n      mul\n      0x20\n      add\n      mload(0x40)\n      swap1\n      dup2\n      add\n      0x40\n      mstore\n      dup1\n      swap3\n      swap2\n      swap1\n      dup2\n      dup2\n      mstore\n      0x20\n      add\n      dup3\n      dup1\n      sload\n      tag_141\n      swap1\n      tag_135\n      jump\t// in\n    tag_141:\n      dup1\n      iszero\n      tag_142\n      jumpi\n      dup1\n      0x1f\n      lt\n      tag_143\n      jumpi\n      0x0100\n      dup1\n      dup4\n      sload\n      div\n      mul\n      dup4\n      mstore\n      swap2\n      0x20\n      add\n      swap2\n      jump(tag_142)\n    tag_143:\n      dup3\n      add\n      swap2\n      swap1\n      0x00\n      mstore\n      keccak256(0x00, 0x20)\n      swap1\n    tag_144:\n      dup2\n      sload\n      dup2\n      mstore\n      swap1\n      0x01\n      add\n      swap1\n      0x20\n      add\n      dup1\n      dup4\n      gt\n      tag_144\n      jumpi\n      dup3\n      swap1\n      sub\n      0x1f\n      and\n      dup3\n      add\n      swap2\n    tag_142:\n      pop\n      pop\n      pop\n      pop\n      pop\n      swap9\n      pop\n      dup8\n      dup1\n      sload\n      tag_145\n      swap1\n      tag_135\n      jump\t// in\n    tag_145:\n      dup1\n      0x1f\n      add\n      0x20\n      dup1\n      swap2\n      div\n      mul\n      0x20\n      add\n      mload(0x40)\n      swap1\n      dup2\n      add\n      0x40\n      mstore\n      dup1\n      swap3\n      swap2\n      swap1\n      dup2\n      dup2\n      mstore\n      0x20\n      add\n      dup3\n      dup1\n      sload\n      tag_146\n      swap1\n      tag_135\n      jump\t// in\n    tag_146:\n      dup1\n      iszero\n      tag_147\n      jumpi\n      dup1\n      0x1f\n      lt\n      tag_148\n      jumpi\n      0x0100\n      dup1\n      dup4\n      sload\n      div\n      mul\n      dup4\n      mstore\n      swap2\n      0x20\n      add\n      swap2\n      jump(tag_147)\n    tag_148:\n      dup3\n      add\n      swap2\n      swap1\n      0x00\n      mstore\n      keccak256(0x00, 0x20)\n      swap1\n    tag_149:\n      dup2\n      sload\n      dup2\n      mstore\n      swap1\n      0x01\n      add\n      swap1\n      0x20\n      add\n      dup1\n      dup4\n      gt\n      tag_149\n      jumpi\n      dup3\n      swap1\n      sub\n      0x1f\n      and\n      dup3\n      add\n      swap2\n    tag_147:\n      pop\n      pop\n      pop\n      pop\n      pop\n      swap8\n      pop\n      dup4\n      dup1\n      sload\n      tag_150\n      swap1\n      tag_135\n      jump\t// in\n    tag_150:\n      dup1\n      0x1f\n      add\n      0x20\n      dup1\n      swap2\n      div\n      mul\n      0x20\n      add\n      mload(0x40)\n      swap1\n      dup2\n      add\n      0x40\n      mstore\n      dup1\n      swap3\n      swap2\n      swap1\n      dup2\n      dup2\n      mstore\n      0x20\n      add\n      dup3\n      dup1\n      sload\n      tag_151\n      swap1\n      tag_135\n      jump\t// in\n    tag_151:\n      dup1\n      iszero\n      tag_152\n      jumpi\n      dup1\n      0x1f\n      lt\n      tag_153\n      jumpi\n      0x0100\n      dup1\n      dup4\n      sload\n      div\n      mul\n      dup4\n      mstore\n      swap2\n      0x20\n      add\n      swap2\n      jump(tag_152)\n    tag_153:\n      dup3\n      add\n      swap2\n      swap1\n      0x00\n      mstore\n      keccak256(0x00, 0x20)\n      swap1\n    tag_154:\n      dup2\n      sload\n      dup2\n      mstore\n      swap1\n      0x01\n      add\n      swap1\n      0x20\n      add\n      dup1\n      dup4\n      gt\n      tag_154\n      jumpi\n      dup3\n      swap1\n      sub\n      0x1f\n      and\n      dup3\n      add\n      swap2\n    tag_152:\n      pop\n      pop\n      pop\n      pop\n      pop\n      swap4\n      pop\n      dup3\n      dup1\n      sload\n      tag_155\n      swap1\n      tag_135\n      jump\t// in\n    tag_155:\n      dup1\n      0x1f\n      add\n      0x20\n      dup1\n      swap2\n      div\n      mul\n      0x20\n      add\n      mload(0x40)\n      swap1\n      dup2\n      add\n      0x40\n      mstore\n      dup1\n      swap3\n      swap2\n      swap1\n      dup2\n      dup2\n      mstore\n      0x20\n      add\n      dup3\n      dup1\n      sload\n      tag_156\n      swap1\n      tag_135\n      jump\t// in\n    tag_156:\n      dup1\n      iszero\n      tag_157\n      jumpi\n      dup1\n      0x1f\n      lt\n      tag_158\n      jumpi\n      0x0100\n      dup1\n      dup4\n      sload\n      div\n      mul\n      dup4\n      mstore\n      swap2\n      0x20\n      add\n      swap2\n      jump(tag_157)\n    tag_158:\n      dup3\n      add\n      swap2\n      swap1\n      0x00\n      mstore\n      keccak256(0x00, 0x20)\n      swap1\n    tag_159:\n      dup2\n      sload\n      dup2\n      mstore\n      swap1\n      0x01\n      add\n      swap1\n      0x20\n      add\n      dup1\n      dup4\n      gt\n      tag_159\n      jumpi\n      dup3\n      swap1\n      sub\n      0x1f\n      and\n      dup3\n      add\n      swap2\n    tag_157:\n      pop\n      pop\n      pop\n      pop\n      pop\n      swap3\n      pop\n      swap12\n      pop\n      swap12\n      pop\n      swap12\n      pop\n      swap12\n      pop\n      swap12\n      pop\n      swap12\n      pop\n      swap12\n      pop\n      swap12\n      pop\n      swap12\n      pop\n      swap12\n      pop\n      swap12\n      pop\n      swap12\n      pop\n        /* \"Project.sol\":4256:4779  function getSummary() public view returns (... */\n      swap1\n      swap2\n      swap3\n      swap4\n      swap5\n      swap6\n      swap7\n      swap8\n      swap9\n      swap10\n      swap11\n      swap12\n      jump\t// out\n        /* \"Project.sol\":1570:1592  address public manager */\n    tag_46:\n      0x00\n      dup1\n      sload\n      swap1\n      0x0100\n      exp\n      swap1\n      div\n      0xffffffffffffffffffffffffffffffffffffffff\n      and\n      dup2\n      jump\t// out\n        /* \"Project.sol\":1716:1740  string public targetDate */\n    tag_51:\n      0x05\n      dup1\n      sload\n      tag_160\n      swap1\n      tag_135\n      jump\t// in\n    tag_160:\n      dup1\n      0x1f\n      add\n      0x20\n      dup1\n      swap2\n      div\n      mul\n      0x20\n      add\n      mload(0x40)\n      swap1\n      dup2\n      add\n      0x40\n      mstore\n      dup1\n      swap3\n      swap2\n      swap1\n      dup2\n      dup2\n      mstore\n      0x20\n      add\n      dup3\n      dup1\n      sload\n      tag_161\n      swap1\n      tag_135\n      jump\t// in\n    tag_161:\n      dup1\n      iszero\n      tag_162\n      jumpi\n      dup1\n      0x1f\n      lt\n      tag_163\n      jumpi\n      0x0100\n      dup1\n      dup4\n      sload\n      div\n      mul\n      dup4\n      mstore\n      swap2\n      0x20\n      add\n      swap2\n      jump(tag_162)\n    tag_163:\n      dup3\n      add\n      swap2\n      swap1\n      0x00\n      mstore\n      keccak256(0x00, 0x20)\n      swap1\n    tag_164:\n      dup2\n      sload\n      dup2\n      mstore\n      swap1\n      0x01\n      add\n      swap1\n      0x20\n      add\n      dup1\n      dup4\n      gt\n      tag_164\n      jumpi\n      dup3\n      swap1\n      sub\n      0x1f\n      and\n      dup3\n      add\n      swap2\n    tag_162:\n      pop\n      pop\n      pop\n      pop\n      pop\n      dup2\n      jump\t// out\n        /* \"Project.sol\":1810:1839  uint public pendingRequests=0 */\n    tag_56:\n      sload(0x08)\n      dup2\n      jump\t// out\n        /* \"Project.sol\":1598:1617  string public title */\n    tag_60:\n      0x01\n      dup1\n      sload\n      tag_165\n      swap1\n      tag_135\n      jump\t// in\n    tag_165:\n      dup1\n      0x1f\n      add\n      0x20\n      dup1\n      swap2\n      div\n      mul\n      0x20\n      add\n      mload(0x40)\n      swap1\n      dup2\n      add\n      0x40\n      mstore\n      dup1\n      swap3\n      swap2\n      swap1\n      dup2\n      dup2\n      mstore\n      0x20\n      add\n      dup3\n      dup1\n      sload\n      tag_166\n      swap1\n      tag_135\n      jump\t// in\n    tag_166:\n      dup1\n      iszero\n      tag_167\n      jumpi\n      dup1\n      0x1f\n      lt\n      tag_168\n      jumpi\n      0x0100\n      dup1\n      dup4\n      sload\n      div\n      mul\n      dup4\n      mstore\n      swap2\n      0x20\n      add\n      swap2\n      jump(tag_167)\n    tag_168:\n      dup3\n      add\n      swap2\n      swap1\n      0x00\n      mstore\n      keccak256(0x00, 0x20)\n      swap1\n    tag_169:\n      dup2\n      sload\n      dup2\n      mstore\n      swap1\n      0x01\n      add\n      swap1\n      0x20\n      add\n      dup1\n      dup4\n      gt\n      tag_169\n      jumpi\n      dup3\n      swap1\n      sub\n      0x1f\n      and\n      dup3\n      add\n      swap2\n    tag_167:\n      pop\n      pop\n      pop\n      pop\n      pop\n      dup2\n      jump\t// out\n        /* \"Project.sol\":1685:1710  string public description */\n    tag_64:\n      0x04\n      dup1\n      sload\n      tag_170\n      swap1\n      tag_135\n      jump\t// in\n    tag_170:\n      dup1\n      0x1f\n      add\n      0x20\n      dup1\n      swap2\n      div\n      mul\n      0x20\n      add\n      mload(0x40)\n      swap1\n      dup2\n      add\n      0x40\n      mstore\n      dup1\n      swap3\n      swap2\n      swap1\n      dup2\n      dup2\n      mstore\n      0x20\n      add\n      dup3\n      dup1\n      sload\n      tag_171\n      swap1\n      tag_135\n      jump\t// in\n    tag_171:\n      dup1\n      iszero\n      tag_172\n      jumpi\n      dup1\n      0x1f\n      lt\n      tag_173\n      jumpi\n      0x0100\n      dup1\n      dup4\n      sload\n      div\n      mul\n      dup4\n      mstore\n      swap2\n      0x20\n      add\n      swap2\n      jump(tag_172)\n    tag_173:\n      dup3\n      add\n      swap2\n      swap1\n      0x00\n      mstore\n      keccak256(0x00, 0x20)\n      swap1\n    tag_174:\n      dup2\n      sload\n      dup2\n      mstore\n      swap1\n      0x01\n      add\n      swap1\n      0x20\n      add\n      dup1\n      dup4\n      gt\n      tag_174\n      jumpi\n      dup3\n      swap1\n      sub\n      0x1f\n      and\n      dup3\n      add\n      swap2\n    tag_172:\n      pop\n      pop\n      pop\n      pop\n      pop\n      dup2\n      jump\t// out\n        /* \"Project.sol\":2197:2222  Request[] public requests */\n    tag_69:\n      0x0d\n      dup2\n      dup2\n      sload\n      dup2\n      lt\n      tag_175\n      jumpi\n      0x00\n      dup1\n      revert\n    tag_175:\n      swap1\n      0x00\n      mstore\n      keccak256(0x00, 0x20)\n      swap1\n      0x05\n      mul\n      add\n      0x00\n      swap2\n      pop\n      swap1\n      pop\n      dup1\n      0x00\n      add\n      dup1\n      sload\n      tag_177\n      swap1\n      tag_135\n      jump\t// in\n    tag_177:\n      dup1\n      0x1f\n      add\n      0x20\n      dup1\n      swap2\n      div\n      mul\n      0x20\n      add\n      mload(0x40)\n      swap1\n      dup2\n      add\n      0x40\n      mstore\n      dup1\n      swap3\n      swap2\n      swap1\n      dup2\n      dup2\n      mstore\n      0x20\n      add\n      dup3\n      dup1\n      sload\n      tag_178\n      swap1\n      tag_135\n      jump\t// in\n    tag_178:\n      dup1\n      iszero\n      tag_179\n      jumpi\n      dup1\n      0x1f\n      lt\n      tag_180\n      jumpi\n      0x0100\n      dup1\n      dup4\n      sload\n      div\n      mul\n      dup4\n      mstore\n      swap2\n      0x20\n      add\n      swap2\n      jump(tag_179)\n    tag_180:\n      dup3\n      add\n      swap2\n      swap1\n      0x00\n      mstore\n      keccak256(0x00, 0x20)\n      swap1\n    tag_181:\n      dup2\n      sload\n      dup2\n      mstore\n      swap1\n      0x01\n      add\n      swap1\n      0x20\n      add\n      dup1\n      dup4\n      gt\n      tag_181\n      jumpi\n      dup3\n      swap1\n      sub\n      0x1f\n      and\n      dup3\n      add\n      swap2\n    tag_179:\n      pop\n      pop\n      pop\n      pop\n      pop\n      swap1\n      dup1\n      0x01\n      add\n      sload\n      swap1\n      dup1\n      0x02\n      add\n      0x00\n      swap1\n      sload\n      swap1\n      0x0100\n      exp\n      swap1\n      div\n      0xffffffffffffffffffffffffffffffffffffffff\n      and\n      swap1\n      dup1\n      0x02\n      add\n      0x14\n      swap1\n      sload\n      swap1\n      0x0100\n      exp\n      swap1\n      div\n      0xff\n      and\n      swap1\n      dup1\n      0x03\n      add\n      sload\n      swap1\n      pop\n      dup6\n      jump\t// out\n        /* \"Project.sol\":3130:3545  function createRequest(string memory descriptionInput, uint amountInput, address recipientInput) public restricted {... */\n    tag_76:\n        /* \"Project.sol\":2283:2290  manager */\n      0x00\n      dup1\n      sload\n      swap1\n      0x0100\n      exp\n      swap1\n      div\n      0xffffffffffffffffffffffffffffffffffffffff\n      and\n        /* \"Project.sol\":2269:2290  msg.sender == manager */\n      0xffffffffffffffffffffffffffffffffffffffff\n      and\n        /* \"Project.sol\":2269:2279  msg.sender */\n      caller\n        /* \"Project.sol\":2269:2290  msg.sender == manager */\n      0xffffffffffffffffffffffffffffffffffffffff\n      and\n      eq\n        /* \"Project.sol\":2261:2291  require(msg.sender == manager) */\n      tag_183\n      jumpi\n      0x00\n      dup1\n      revert\n    tag_183:\n        /* \"Project.sol\":3255:3281  Request storage newRequest */\n      0x00\n        /* \"Project.sol\":3284:3292  requests */\n      0x0d\n        /* \"Project.sol\":3284:3299  requests.push() */\n      0x01\n      dup2\n      0x01\n      dup2\n      sload\n      add\n      dup1\n      dup3\n      sstore\n      dup1\n      swap2\n      pop\n      pop\n      sub\n      swap1\n      0x00\n      mstore\n      keccak256(0x00, 0x20)\n      swap1\n      0x05\n      mul\n      add\n        /* \"Project.sol\":3255:3299  Request storage newRequest = requests.push() */\n      swap1\n      pop\n        /* \"Project.sol\":3335:3351  descriptionInput */\n      dup4\n        /* \"Project.sol\":3310:3320  newRequest */\n      dup2\n        /* \"Project.sol\":3310:3332  newRequest.description */\n      0x00\n      add\n        /* \"Project.sol\":3310:3351  newRequest.description = descriptionInput */\n      swap1\n      dup1\n      mload\n      swap1\n      0x20\n      add\n      swap1\n      tag_186\n      swap3\n      swap2\n      swap1\n      tag_187\n      jump\t// in\n    tag_186:\n      pop\n        /* \"Project.sol\":3380:3391  amountInput */\n      dup3\n        /* \"Project.sol\":3361:3371  newRequest */\n      dup2\n        /* \"Project.sol\":3361:3378  newRequest.amount */\n      0x01\n      add\n        /* \"Project.sol\":3361:3391  newRequest.amount= amountInput */\n      dup2\n      swap1\n      sstore\n      pop\n        /* \"Project.sol\":3423:3437  recipientInput */\n      dup2\n        /* \"Project.sol\":3401:3411  newRequest */\n      dup2\n        /* \"Project.sol\":3401:3421  newRequest.recipient */\n      0x02\n      add\n      0x00\n        /* \"Project.sol\":3401:3437  newRequest.recipient= recipientInput */\n      0x0100\n      exp\n      dup2\n      sload\n      dup2\n      0xffffffffffffffffffffffffffffffffffffffff\n      mul\n      not\n      and\n      swap1\n      dup4\n      0xffffffffffffffffffffffffffffffffffffffff\n      and\n      mul\n      or\n      swap1\n      sstore\n      pop\n        /* \"Project.sol\":3468:3473  false */\n      0x00\n        /* \"Project.sol\":3447:3457  newRequest */\n      dup2\n        /* \"Project.sol\":3447:3466  newRequest.complete */\n      0x02\n      add\n      0x14\n        /* \"Project.sol\":3447:3473  newRequest.complete= false */\n      0x0100\n      exp\n      dup2\n      sload\n      dup2\n      0xff\n      mul\n      not\n      and\n      swap1\n      dup4\n      iszero\n      iszero\n      mul\n      or\n      swap1\n      sstore\n      pop\n        /* \"Project.sol\":3509:3510  0 */\n      0x00\n        /* \"Project.sol\":3483:3493  newRequest */\n      dup2\n        /* \"Project.sol\":3483:3507  newRequest.approvalCount */\n      0x03\n      add\n        /* \"Project.sol\":3483:3510  newRequest.approvalCount= 0 */\n      dup2\n      swap1\n      sstore\n      pop\n        /* \"Project.sol\":3521:3536  pendingRequests */\n      0x08\n      0x00\n        /* \"Project.sol\":3521:3538  pendingRequests++ */\n      dup2\n      sload\n      dup1\n      swap3\n      swap2\n      swap1\n      tag_188\n      swap1\n      tag_129\n      jump\t// in\n    tag_188:\n      swap2\n      swap1\n      pop\n      sstore\n      pop\n        /* \"Project.sol\":3245:3545  {... */\n      pop\n        /* \"Project.sol\":3130:3545  function createRequest(string memory descriptionInput, uint amountInput, address recipientInput) public restricted {... */\n      pop\n      pop\n      pop\n      jump\t// out\n        /* \"Project.sol\":1910:1941  uint public minimumContribution */\n    tag_79:\n      sload(0x0b)\n      dup2\n      jump\t// out\n        /* \"Project.sol\":1623:1647  uint public targetAmount */\n    tag_83:\n      sload(0x02)\n      dup2\n      jump\t// out\n        /* \"Project.sol\":1845:1876  uint public finalizedRequests=0 */\n    tag_87:\n      sload(0x09)\n      dup2\n      jump\t// out\n        /* \"Project.sol\":1952:1991  mapping(address => bool) public backers */\n    tag_93:\n      mstore(0x20, 0x0c)\n      dup1\n      0x00\n      mstore\n      keccak256(0x00, 0x40)\n      0x00\n      swap2\n      pop\n      sload\n      swap1\n      0x0100\n      exp\n      swap1\n      div\n      0xff\n      and\n      dup2\n      jump\t// out\n        /* \"Project.sol\":1746:1769  string public imageLink */\n    tag_98:\n      0x06\n      dup1\n      sload\n      tag_189\n      swap1\n      tag_135\n      jump\t// in\n    tag_189:\n      dup1\n      0x1f\n      add\n      0x20\n      dup1\n      swap2\n      div\n      mul\n      0x20\n      add\n      mload(0x40)\n      swap1\n      dup2\n      add\n      0x40\n      mstore\n      dup1\n      swap3\n      swap2\n      swap1\n      dup2\n      dup2\n      mstore\n      0x20\n      add\n      dup3\n      dup1\n      sload\n      tag_190\n      swap1\n      tag_135\n      jump\t// in\n    tag_190:\n      dup1\n      iszero\n      tag_191\n      jumpi\n      dup1\n      0x1f\n      lt\n      tag_192\n      jumpi\n      0x0100\n      dup1\n      dup4\n      sload\n      div\n      mul\n      dup4\n      mstore\n      swap2\n      0x20\n      add\n      swap2\n      jump(tag_191)\n    tag_192:\n      dup3\n      add\n      swap2\n      swap1\n      0x00\n      mstore\n      keccak256(0x00, 0x20)\n      swap1\n    tag_193:\n      dup2\n      sload\n      dup2\n      mstore\n      swap1\n      0x01\n      add\n      swap1\n      0x20\n      add\n      dup1\n      dup4\n      gt\n      tag_193\n      jumpi\n      dup3\n      swap1\n      sub\n      0x1f\n      and\n      dup3\n      add\n      swap2\n    tag_191:\n      pop\n      pop\n      pop\n      pop\n      pop\n      dup2\n      jump\t// out\n        /* \"Project.sol\":2884:3123  function contribute() public payable {... */\n    tag_101:\n        /* \"Project.sol\":2951:2970  minimumContribution */\n      sload(0x0b)\n        /* \"Project.sol\":2939:2948  msg.value */\n      callvalue\n        /* \"Project.sol\":2939:2970  msg.value > minimumContribution */\n      gt\n        /* \"Project.sol\":2931:2971  require(msg.value > minimumContribution) */\n      tag_195\n      jumpi\n      0x00\n      dup1\n      revert\n    tag_195:\n        /* \"Project.sol\":3012:3017  false */\n      0x00\n        /* \"Project.sol\":2989:3017  backers[msg.sender] == false */\n      iszero\n      iszero\n        /* \"Project.sol\":2989:2996  backers */\n      0x0c\n        /* \"Project.sol\":2989:3008  backers[msg.sender] */\n      0x00\n        /* \"Project.sol\":2997:3007  msg.sender */\n      caller\n        /* \"Project.sol\":2989:3008  backers[msg.sender] */\n      0xffffffffffffffffffffffffffffffffffffffff\n      and\n      0xffffffffffffffffffffffffffffffffffffffff\n      and\n      dup2\n      mstore\n      0x20\n      add\n      swap1\n      dup2\n      mstore\n      0x20\n      add\n      0x00\n      keccak256\n      0x00\n      swap1\n      sload\n      swap1\n      0x0100\n      exp\n      swap1\n      div\n      0xff\n      and\n        /* \"Project.sol\":2989:3017  backers[msg.sender] == false */\n      iszero\n      iszero\n      eq\n        /* \"Project.sol\":2981:3018  require(backers[msg.sender] == false) */\n      tag_196\n      jumpi\n      0x00\n      dup1\n      revert\n    tag_196:\n        /* \"Project.sol\":3052:3056  true */\n      0x01\n        /* \"Project.sol\":3030:3037  backers */\n      0x0c\n        /* \"Project.sol\":3030:3049  backers[msg.sender] */\n      0x00\n        /* \"Project.sol\":3038:3048  msg.sender */\n      caller\n        /* \"Project.sol\":3030:3049  backers[msg.sender] */\n      0xffffffffffffffffffffffffffffffffffffffff\n      and\n      0xffffffffffffffffffffffffffffffffffffffff\n      and\n      dup2\n      mstore\n      0x20\n      add\n      swap1\n      dup2\n      mstore\n      0x20\n      add\n      0x00\n      keccak256\n      0x00\n        /* \"Project.sol\":3030:3056  backers[msg.sender] = true */\n      0x0100\n      exp\n      dup2\n      sload\n      dup2\n      0xff\n      mul\n      not\n      and\n      swap1\n      dup4\n      iszero\n      iszero\n      mul\n      or\n      swap1\n      sstore\n      pop\n        /* \"Project.sol\":3066:3078  backersCount */\n      0x03\n      0x00\n        /* \"Project.sol\":3066:3080  backersCount++ */\n      dup2\n      sload\n      dup1\n      swap3\n      swap2\n      swap1\n      tag_197\n      swap1\n      tag_129\n      jump\t// in\n    tag_197:\n      swap2\n      swap1\n      pop\n      sstore\n      pop\n        /* \"Project.sol\":3107:3116  msg.value */\n      callvalue\n        /* \"Project.sol\":3090:3105  fundingReceived */\n      0x07\n      0x00\n        /* \"Project.sol\":3090:3116  fundingReceived+=msg.value */\n      dup3\n      dup3\n      sload\n      tag_198\n      swap2\n      swap1\n      tag_199\n      jump\t// in\n    tag_198:\n      swap3\n      pop\n      pop\n      dup2\n      swap1\n      sstore\n      pop\n        /* \"Project.sol\":2884:3123  function contribute() public payable {... */\n      jump\t// out\n        /* \"Project.sol\":3552:3823  function approveRequest(uint index) public {... */\n    tag_105:\n        /* \"Project.sol\":3605:3628  Request storage request */\n      0x00\n        /* \"Project.sol\":3631:3639  requests */\n      0x0d\n        /* \"Project.sol\":3640:3645  index */\n      dup3\n        /* \"Project.sol\":3631:3646  requests[index] */\n      dup2\n      sload\n      dup2\n      lt\n      tag_201\n      jumpi\n      tag_202\n      tag_119\n      jump\t// in\n    tag_202:\n    tag_201:\n      swap1\n      0x00\n      mstore\n      keccak256(0x00, 0x20)\n      swap1\n      0x05\n      mul\n      add\n        /* \"Project.sol\":3605:3646  Request storage request = requests[index] */\n      swap1\n      pop\n        /* \"Project.sol\":3666:3673  backers */\n      0x0c\n        /* \"Project.sol\":3666:3685  backers[msg.sender] */\n      0x00\n        /* \"Project.sol\":3674:3684  msg.sender */\n      caller\n        /* \"Project.sol\":3666:3685  backers[msg.sender] */\n      0xffffffffffffffffffffffffffffffffffffffff\n      and\n      0xffffffffffffffffffffffffffffffffffffffff\n      and\n      dup2\n      mstore\n      0x20\n      add\n      swap1\n      dup2\n      mstore\n      0x20\n      add\n      0x00\n      keccak256\n      0x00\n      swap1\n      sload\n      swap1\n      0x0100\n      exp\n      swap1\n      div\n      0xff\n      and\n        /* \"Project.sol\":3658:3686  require(backers[msg.sender]) */\n      tag_204\n      jumpi\n      0x00\n      dup1\n      revert\n    tag_204:\n        /* \"Project.sol\":3705:3712  request */\n      dup1\n        /* \"Project.sol\":3705:3722  request.approvals */\n      0x04\n      add\n        /* \"Project.sol\":3705:3734  request.approvals[msg.sender] */\n      0x00\n        /* \"Project.sol\":3723:3733  msg.sender */\n      caller\n        /* \"Project.sol\":3705:3734  request.approvals[msg.sender] */\n      0xffffffffffffffffffffffffffffffffffffffff\n      and\n      0xffffffffffffffffffffffffffffffffffffffff\n      and\n      dup2\n      mstore\n      0x20\n      add\n      swap1\n      dup2\n      mstore\n      0x20\n      add\n      0x00\n      keccak256\n      0x00\n      swap1\n      sload\n      swap1\n      0x0100\n      exp\n      swap1\n      div\n      0xff\n      and\n        /* \"Project.sol\":3704:3734  !request.approvals[msg.sender] */\n      iszero\n        /* \"Project.sol\":3696:3735  require(!request.approvals[msg.sender]) */\n      tag_205\n      jumpi\n      0x00\n      dup1\n      revert\n    tag_205:\n        /* \"Project.sol\":3779:3783  true */\n      0x01\n        /* \"Project.sol\":3747:3754  request */\n      dup2\n        /* \"Project.sol\":3747:3764  request.approvals */\n      0x04\n      add\n        /* \"Project.sol\":3747:3776  request.approvals[msg.sender] */\n      0x00\n        /* \"Project.sol\":3765:3775  msg.sender */\n      caller\n        /* \"Project.sol\":3747:3776  request.approvals[msg.sender] */\n      0xffffffffffffffffffffffffffffffffffffffff\n      and\n      0xffffffffffffffffffffffffffffffffffffffff\n      and\n      dup2\n      mstore\n      0x20\n      add\n      swap1\n      dup2\n      mstore\n      0x20\n      add\n      0x00\n      keccak256\n      0x00\n        /* \"Project.sol\":3747:3783  request.approvals[msg.sender] = true */\n      0x0100\n      exp\n      dup2\n      sload\n      dup2\n      0xff\n      mul\n      not\n      and\n      swap1\n      dup4\n      iszero\n      iszero\n      mul\n      or\n      swap1\n      sstore\n      pop\n        /* \"Project.sol\":3793:3800  request */\n      dup1\n        /* \"Project.sol\":3793:3814  request.approvalCount */\n      0x03\n      add\n      0x00\n        /* \"Project.sol\":3793:3816  request.approvalCount++ */\n      dup2\n      sload\n      dup1\n      swap3\n      swap2\n      swap1\n      tag_206\n      swap1\n      tag_129\n      jump\t// in\n    tag_206:\n      swap2\n      swap1\n      pop\n      sstore\n      pop\n        /* \"Project.sol\":3595:3823  {... */\n      pop\n        /* \"Project.sol\":3552:3823  function approveRequest(uint index) public {... */\n      pop\n      jump\t// out\n        /* \"Project.sol\":1775:1804  uint public fundingReceived=0 */\n    tag_108:\n      sload(0x07)\n      dup2\n      jump\t// out\n        /* \"Project.sol\":1882:1904  string public category */\n    tag_112:\n      0x0a\n      dup1\n      sload\n      tag_207\n      swap1\n      tag_135\n      jump\t// in\n    tag_207:\n      dup1\n      0x1f\n      add\n      0x20\n      dup1\n      swap2\n      div\n      mul\n      0x20\n      add\n      mload(0x40)\n      swap1\n      dup2\n      add\n      0x40\n      mstore\n      dup1\n      swap3\n      swap2\n      swap1\n      dup2\n      dup2\n      mstore\n      0x20\n      add\n      dup3\n      dup1\n      sload\n      tag_208\n      swap1\n      tag_135\n      jump\t// in\n    tag_208:\n      dup1\n      iszero\n      tag_209\n      jumpi\n      dup1\n      0x1f\n      lt\n      tag_210\n      jumpi\n      0x0100\n      dup1\n      dup4\n      sload\n      div\n      mul\n      dup4\n      mstore\n      swap2\n      0x20\n      add\n      swap2\n      jump(tag_209)\n    tag_210:\n      dup3\n      add\n      swap2\n      swap1\n      0x00\n      mstore\n      keccak256(0x00, 0x20)\n      swap1\n    tag_211:\n      dup2\n      sload\n      dup2\n      mstore\n      swap1\n      0x01\n      add\n      swap1\n      0x20\n      add\n      dup1\n      dup4\n      gt\n      tag_211\n      jumpi\n      dup3\n      swap1\n      sub\n      0x1f\n      and\n      dup3\n      add\n      swap2\n    tag_209:\n      pop\n      pop\n      pop\n      pop\n      pop\n      dup2\n      jump\t// out\n    tag_187:\n      dup3\n      dup1\n      sload\n      tag_212\n      swap1\n      tag_135\n      jump\t// in\n    tag_212:\n      swap1\n      0x00\n      mstore\n      keccak256(0x00, 0x20)\n      swap1\n      0x1f\n      add\n      0x20\n      swap1\n      div\n      dup2\n      add\n      swap3\n      dup3\n      tag_214\n      jumpi\n      0x00\n      dup6\n      sstore\n      jump(tag_213)\n    tag_214:\n      dup3\n      0x1f\n      lt\n      tag_215\n      jumpi\n      dup1\n      mload\n      not(0xff)\n      and\n      dup4\n      dup1\n      add\n      or\n      dup6\n      sstore\n      jump(tag_213)\n    tag_215:\n      dup3\n      dup1\n      add\n      0x01\n      add\n      dup6\n      sstore\n      dup3\n      iszero\n      tag_213\n      jumpi\n      swap2\n      dup3\n      add\n    tag_216:\n      dup3\n      dup2\n      gt\n      iszero\n      tag_217\n      jumpi\n      dup3\n      mload\n      dup3\n      sstore\n      swap2\n      0x20\n      add\n      swap2\n      swap1\n      0x01\n      add\n      swap1\n      jump(tag_216)\n    tag_217:\n    tag_213:\n      pop\n      swap1\n      pop\n      tag_218\n      swap2\n      swap1\n      tag_219\n      jump\t// in\n    tag_218:\n      pop\n      swap1\n      jump\t// out\n    tag_219:\n    tag_220:\n      dup1\n      dup3\n      gt\n      iszero\n      tag_221\n      jumpi\n      0x00\n      dup2\n      0x00\n      swap1\n      sstore\n      pop\n      0x01\n      add\n      jump(tag_220)\n    tag_221:\n      pop\n      swap1\n      jump\t// out\n        /* \"#utility.yul\":7:82   */\n    tag_222:\n        /* \"#utility.yul\":40:46   */\n      0x00\n        /* \"#utility.yul\":73:75   */\n      0x40\n        /* \"#utility.yul\":67:76   */\n      mload\n        /* \"#utility.yul\":57:76   */\n      swap1\n      pop\n        /* \"#utility.yul\":7:82   */\n      swap1\n      jump\t// out\n        /* \"#utility.yul\":88:205   */\n    tag_223:\n        /* \"#utility.yul\":197:198   */\n      0x00\n        /* \"#utility.yul\":194:195   */\n      dup1\n        /* \"#utility.yul\":187:199   */\n      revert\n        /* \"#utility.yul\":211:328   */\n    tag_224:\n        /* \"#utility.yul\":320:321   */\n      0x00\n        /* \"#utility.yul\":317:318   */\n      dup1\n        /* \"#utility.yul\":310:322   */\n      revert\n        /* \"#utility.yul\":334:411   */\n    tag_225:\n        /* \"#utility.yul\":371:378   */\n      0x00\n        /* \"#utility.yul\":400:405   */\n      dup2\n        /* \"#utility.yul\":389:405   */\n      swap1\n      pop\n        /* \"#utility.yul\":334:411   */\n      swap2\n      swap1\n      pop\n      jump\t// out\n        /* \"#utility.yul\":417:539   */\n    tag_226:\n        /* \"#utility.yul\":490:514   */\n      tag_258\n        /* \"#utility.yul\":508:513   */\n      dup2\n        /* \"#utility.yul\":490:514   */\n      tag_225\n      jump\t// in\n    tag_258:\n        /* \"#utility.yul\":483:488   */\n      dup2\n        /* \"#utility.yul\":480:515   */\n      eq\n        /* \"#utility.yul\":470:533   */\n      tag_259\n      jumpi\n        /* \"#utility.yul\":529:530   */\n      0x00\n        /* \"#utility.yul\":526:527   */\n      dup1\n        /* \"#utility.yul\":519:531   */\n      revert\n        /* \"#utility.yul\":470:533   */\n    tag_259:\n        /* \"#utility.yul\":417:539   */\n      pop\n      jump\t// out\n        /* \"#utility.yul\":545:684   */\n    tag_227:\n        /* \"#utility.yul\":591:596   */\n      0x00\n        /* \"#utility.yul\":629:635   */\n      dup2\n        /* \"#utility.yul\":616:636   */\n      calldataload\n        /* \"#utility.yul\":607:636   */\n      swap1\n      pop\n        /* \"#utility.yul\":645:678   */\n      tag_261\n        /* \"#utility.yul\":672:677   */\n      dup2\n        /* \"#utility.yul\":645:678   */\n      tag_226\n      jump\t// in\n    tag_261:\n        /* \"#utility.yul\":545:684   */\n      swap3\n      swap2\n      pop\n      pop\n      jump\t// out\n        /* \"#utility.yul\":690:1019   */\n    tag_28:\n        /* \"#utility.yul\":749:755   */\n      0x00\n        /* \"#utility.yul\":798:800   */\n      0x20\n        /* \"#utility.yul\":786:795   */\n      dup3\n        /* \"#utility.yul\":777:784   */\n      dup5\n        /* \"#utility.yul\":773:796   */\n      sub\n        /* \"#utility.yul\":769:801   */\n      slt\n        /* \"#utility.yul\":766:885   */\n      iszero\n      tag_263\n      jumpi\n        /* \"#utility.yul\":804:883   */\n      tag_264\n      tag_223\n      jump\t// in\n    tag_264:\n        /* \"#utility.yul\":766:885   */\n    tag_263:\n        /* \"#utility.yul\":924:925   */\n      0x00\n        /* \"#utility.yul\":949:1002   */\n      tag_265\n        /* \"#utility.yul\":994:1001   */\n      dup5\n        /* \"#utility.yul\":985:991   */\n      dup3\n        /* \"#utility.yul\":974:983   */\n      dup6\n        /* \"#utility.yul\":970:992   */\n      add\n        /* \"#utility.yul\":949:1002   */\n      tag_227\n      jump\t// in\n    tag_265:\n        /* \"#utility.yul\":939:1002   */\n      swap2\n      pop\n        /* \"#utility.yul\":895:1012   */\n      pop\n        /* \"#utility.yul\":690:1019   */\n      swap3\n      swap2\n      pop\n      pop\n      jump\t// out\n        /* \"#utility.yul\":1025:1143   */\n    tag_228:\n        /* \"#utility.yul\":1112:1136   */\n      tag_267\n        /* \"#utility.yul\":1130:1135   */\n      dup2\n        /* \"#utility.yul\":1112:1136   */\n      tag_225\n      jump\t// in\n    tag_267:\n        /* \"#utility.yul\":1107:1110   */\n      dup3\n        /* \"#utility.yul\":1100:1137   */\n      mstore\n        /* \"#utility.yul\":1025:1143   */\n      pop\n      pop\n      jump\t// out\n        /* \"#utility.yul\":1149:1371   */\n    tag_34:\n        /* \"#utility.yul\":1242:1246   */\n      0x00\n        /* \"#utility.yul\":1280:1282   */\n      0x20\n        /* \"#utility.yul\":1269:1278   */\n      dup3\n        /* \"#utility.yul\":1265:1283   */\n      add\n        /* \"#utility.yul\":1257:1283   */\n      swap1\n      pop\n        /* \"#utility.yul\":1293:1364   */\n      tag_269\n        /* \"#utility.yul\":1361:1362   */\n      0x00\n        /* \"#utility.yul\":1350:1359   */\n      dup4\n        /* \"#utility.yul\":1346:1363   */\n      add\n        /* \"#utility.yul\":1337:1343   */\n      dup5\n        /* \"#utility.yul\":1293:1364   */\n      tag_228\n      jump\t// in\n    tag_269:\n        /* \"#utility.yul\":1149:1371   */\n      swap3\n      swap2\n      pop\n      pop\n      jump\t// out\n        /* \"#utility.yul\":1377:1503   */\n    tag_229:\n        /* \"#utility.yul\":1414:1421   */\n      0x00\n        /* \"#utility.yul\":1454:1496   */\n      0xffffffffffffffffffffffffffffffffffffffff\n        /* \"#utility.yul\":1447:1452   */\n      dup3\n        /* \"#utility.yul\":1443:1497   */\n      and\n        /* \"#utility.yul\":1432:1497   */\n      swap1\n      pop\n        /* \"#utility.yul\":1377:1503   */\n      swap2\n      swap1\n      pop\n      jump\t// out\n        /* \"#utility.yul\":1509:1605   */\n    tag_230:\n        /* \"#utility.yul\":1546:1553   */\n      0x00\n        /* \"#utility.yul\":1575:1599   */\n      tag_272\n        /* \"#utility.yul\":1593:1598   */\n      dup3\n        /* \"#utility.yul\":1575:1599   */\n      tag_229\n      jump\t// in\n    tag_272:\n        /* \"#utility.yul\":1564:1599   */\n      swap1\n      pop\n        /* \"#utility.yul\":1509:1605   */\n      swap2\n      swap1\n      pop\n      jump\t// out\n        /* \"#utility.yul\":1611:1729   */\n    tag_231:\n        /* \"#utility.yul\":1698:1722   */\n      tag_274\n        /* \"#utility.yul\":1716:1721   */\n      dup2\n        /* \"#utility.yul\":1698:1722   */\n      tag_230\n      jump\t// in\n    tag_274:\n        /* \"#utility.yul\":1693:1696   */\n      dup3\n        /* \"#utility.yul\":1686:1723   */\n      mstore\n        /* \"#utility.yul\":1611:1729   */\n      pop\n      pop\n      jump\t// out\n        /* \"#utility.yul\":1735:1834   */\n    tag_232:\n        /* \"#utility.yul\":1787:1793   */\n      0x00\n        /* \"#utility.yul\":1821:1826   */\n      dup2\n        /* \"#utility.yul\":1815:1827   */\n      mload\n        /* \"#utility.yul\":1805:1827   */\n      swap1\n      pop\n        /* \"#utility.yul\":1735:1834   */\n      swap2\n      swap1\n      pop\n      jump\t// out\n        /* \"#utility.yul\":1840:2009   */\n    tag_233:\n        /* \"#utility.yul\":1924:1935   */\n      0x00\n        /* \"#utility.yul\":1958:1964   */\n      dup3\n        /* \"#utility.yul\":1953:1956   */\n      dup3\n        /* \"#utility.yul\":1946:1965   */\n      mstore\n        /* \"#utility.yul\":1998:2002   */\n      0x20\n        /* \"#utility.yul\":1993:1996   */\n      dup3\n        /* \"#utility.yul\":1989:2003   */\n      add\n        /* \"#utility.yul\":1974:2003   */\n      swap1\n      pop\n        /* \"#utility.yul\":1840:2009   */\n      swap3\n      swap2\n      pop\n      pop\n      jump\t// out\n        /* \"#utility.yul\":2015:2322   */\n    tag_234:\n        /* \"#utility.yul\":2083:2084   */\n      0x00\n        /* \"#utility.yul\":2093:2206   */\n    tag_278:\n        /* \"#utility.yul\":2107:2113   */\n      dup4\n        /* \"#utility.yul\":2104:2105   */\n      dup2\n        /* \"#utility.yul\":2101:2114   */\n      lt\n        /* \"#utility.yul\":2093:2206   */\n      iszero\n      tag_280\n      jumpi\n        /* \"#utility.yul\":2192:2193   */\n      dup1\n        /* \"#utility.yul\":2187:2190   */\n      dup3\n        /* \"#utility.yul\":2183:2194   */\n      add\n        /* \"#utility.yul\":2177:2195   */\n      mload\n        /* \"#utility.yul\":2173:2174   */\n      dup2\n        /* \"#utility.yul\":2168:2171   */\n      dup5\n        /* \"#utility.yul\":2164:2175   */\n      add\n        /* \"#utility.yul\":2157:2196   */\n      mstore\n        /* \"#utility.yul\":2129:2131   */\n      0x20\n        /* \"#utility.yul\":2126:2127   */\n      dup2\n        /* \"#utility.yul\":2122:2132   */\n      add\n        /* \"#utility.yul\":2117:2132   */\n      swap1\n      pop\n        /* \"#utility.yul\":2093:2206   */\n      jump(tag_278)\n    tag_280:\n        /* \"#utility.yul\":2224:2230   */\n      dup4\n        /* \"#utility.yul\":2221:2222   */\n      dup2\n        /* \"#utility.yul\":2218:2231   */\n      gt\n        /* \"#utility.yul\":2215:2316   */\n      iszero\n      tag_281\n      jumpi\n        /* \"#utility.yul\":2304:2305   */\n      0x00\n        /* \"#utility.yul\":2295:2301   */\n      dup5\n        /* \"#utility.yul\":2290:2293   */\n      dup5\n        /* \"#utility.yul\":2286:2302   */\n      add\n        /* \"#utility.yul\":2279:2306   */\n      mstore\n        /* \"#utility.yul\":2215:2316   */\n    tag_281:\n        /* \"#utility.yul\":2064:2322   */\n      pop\n        /* \"#utility.yul\":2015:2322   */\n      pop\n      pop\n      pop\n      jump\t// out\n        /* \"#utility.yul\":2328:2430   */\n    tag_235:\n        /* \"#utility.yul\":2369:2375   */\n      0x00\n        /* \"#utility.yul\":2420:2422   */\n      0x1f\n        /* \"#utility.yul\":2416:2423   */\n      not\n        /* \"#utility.yul\":2411:2413   */\n      0x1f\n        /* \"#utility.yul\":2404:2409   */\n      dup4\n        /* \"#utility.yul\":2400:2414   */\n      add\n        /* \"#utility.yul\":2396:2424   */\n      and\n        /* \"#utility.yul\":2386:2424   */\n      swap1\n      pop\n        /* \"#utility.yul\":2328:2430   */\n      swap2\n      swap1\n      pop\n      jump\t// out\n        /* \"#utility.yul\":2436:2800   */\n    tag_236:\n        /* \"#utility.yul\":2524:2527   */\n      0x00\n        /* \"#utility.yul\":2552:2591   */\n      tag_284\n        /* \"#utility.yul\":2585:2590   */\n      dup3\n        /* \"#utility.yul\":2552:2591   */\n      tag_232\n      jump\t// in\n    tag_284:\n        /* \"#utility.yul\":2607:2678   */\n      tag_285\n        /* \"#utility.yul\":2671:2677   */\n      dup2\n        /* \"#utility.yul\":2666:2669   */\n      dup6\n        /* \"#utility.yul\":2607:2678   */\n      tag_233\n      jump\t// in\n    tag_285:\n        /* \"#utility.yul\":2600:2678   */\n      swap4\n      pop\n        /* \"#utility.yul\":2687:2739   */\n      tag_286\n        /* \"#utility.yul\":2732:2738   */\n      dup2\n        /* \"#utility.yul\":2727:2730   */\n      dup6\n        /* \"#utility.yul\":2720:2724   */\n      0x20\n        /* \"#utility.yul\":2713:2718   */\n      dup7\n        /* \"#utility.yul\":2709:2725   */\n      add\n        /* \"#utility.yul\":2687:2739   */\n      tag_234\n      jump\t// in\n    tag_286:\n        /* \"#utility.yul\":2764:2793   */\n      tag_287\n        /* \"#utility.yul\":2786:2792   */\n      dup2\n        /* \"#utility.yul\":2764:2793   */\n      tag_235\n      jump\t// in\n    tag_287:\n        /* \"#utility.yul\":2759:2762   */\n      dup5\n        /* \"#utility.yul\":2755:2794   */\n      add\n        /* \"#utility.yul\":2748:2794   */\n      swap2\n      pop\n        /* \"#utility.yul\":2528:2800   */\n      pop\n        /* \"#utility.yul\":2436:2800   */\n      swap3\n      swap2\n      pop\n      pop\n      jump\t// out\n        /* \"#utility.yul\":2806:4706   */\n    tag_43:\n        /* \"#utility.yul\":3309:3313   */\n      0x00\n        /* \"#utility.yul\":3347:3350   */\n      0x0180\n        /* \"#utility.yul\":3336:3345   */\n      dup3\n        /* \"#utility.yul\":3332:3351   */\n      add\n        /* \"#utility.yul\":3324:3351   */\n      swap1\n      pop\n        /* \"#utility.yul\":3361:3432   */\n      tag_289\n        /* \"#utility.yul\":3429:3430   */\n      0x00\n        /* \"#utility.yul\":3418:3427   */\n      dup4\n        /* \"#utility.yul\":3414:3431   */\n      add\n        /* \"#utility.yul\":3405:3411   */\n      dup16\n        /* \"#utility.yul\":3361:3432   */\n      tag_231\n      jump\t// in\n    tag_289:\n        /* \"#utility.yul\":3442:3514   */\n      tag_290\n        /* \"#utility.yul\":3510:3512   */\n      0x20\n        /* \"#utility.yul\":3499:3508   */\n      dup4\n        /* \"#utility.yul\":3495:3513   */\n      add\n        /* \"#utility.yul\":3486:3492   */\n      dup15\n        /* \"#utility.yul\":3442:3514   */\n      tag_228\n      jump\t// in\n    tag_290:\n        /* \"#utility.yul\":3561:3570   */\n      dup2\n        /* \"#utility.yul\":3555:3559   */\n      dup2\n        /* \"#utility.yul\":3551:3571   */\n      sub\n        /* \"#utility.yul\":3546:3548   */\n      0x40\n        /* \"#utility.yul\":3535:3544   */\n      dup4\n        /* \"#utility.yul\":3531:3549   */\n      add\n        /* \"#utility.yul\":3524:3572   */\n      mstore\n        /* \"#utility.yul\":3589:3667   */\n      tag_291\n        /* \"#utility.yul\":3662:3666   */\n      dup2\n        /* \"#utility.yul\":3653:3659   */\n      dup14\n        /* \"#utility.yul\":3589:3667   */\n      tag_236\n      jump\t// in\n    tag_291:\n        /* \"#utility.yul\":3581:3667   */\n      swap1\n      pop\n        /* \"#utility.yul\":3714:3723   */\n      dup2\n        /* \"#utility.yul\":3708:3712   */\n      dup2\n        /* \"#utility.yul\":3704:3724   */\n      sub\n        /* \"#utility.yul\":3699:3701   */\n      0x60\n        /* \"#utility.yul\":3688:3697   */\n      dup4\n        /* \"#utility.yul\":3684:3702   */\n      add\n        /* \"#utility.yul\":3677:3725   */\n      mstore\n        /* \"#utility.yul\":3742:3820   */\n      tag_292\n        /* \"#utility.yul\":3815:3819   */\n      dup2\n        /* \"#utility.yul\":3806:3812   */\n      dup13\n        /* \"#utility.yul\":3742:3820   */\n      tag_236\n      jump\t// in\n    tag_292:\n        /* \"#utility.yul\":3734:3820   */\n      swap1\n      pop\n        /* \"#utility.yul\":3868:3877   */\n      dup2\n        /* \"#utility.yul\":3862:3866   */\n      dup2\n        /* \"#utility.yul\":3858:3878   */\n      sub\n        /* \"#utility.yul\":3852:3855   */\n      0x80\n        /* \"#utility.yul\":3841:3850   */\n      dup4\n        /* \"#utility.yul\":3837:3856   */\n      add\n        /* \"#utility.yul\":3830:3879   */\n      mstore\n        /* \"#utility.yul\":3896:3974   */\n      tag_293\n        /* \"#utility.yul\":3969:3973   */\n      dup2\n        /* \"#utility.yul\":3960:3966   */\n      dup12\n        /* \"#utility.yul\":3896:3974   */\n      tag_236\n      jump\t// in\n    tag_293:\n        /* \"#utility.yul\":3888:3974   */\n      swap1\n      pop\n        /* \"#utility.yul\":3984:4057   */\n      tag_294\n        /* \"#utility.yul\":4052:4055   */\n      0xa0\n        /* \"#utility.yul\":4041:4050   */\n      dup4\n        /* \"#utility.yul\":4037:4056   */\n      add\n        /* \"#utility.yul\":4028:4034   */\n      dup11\n        /* \"#utility.yul\":3984:4057   */\n      tag_228\n      jump\t// in\n    tag_294:\n        /* \"#utility.yul\":4067:4140   */\n      tag_295\n        /* \"#utility.yul\":4135:4138   */\n      0xc0\n        /* \"#utility.yul\":4124:4133   */\n      dup4\n        /* \"#utility.yul\":4120:4139   */\n      add\n        /* \"#utility.yul\":4111:4117   */\n      dup10\n        /* \"#utility.yul\":4067:4140   */\n      tag_228\n      jump\t// in\n    tag_295:\n        /* \"#utility.yul\":4150:4223   */\n      tag_296\n        /* \"#utility.yul\":4218:4221   */\n      0xe0\n        /* \"#utility.yul\":4207:4216   */\n      dup4\n        /* \"#utility.yul\":4203:4222   */\n      add\n        /* \"#utility.yul\":4194:4200   */\n      dup9\n        /* \"#utility.yul\":4150:4223   */\n      tag_228\n      jump\t// in\n    tag_296:\n        /* \"#utility.yul\":4271:4280   */\n      dup2\n        /* \"#utility.yul\":4265:4269   */\n      dup2\n        /* \"#utility.yul\":4261:4281   */\n      sub\n        /* \"#utility.yul\":4255:4258   */\n      0x0100\n        /* \"#utility.yul\":4244:4253   */\n      dup4\n        /* \"#utility.yul\":4240:4259   */\n      add\n        /* \"#utility.yul\":4233:4282   */\n      mstore\n        /* \"#utility.yul\":4299:4377   */\n      tag_297\n        /* \"#utility.yul\":4372:4376   */\n      dup2\n        /* \"#utility.yul\":4363:4369   */\n      dup8\n        /* \"#utility.yul\":4299:4377   */\n      tag_236\n      jump\t// in\n    tag_297:\n        /* \"#utility.yul\":4291:4377   */\n      swap1\n      pop\n        /* \"#utility.yul\":4425:4434   */\n      dup2\n        /* \"#utility.yul\":4419:4423   */\n      dup2\n        /* \"#utility.yul\":4415:4435   */\n      sub\n        /* \"#utility.yul\":4409:4412   */\n      0x0120\n        /* \"#utility.yul\":4398:4407   */\n      dup4\n        /* \"#utility.yul\":4394:4413   */\n      add\n        /* \"#utility.yul\":4387:4436   */\n      mstore\n        /* \"#utility.yul\":4453:4531   */\n      tag_298\n        /* \"#utility.yul\":4526:4530   */\n      dup2\n        /* \"#utility.yul\":4517:4523   */\n      dup7\n        /* \"#utility.yul\":4453:4531   */\n      tag_236\n      jump\t// in\n    tag_298:\n        /* \"#utility.yul\":4445:4531   */\n      swap1\n      pop\n        /* \"#utility.yul\":4541:4615   */\n      tag_299\n        /* \"#utility.yul\":4610:4613   */\n      0x0140\n        /* \"#utility.yul\":4599:4608   */\n      dup4\n        /* \"#utility.yul\":4595:4614   */\n      add\n        /* \"#utility.yul\":4585:4592   */\n      dup6\n        /* \"#utility.yul\":4541:4615   */\n      tag_228\n      jump\t// in\n    tag_299:\n        /* \"#utility.yul\":4625:4699   */\n      tag_300\n        /* \"#utility.yul\":4694:4697   */\n      0x0160\n        /* \"#utility.yul\":4683:4692   */\n      dup4\n        /* \"#utility.yul\":4679:4698   */\n      add\n        /* \"#utility.yul\":4669:4676   */\n      dup5\n        /* \"#utility.yul\":4625:4699   */\n      tag_228\n      jump\t// in\n    tag_300:\n        /* \"#utility.yul\":2806:4706   */\n      swap14\n      swap13\n      pop\n      pop\n      pop\n      pop\n      pop\n      pop\n      pop\n      pop\n      pop\n      pop\n      pop\n      pop\n      pop\n      jump\t// out\n        /* \"#utility.yul\":4712:4934   */\n    tag_48:\n        /* \"#utility.yul\":4805:4809   */\n      0x00\n        /* \"#utility.yul\":4843:4845   */\n      0x20\n        /* \"#utility.yul\":4832:4841   */\n      dup3\n        /* \"#utility.yul\":4828:4846   */\n      add\n        /* \"#utility.yul\":4820:4846   */\n      swap1\n      pop\n        /* \"#utility.yul\":4856:4927   */\n      tag_302\n        /* \"#utility.yul\":4924:4925   */\n      0x00\n        /* \"#utility.yul\":4913:4922   */\n      dup4\n        /* \"#utility.yul\":4909:4926   */\n      add\n        /* \"#utility.yul\":4900:4906   */\n      dup5\n        /* \"#utility.yul\":4856:4927   */\n      tag_231\n      jump\t// in\n    tag_302:\n        /* \"#utility.yul\":4712:4934   */\n      swap3\n      swap2\n      pop\n      pop\n      jump\t// out\n        /* \"#utility.yul\":4940:5253   */\n    tag_53:\n        /* \"#utility.yul\":5053:5057   */\n      0x00\n        /* \"#utility.yul\":5091:5093   */\n      0x20\n        /* \"#utility.yul\":5080:5089   */\n      dup3\n        /* \"#utility.yul\":5076:5094   */\n      add\n        /* \"#utility.yul\":5068:5094   */\n      swap1\n      pop\n        /* \"#utility.yul\":5140:5149   */\n      dup2\n        /* \"#utility.yul\":5134:5138   */\n      dup2\n        /* \"#utility.yul\":5130:5150   */\n      sub\n        /* \"#utility.yul\":5126:5127   */\n      0x00\n        /* \"#utility.yul\":5115:5124   */\n      dup4\n        /* \"#utility.yul\":5111:5128   */\n      add\n        /* \"#utility.yul\":5104:5151   */\n      mstore\n        /* \"#utility.yul\":5168:5246   */\n      tag_304\n        /* \"#utility.yul\":5241:5245   */\n      dup2\n        /* \"#utility.yul\":5232:5238   */\n      dup5\n        /* \"#utility.yul\":5168:5246   */\n      tag_236\n      jump\t// in\n    tag_304:\n        /* \"#utility.yul\":5160:5246   */\n      swap1\n      pop\n        /* \"#utility.yul\":4940:5253   */\n      swap3\n      swap2\n      pop\n      pop\n      jump\t// out\n        /* \"#utility.yul\":5259:5349   */\n    tag_237:\n        /* \"#utility.yul\":5293:5300   */\n      0x00\n        /* \"#utility.yul\":5336:5341   */\n      dup2\n        /* \"#utility.yul\":5329:5342   */\n      iszero\n        /* \"#utility.yul\":5322:5343   */\n      iszero\n        /* \"#utility.yul\":5311:5343   */\n      swap1\n      pop\n        /* \"#utility.yul\":5259:5349   */\n      swap2\n      swap1\n      pop\n      jump\t// out\n        /* \"#utility.yul\":5355:5464   */\n    tag_238:\n        /* \"#utility.yul\":5436:5457   */\n      tag_307\n        /* \"#utility.yul\":5451:5456   */\n      dup2\n        /* \"#utility.yul\":5436:5457   */\n      tag_237\n      jump\t// in\n    tag_307:\n        /* \"#utility.yul\":5431:5434   */\n      dup3\n        /* \"#utility.yul\":5424:5458   */\n      mstore\n        /* \"#utility.yul\":5355:5464   */\n      pop\n      pop\n      jump\t// out\n        /* \"#utility.yul\":5470:6213   */\n    tag_71:\n        /* \"#utility.yul\":5689:5693   */\n      0x00\n        /* \"#utility.yul\":5727:5730   */\n      0xa0\n        /* \"#utility.yul\":5716:5725   */\n      dup3\n        /* \"#utility.yul\":5712:5731   */\n      add\n        /* \"#utility.yul\":5704:5731   */\n      swap1\n      pop\n        /* \"#utility.yul\":5777:5786   */\n      dup2\n        /* \"#utility.yul\":5771:5775   */\n      dup2\n        /* \"#utility.yul\":5767:5787   */\n      sub\n        /* \"#utility.yul\":5763:5764   */\n      0x00\n        /* \"#utility.yul\":5752:5761   */\n      dup4\n        /* \"#utility.yul\":5748:5765   */\n      add\n        /* \"#utility.yul\":5741:5788   */\n      mstore\n        /* \"#utility.yul\":5805:5883   */\n      tag_309\n        /* \"#utility.yul\":5878:5882   */\n      dup2\n        /* \"#utility.yul\":5869:5875   */\n      dup9\n        /* \"#utility.yul\":5805:5883   */\n      tag_236\n      jump\t// in\n    tag_309:\n        /* \"#utility.yul\":5797:5883   */\n      swap1\n      pop\n        /* \"#utility.yul\":5893:5965   */\n      tag_310\n        /* \"#utility.yul\":5961:5963   */\n      0x20\n        /* \"#utility.yul\":5950:5959   */\n      dup4\n        /* \"#utility.yul\":5946:5964   */\n      add\n        /* \"#utility.yul\":5937:5943   */\n      dup8\n        /* \"#utility.yul\":5893:5965   */\n      tag_228\n      jump\t// in\n    tag_310:\n        /* \"#utility.yul\":5975:6047   */\n      tag_311\n        /* \"#utility.yul\":6043:6045   */\n      0x40\n        /* \"#utility.yul\":6032:6041   */\n      dup4\n        /* \"#utility.yul\":6028:6046   */\n      add\n        /* \"#utility.yul\":6019:6025   */\n      dup7\n        /* \"#utility.yul\":5975:6047   */\n      tag_231\n      jump\t// in\n    tag_311:\n        /* \"#utility.yul\":6057:6123   */\n      tag_312\n        /* \"#utility.yul\":6119:6121   */\n      0x60\n        /* \"#utility.yul\":6108:6117   */\n      dup4\n        /* \"#utility.yul\":6104:6122   */\n      add\n        /* \"#utility.yul\":6095:6101   */\n      dup6\n        /* \"#utility.yul\":6057:6123   */\n      tag_238\n      jump\t// in\n    tag_312:\n        /* \"#utility.yul\":6133:6206   */\n      tag_313\n        /* \"#utility.yul\":6201:6204   */\n      0x80\n        /* \"#utility.yul\":6190:6199   */\n      dup4\n        /* \"#utility.yul\":6186:6205   */\n      add\n        /* \"#utility.yul\":6177:6183   */\n      dup5\n        /* \"#utility.yul\":6133:6206   */\n      tag_228\n      jump\t// in\n    tag_313:\n        /* \"#utility.yul\":5470:6213   */\n      swap7\n      swap6\n      pop\n      pop\n      pop\n      pop\n      pop\n      pop\n      jump\t// out\n        /* \"#utility.yul\":6219:6336   */\n    tag_239:\n        /* \"#utility.yul\":6328:6329   */\n      0x00\n        /* \"#utility.yul\":6325:6326   */\n      dup1\n        /* \"#utility.yul\":6318:6330   */\n      revert\n        /* \"#utility.yul\":6342:6459   */\n    tag_240:\n        /* \"#utility.yul\":6451:6452   */\n      0x00\n        /* \"#utility.yul\":6448:6449   */\n      dup1\n        /* \"#utility.yul\":6441:6453   */\n      revert\n        /* \"#utility.yul\":6465:6645   */\n    tag_241:\n        /* \"#utility.yul\":6513:6590   */\n      0x4e487b7100000000000000000000000000000000000000000000000000000000\n        /* \"#utility.yul\":6510:6511   */\n      0x00\n        /* \"#utility.yul\":6503:6591   */\n      mstore\n        /* \"#utility.yul\":6610:6614   */\n      0x41\n        /* \"#utility.yul\":6607:6608   */\n      0x04\n        /* \"#utility.yul\":6600:6615   */\n      mstore\n        /* \"#utility.yul\":6634:6638   */\n      0x24\n        /* \"#utility.yul\":6631:6632   */\n      0x00\n        /* \"#utility.yul\":6624:6639   */\n      revert\n        /* \"#utility.yul\":6651:6932   */\n    tag_242:\n        /* \"#utility.yul\":6734:6761   */\n      tag_318\n        /* \"#utility.yul\":6756:6760   */\n      dup3\n        /* \"#utility.yul\":6734:6761   */\n      tag_235\n      jump\t// in\n    tag_318:\n        /* \"#utility.yul\":6726:6732   */\n      dup2\n        /* \"#utility.yul\":6722:6762   */\n      add\n        /* \"#utility.yul\":6864:6870   */\n      dup2\n        /* \"#utility.yul\":6852:6862   */\n      dup2\n        /* \"#utility.yul\":6849:6871   */\n      lt\n        /* \"#utility.yul\":6828:6846   */\n      0xffffffffffffffff\n        /* \"#utility.yul\":6816:6826   */\n      dup3\n        /* \"#utility.yul\":6813:6847   */\n      gt\n        /* \"#utility.yul\":6810:6872   */\n      or\n        /* \"#utility.yul\":6807:6895   */\n      iszero\n      tag_319\n      jumpi\n        /* \"#utility.yul\":6875:6893   */\n      tag_320\n      tag_241\n      jump\t// in\n    tag_320:\n        /* \"#utility.yul\":6807:6895   */\n    tag_319:\n        /* \"#utility.yul\":6915:6925   */\n      dup1\n        /* \"#utility.yul\":6911:6913   */\n      0x40\n        /* \"#utility.yul\":6904:6926   */\n      mstore\n        /* \"#utility.yul\":6694:6932   */\n      pop\n        /* \"#utility.yul\":6651:6932   */\n      pop\n      pop\n      jump\t// out\n        /* \"#utility.yul\":6938:7067   */\n    tag_243:\n        /* \"#utility.yul\":6972:6978   */\n      0x00\n        /* \"#utility.yul\":6999:7019   */\n      tag_322\n      tag_222\n      jump\t// in\n    tag_322:\n        /* \"#utility.yul\":6989:7019   */\n      swap1\n      pop\n        /* \"#utility.yul\":7028:7061   */\n      tag_323\n        /* \"#utility.yul\":7056:7060   */\n      dup3\n        /* \"#utility.yul\":7048:7054   */\n      dup3\n        /* \"#utility.yul\":7028:7061   */\n      tag_242\n      jump\t// in\n    tag_323:\n        /* \"#utility.yul\":6938:7067   */\n      swap2\n      swap1\n      pop\n      jump\t// out\n        /* \"#utility.yul\":7073:7381   */\n    tag_244:\n        /* \"#utility.yul\":7135:7139   */\n      0x00\n        /* \"#utility.yul\":7225:7243   */\n      0xffffffffffffffff\n        /* \"#utility.yul\":7217:7223   */\n      dup3\n        /* \"#utility.yul\":7214:7244   */\n      gt\n        /* \"#utility.yul\":7211:7267   */\n      iszero\n      tag_325\n      jumpi\n        /* \"#utility.yul\":7247:7265   */\n      tag_326\n      tag_241\n      jump\t// in\n    tag_326:\n        /* \"#utility.yul\":7211:7267   */\n    tag_325:\n        /* \"#utility.yul\":7285:7314   */\n      tag_327\n        /* \"#utility.yul\":7307:7313   */\n      dup3\n        /* \"#utility.yul\":7285:7314   */\n      tag_235\n      jump\t// in\n    tag_327:\n        /* \"#utility.yul\":7277:7314   */\n      swap1\n      pop\n        /* \"#utility.yul\":7369:7373   */\n      0x20\n        /* \"#utility.yul\":7363:7367   */\n      dup2\n        /* \"#utility.yul\":7359:7374   */\n      add\n        /* \"#utility.yul\":7351:7374   */\n      swap1\n      pop\n        /* \"#utility.yul\":7073:7381   */\n      swap2\n      swap1\n      pop\n      jump\t// out\n        /* \"#utility.yul\":7387:7541   */\n    tag_245:\n        /* \"#utility.yul\":7471:7477   */\n      dup3\n        /* \"#utility.yul\":7466:7469   */\n      dup2\n        /* \"#utility.yul\":7461:7464   */\n      dup4\n        /* \"#utility.yul\":7448:7478   */\n      calldatacopy\n        /* \"#utility.yul\":7533:7534   */\n      0x00\n        /* \"#utility.yul\":7524:7530   */\n      dup4\n        /* \"#utility.yul\":7519:7522   */\n      dup4\n        /* \"#utility.yul\":7515:7531   */\n      add\n        /* \"#utility.yul\":7508:7535   */\n      mstore\n        /* \"#utility.yul\":7387:7541   */\n      pop\n      pop\n      pop\n      jump\t// out\n        /* \"#utility.yul\":7547:7959   */\n    tag_246:\n        /* \"#utility.yul\":7625:7630   */\n      0x00\n        /* \"#utility.yul\":7650:7716   */\n      tag_330\n        /* \"#utility.yul\":7666:7715   */\n      tag_331\n        /* \"#utility.yul\":7708:7714   */\n      dup5\n        /* \"#utility.yul\":7666:7715   */\n      tag_244\n      jump\t// in\n    tag_331:\n        /* \"#utility.yul\":7650:7716   */\n      tag_243\n      jump\t// in\n    tag_330:\n        /* \"#utility.yul\":7641:7716   */\n      swap1\n      pop\n        /* \"#utility.yul\":7739:7745   */\n      dup3\n        /* \"#utility.yul\":7732:7737   */\n      dup2\n        /* \"#utility.yul\":7725:7746   */\n      mstore\n        /* \"#utility.yul\":7777:7781   */\n      0x20\n        /* \"#utility.yul\":7770:7775   */\n      dup2\n        /* \"#utility.yul\":7766:7782   */\n      add\n        /* \"#utility.yul\":7815:7818   */\n      dup5\n        /* \"#utility.yul\":7806:7812   */\n      dup5\n        /* \"#utility.yul\":7801:7804   */\n      dup5\n        /* \"#utility.yul\":7797:7813   */\n      add\n        /* \"#utility.yul\":7794:7819   */\n      gt\n        /* \"#utility.yul\":7791:7903   */\n      iszero\n      tag_332\n      jumpi\n        /* \"#utility.yul\":7822:7901   */\n      tag_333\n      tag_240\n      jump\t// in\n    tag_333:\n        /* \"#utility.yul\":7791:7903   */\n    tag_332:\n        /* \"#utility.yul\":7912:7953   */\n      tag_334\n        /* \"#utility.yul\":7946:7952   */\n      dup5\n        /* \"#utility.yul\":7941:7944   */\n      dup3\n        /* \"#utility.yul\":7936:7939   */\n      dup6\n        /* \"#utility.yul\":7912:7953   */\n      tag_245\n      jump\t// in\n    tag_334:\n        /* \"#utility.yul\":7631:7959   */\n      pop\n        /* \"#utility.yul\":7547:7959   */\n      swap4\n      swap3\n      pop\n      pop\n      pop\n      jump\t// out\n        /* \"#utility.yul\":7979:8319   */\n    tag_247:\n        /* \"#utility.yul\":8035:8040   */\n      0x00\n        /* \"#utility.yul\":8084:8087   */\n      dup3\n        /* \"#utility.yul\":8077:8081   */\n      0x1f\n        /* \"#utility.yul\":8069:8075   */\n      dup4\n        /* \"#utility.yul\":8065:8082   */\n      add\n        /* \"#utility.yul\":8061:8088   */\n      slt\n        /* \"#utility.yul\":8051:8173   */\n      tag_336\n      jumpi\n        /* \"#utility.yul\":8092:8171   */\n      tag_337\n      tag_239\n      jump\t// in\n    tag_337:\n        /* \"#utility.yul\":8051:8173   */\n    tag_336:\n        /* \"#utility.yul\":8209:8215   */\n      dup2\n        /* \"#utility.yul\":8196:8216   */\n      calldataload\n        /* \"#utility.yul\":8234:8313   */\n      tag_338\n        /* \"#utility.yul\":8309:8312   */\n      dup5\n        /* \"#utility.yul\":8301:8307   */\n      dup3\n        /* \"#utility.yul\":8294:8298   */\n      0x20\n        /* \"#utility.yul\":8286:8292   */\n      dup7\n        /* \"#utility.yul\":8282:8299   */\n      add\n        /* \"#utility.yul\":8234:8313   */\n      tag_246\n      jump\t// in\n    tag_338:\n        /* \"#utility.yul\":8225:8313   */\n      swap2\n      pop\n        /* \"#utility.yul\":8041:8319   */\n      pop\n        /* \"#utility.yul\":7979:8319   */\n      swap3\n      swap2\n      pop\n      pop\n      jump\t// out\n        /* \"#utility.yul\":8325:8447   */\n    tag_248:\n        /* \"#utility.yul\":8398:8422   */\n      tag_340\n        /* \"#utility.yul\":8416:8421   */\n      dup2\n        /* \"#utility.yul\":8398:8422   */\n      tag_230\n      jump\t// in\n    tag_340:\n        /* \"#utility.yul\":8391:8396   */\n      dup2\n        /* \"#utility.yul\":8388:8423   */\n      eq\n        /* \"#utility.yul\":8378:8441   */\n      tag_341\n      jumpi\n        /* \"#utility.yul\":8437:8438   */\n      0x00\n        /* \"#utility.yul\":8434:8435   */\n      dup1\n        /* \"#utility.yul\":8427:8439   */\n      revert\n        /* \"#utility.yul\":8378:8441   */\n    tag_341:\n        /* \"#utility.yul\":8325:8447   */\n      pop\n      jump\t// out\n        /* \"#utility.yul\":8453:8592   */\n    tag_249:\n        /* \"#utility.yul\":8499:8504   */\n      0x00\n        /* \"#utility.yul\":8537:8543   */\n      dup2\n        /* \"#utility.yul\":8524:8544   */\n      calldataload\n        /* \"#utility.yul\":8515:8544   */\n      swap1\n      pop\n        /* \"#utility.yul\":8553:8586   */\n      tag_343\n        /* \"#utility.yul\":8580:8585   */\n      dup2\n        /* \"#utility.yul\":8553:8586   */\n      tag_248\n      jump\t// in\n    tag_343:\n        /* \"#utility.yul\":8453:8592   */\n      swap3\n      swap2\n      pop\n      pop\n      jump\t// out\n        /* \"#utility.yul\":8598:9397   */\n    tag_75:\n        /* \"#utility.yul\":8685:8691   */\n      0x00\n        /* \"#utility.yul\":8693:8699   */\n      dup1\n        /* \"#utility.yul\":8701:8707   */\n      0x00\n        /* \"#utility.yul\":8750:8752   */\n      0x60\n        /* \"#utility.yul\":8738:8747   */\n      dup5\n        /* \"#utility.yul\":8729:8736   */\n      dup7\n        /* \"#utility.yul\":8725:8748   */\n      sub\n        /* \"#utility.yul\":8721:8753   */\n      slt\n        /* \"#utility.yul\":8718:8837   */\n      iszero\n      tag_345\n      jumpi\n        /* \"#utility.yul\":8756:8835   */\n      tag_346\n      tag_223\n      jump\t// in\n    tag_346:\n        /* \"#utility.yul\":8718:8837   */\n    tag_345:\n        /* \"#utility.yul\":8904:8905   */\n      0x00\n        /* \"#utility.yul\":8893:8902   */\n      dup5\n        /* \"#utility.yul\":8889:8906   */\n      add\n        /* \"#utility.yul\":8876:8907   */\n      calldataload\n        /* \"#utility.yul\":8934:8952   */\n      0xffffffffffffffff\n        /* \"#utility.yul\":8926:8932   */\n      dup2\n        /* \"#utility.yul\":8923:8953   */\n      gt\n        /* \"#utility.yul\":8920:9037   */\n      iszero\n      tag_347\n      jumpi\n        /* \"#utility.yul\":8956:9035   */\n      tag_348\n      tag_224\n      jump\t// in\n    tag_348:\n        /* \"#utility.yul\":8920:9037   */\n    tag_347:\n        /* \"#utility.yul\":9061:9124   */\n      tag_349\n        /* \"#utility.yul\":9116:9123   */\n      dup7\n        /* \"#utility.yul\":9107:9113   */\n      dup3\n        /* \"#utility.yul\":9096:9105   */\n      dup8\n        /* \"#utility.yul\":9092:9114   */\n      add\n        /* \"#utility.yul\":9061:9124   */\n      tag_247\n      jump\t// in\n    tag_349:\n        /* \"#utility.yul\":9051:9124   */\n      swap4\n      pop\n        /* \"#utility.yul\":8847:9134   */\n      pop\n        /* \"#utility.yul\":9173:9175   */\n      0x20\n        /* \"#utility.yul\":9199:9252   */\n      tag_350\n        /* \"#utility.yul\":9244:9251   */\n      dup7\n        /* \"#utility.yul\":9235:9241   */\n      dup3\n        /* \"#utility.yul\":9224:9233   */\n      dup8\n        /* \"#utility.yul\":9220:9242   */\n      add\n        /* \"#utility.yul\":9199:9252   */\n      tag_227\n      jump\t// in\n    tag_350:\n        /* \"#utility.yul\":9189:9252   */\n      swap3\n      pop\n        /* \"#utility.yul\":9144:9262   */\n      pop\n        /* \"#utility.yul\":9301:9303   */\n      0x40\n        /* \"#utility.yul\":9327:9380   */\n      tag_351\n        /* \"#utility.yul\":9372:9379   */\n      dup7\n        /* \"#utility.yul\":9363:9369   */\n      dup3\n        /* \"#utility.yul\":9352:9361   */\n      dup8\n        /* \"#utility.yul\":9348:9370   */\n      add\n        /* \"#utility.yul\":9327:9380   */\n      tag_249\n      jump\t// in\n    tag_351:\n        /* \"#utility.yul\":9317:9380   */\n      swap2\n      pop\n        /* \"#utility.yul\":9272:9390   */\n      pop\n        /* \"#utility.yul\":8598:9397   */\n      swap3\n      pop\n      swap3\n      pop\n      swap3\n      jump\t// out\n        /* \"#utility.yul\":9403:9732   */\n    tag_92:\n        /* \"#utility.yul\":9462:9468   */\n      0x00\n        /* \"#utility.yul\":9511:9513   */\n      0x20\n        /* \"#utility.yul\":9499:9508   */\n      dup3\n        /* \"#utility.yul\":9490:9497   */\n      dup5\n        /* \"#utility.yul\":9486:9509   */\n      sub\n        /* \"#utility.yul\":9482:9514   */\n      slt\n        /* \"#utility.yul\":9479:9598   */\n      iszero\n      tag_353\n      jumpi\n        /* \"#utility.yul\":9517:9596   */\n      tag_354\n      tag_223\n      jump\t// in\n    tag_354:\n        /* \"#utility.yul\":9479:9598   */\n    tag_353:\n        /* \"#utility.yul\":9637:9638   */\n      0x00\n        /* \"#utility.yul\":9662:9715   */\n      tag_355\n        /* \"#utility.yul\":9707:9714   */\n      dup5\n        /* \"#utility.yul\":9698:9704   */\n      dup3\n        /* \"#utility.yul\":9687:9696   */\n      dup6\n        /* \"#utility.yul\":9683:9705   */\n      add\n        /* \"#utility.yul\":9662:9715   */\n      tag_249\n      jump\t// in\n    tag_355:\n        /* \"#utility.yul\":9652:9715   */\n      swap2\n      pop\n        /* \"#utility.yul\":9608:9725   */\n      pop\n        /* \"#utility.yul\":9403:9732   */\n      swap3\n      swap2\n      pop\n      pop\n      jump\t// out\n        /* \"#utility.yul\":9738:9948   */\n    tag_95:\n        /* \"#utility.yul\":9825:9829   */\n      0x00\n        /* \"#utility.yul\":9863:9865   */\n      0x20\n        /* \"#utility.yul\":9852:9861   */\n      dup3\n        /* \"#utility.yul\":9848:9866   */\n      add\n        /* \"#utility.yul\":9840:9866   */\n      swap1\n      pop\n        /* \"#utility.yul\":9876:9941   */\n      tag_357\n        /* \"#utility.yul\":9938:9939   */\n      0x00\n        /* \"#utility.yul\":9927:9936   */\n      dup4\n        /* \"#utility.yul\":9923:9940   */\n      add\n        /* \"#utility.yul\":9914:9920   */\n      dup5\n        /* \"#utility.yul\":9876:9941   */\n      tag_238\n      jump\t// in\n    tag_357:\n        /* \"#utility.yul\":9738:9948   */\n      swap3\n      swap2\n      pop\n      pop\n      jump\t// out\n        /* \"#utility.yul\":9954:10134   */\n    tag_119:\n        /* \"#utility.yul\":10002:10079   */\n      0x4e487b7100000000000000000000000000000000000000000000000000000000\n        /* \"#utility.yul\":9999:10000   */\n      0x00\n        /* \"#utility.yul\":9992:10080   */\n      mstore\n        /* \"#utility.yul\":10099:10103   */\n      0x32\n        /* \"#utility.yul\":10096:10097   */\n      0x04\n        /* \"#utility.yul\":10089:10104   */\n      mstore\n        /* \"#utility.yul\":10123:10127   */\n      0x24\n        /* \"#utility.yul\":10120:10121   */\n      0x00\n        /* \"#utility.yul\":10113:10128   */\n      revert\n        /* \"#utility.yul\":10140:10320   */\n    tag_250:\n        /* \"#utility.yul\":10188:10265   */\n      0x4e487b7100000000000000000000000000000000000000000000000000000000\n        /* \"#utility.yul\":10185:10186   */\n      0x00\n        /* \"#utility.yul\":10178:10266   */\n      mstore\n        /* \"#utility.yul\":10285:10289   */\n      0x11\n        /* \"#utility.yul\":10282:10283   */\n      0x04\n        /* \"#utility.yul\":10275:10290   */\n      mstore\n        /* \"#utility.yul\":10309:10313   */\n      0x24\n        /* \"#utility.yul\":10306:10307   */\n      0x00\n        /* \"#utility.yul\":10299:10314   */\n      revert\n        /* \"#utility.yul\":10326:10674   */\n    tag_122:\n        /* \"#utility.yul\":10366:10373   */\n      0x00\n        /* \"#utility.yul\":10389:10409   */\n      tag_361\n        /* \"#utility.yul\":10407:10408   */\n      dup3\n        /* \"#utility.yul\":10389:10409   */\n      tag_225\n      jump\t// in\n    tag_361:\n        /* \"#utility.yul\":10384:10409   */\n      swap2\n      pop\n        /* \"#utility.yul\":10423:10443   */\n      tag_362\n        /* \"#utility.yul\":10441:10442   */\n      dup4\n        /* \"#utility.yul\":10423:10443   */\n      tag_225\n      jump\t// in\n    tag_362:\n        /* \"#utility.yul\":10418:10443   */\n      swap3\n      pop\n        /* \"#utility.yul\":10611:10612   */\n      dup2\n        /* \"#utility.yul\":10543:10609   */\n      0xffffffffffffffffffffffffffffffffffffffffffffffffffffffffffffffff\n        /* \"#utility.yul\":10539:10613   */\n      div\n        /* \"#utility.yul\":10536:10537   */\n      dup4\n        /* \"#utility.yul\":10533:10614   */\n      gt\n        /* \"#utility.yul\":10528:10529   */\n      dup3\n        /* \"#utility.yul\":10521:10530   */\n      iszero\n        /* \"#utility.yul\":10514:10531   */\n      iszero\n        /* \"#utility.yul\":10510:10615   */\n      and\n        /* \"#utility.yul\":10507:10638   */\n      iszero\n      tag_363\n      jumpi\n        /* \"#utility.yul\":10618:10636   */\n      tag_364\n      tag_250\n      jump\t// in\n    tag_364:\n        /* \"#utility.yul\":10507:10638   */\n    tag_363:\n        /* \"#utility.yul\":10666:10667   */\n      dup3\n        /* \"#utility.yul\":10663:10664   */\n      dup3\n        /* \"#utility.yul\":10659:10668   */\n      mul\n        /* \"#utility.yul\":10648:10668   */\n      swap1\n      pop\n        /* \"#utility.yul\":10326:10674   */\n      swap3\n      swap2\n      pop\n      pop\n      jump\t// out\n        /* \"#utility.yul\":10680:10913   */\n    tag_129:\n        /* \"#utility.yul\":10719:10722   */\n      0x00\n        /* \"#utility.yul\":10742:10766   */\n      tag_366\n        /* \"#utility.yul\":10760:10765   */\n      dup3\n        /* \"#utility.yul\":10742:10766   */\n      tag_225\n      jump\t// in\n    tag_366:\n        /* \"#utility.yul\":10733:10766   */\n      swap2\n      pop\n        /* \"#utility.yul\":10788:10854   */\n      0xffffffffffffffffffffffffffffffffffffffffffffffffffffffffffffffff\n        /* \"#utility.yul\":10781:10786   */\n      dup3\n        /* \"#utility.yul\":10778:10855   */\n      eq\n        /* \"#utility.yul\":10775:10878   */\n      iszero\n      tag_367\n      jumpi\n        /* \"#utility.yul\":10858:10876   */\n      tag_368\n      tag_250\n      jump\t// in\n    tag_368:\n        /* \"#utility.yul\":10775:10878   */\n    tag_367:\n        /* \"#utility.yul\":10905:10906   */\n      0x01\n        /* \"#utility.yul\":10898:10903   */\n      dup3\n        /* \"#utility.yul\":10894:10907   */\n      add\n        /* \"#utility.yul\":10887:10907   */\n      swap1\n      pop\n        /* \"#utility.yul\":10680:10913   */\n      swap2\n      swap1\n      pop\n      jump\t// out\n        /* \"#utility.yul\":10919:11090   */\n    tag_131:\n        /* \"#utility.yul\":10958:10961   */\n      0x00\n        /* \"#utility.yul\":10981:11005   */\n      tag_370\n        /* \"#utility.yul\":10999:11004   */\n      dup3\n        /* \"#utility.yul\":10981:11005   */\n      tag_225\n      jump\t// in\n    tag_370:\n        /* \"#utility.yul\":10972:11005   */\n      swap2\n      pop\n        /* \"#utility.yul\":11027:11031   */\n      0x00\n        /* \"#utility.yul\":11020:11025   */\n      dup3\n        /* \"#utility.yul\":11017:11032   */\n      eq\n        /* \"#utility.yul\":11014:11055   */\n      iszero\n      tag_371\n      jumpi\n        /* \"#utility.yul\":11035:11053   */\n      tag_372\n      tag_250\n      jump\t// in\n    tag_372:\n        /* \"#utility.yul\":11014:11055   */\n    tag_371:\n        /* \"#utility.yul\":11082:11083   */\n      0x01\n        /* \"#utility.yul\":11075:11080   */\n      dup3\n        /* \"#utility.yul\":11071:11084   */\n      sub\n        /* \"#utility.yul\":11064:11084   */\n      swap1\n      pop\n        /* \"#utility.yul\":10919:11090   */\n      swap2\n      swap1\n      pop\n      jump\t// out\n        /* \"#utility.yul\":11096:11276   */\n    tag_251:\n        /* \"#utility.yul\":11144:11221   */\n      0x4e487b7100000000000000000000000000000000000000000000000000000000\n        /* \"#utility.yul\":11141:11142   */\n      0x00\n        /* \"#utility.yul\":11134:11222   */\n      mstore\n        /* \"#utility.yul\":11241:11245   */\n      0x22\n        /* \"#utility.yul\":11238:11239   */\n      0x04\n        /* \"#utility.yul\":11231:11246   */\n      mstore\n        /* \"#utility.yul\":11265:11269   */\n      0x24\n        /* \"#utility.yul\":11262:11263   */\n      0x00\n        /* \"#utility.yul\":11255:11270   */\n      revert\n        /* \"#utility.yul\":11282:11602   */\n    tag_135:\n        /* \"#utility.yul\":11326:11332   */\n      0x00\n        /* \"#utility.yul\":11363:11364   */\n      0x02\n        /* \"#utility.yul\":11357:11361   */\n      dup3\n        /* \"#utility.yul\":11353:11365   */\n      div\n        /* \"#utility.yul\":11343:11365   */\n      swap1\n      pop\n        /* \"#utility.yul\":11410:11411   */\n      0x01\n        /* \"#utility.yul\":11404:11408   */\n      dup3\n        /* \"#utility.yul\":11400:11412   */\n      and\n        /* \"#utility.yul\":11431:11449   */\n      dup1\n        /* \"#utility.yul\":11421:11502   */\n      tag_375\n      jumpi\n        /* \"#utility.yul\":11487:11491   */\n      0x7f\n        /* \"#utility.yul\":11479:11485   */\n      dup3\n        /* \"#utility.yul\":11475:11492   */\n      and\n        /* \"#utility.yul\":11465:11492   */\n      swap2\n      pop\n        /* \"#utility.yul\":11421:11502   */\n    tag_375:\n        /* \"#utility.yul\":11549:11551   */\n      0x20\n        /* \"#utility.yul\":11541:11547   */\n      dup3\n        /* \"#utility.yul\":11538:11552   */\n      lt\n        /* \"#utility.yul\":11518:11536   */\n      dup2\n        /* \"#utility.yul\":11515:11553   */\n      eq\n        /* \"#utility.yul\":11512:11596   */\n      iszero\n      tag_376\n      jumpi\n        /* \"#utility.yul\":11568:11586   */\n      tag_377\n      tag_251\n      jump\t// in\n    tag_377:\n        /* \"#utility.yul\":11512:11596   */\n    tag_376:\n        /* \"#utility.yul\":11333:11602   */\n      pop\n        /* \"#utility.yul\":11282:11602   */\n      swap2\n      swap1\n      pop\n      jump\t// out\n        /* \"#utility.yul\":11608:11913   */\n    tag_199:\n        /* \"#utility.yul\":11648:11651   */\n      0x00\n        /* \"#utility.yul\":11667:11687   */\n      tag_379\n        /* \"#utility.yul\":11685:11686   */\n      dup3\n        /* \"#utility.yul\":11667:11687   */\n      tag_225\n      jump\t// in\n    tag_379:\n        /* \"#utility.yul\":11662:11687   */\n      swap2\n      pop\n        /* \"#utility.yul\":11701:11721   */\n      tag_380\n        /* \"#utility.yul\":11719:11720   */\n      dup4\n        /* \"#utility.yul\":11701:11721   */\n      tag_225\n      jump\t// in\n    tag_380:\n        /* \"#utility.yul\":11696:11721   */\n      swap3\n      pop\n        /* \"#utility.yul\":11855:11856   */\n      dup3\n        /* \"#utility.yul\":11787:11853   */\n      0xffffffffffffffffffffffffffffffffffffffffffffffffffffffffffffffff\n        /* \"#utility.yul\":11783:11857   */\n      sub\n        /* \"#utility.yul\":11780:11781   */\n      dup3\n        /* \"#utility.yul\":11777:11858   */\n      gt\n        /* \"#utility.yul\":11774:11881   */\n      iszero\n      tag_381\n      jumpi\n        /* \"#utility.yul\":11861:11879   */\n      tag_382\n      tag_250\n      jump\t// in\n    tag_382:\n        /* \"#utility.yul\":11774:11881   */\n    tag_381:\n        /* \"#utility.yul\":11905:11906   */\n      dup3\n        /* \"#utility.yul\":11902:11903   */\n      dup3\n        /* \"#utility.yul\":11898:11907   */\n      add\n        /* \"#utility.yul\":11891:11907   */\n      swap1\n      pop\n        /* \"#utility.yul\":11608:11913   */\n      swap3\n      swap2\n      pop\n      pop\n      jump\t// out\n\n    auxdata: 0xa2646970667358221220f98bfc4a7557667942a5c7dc65bd4508fd23de3fc65276c15b79a310c85b869a64736f6c63430008090033\n}\n","bytecode":{"linkReferences":{},"object":"608060405260006003556000600755600060085560006009553480156200002557600080fd5b5060405162001eab38038062001eab83398181016040528101906200004b919062000411565b876000806101000a81548173ffffffffffffffffffffffffffffffffffffffff021916908373ffffffffffffffffffffffffffffffffffffffff1602179055508660019080519060200190620000a392919062000124565b5085600b81905550846002819055508360049080519060200190620000ca92919062000124565b508260059080519060200190620000e392919062000124565b508160069080519060200190620000fc92919062000124565b5080600a90805190602001906200011592919062000124565b505050505050505050620005da565b8280546200013290620005a4565b90600052602060002090601f016020900481019282620001565760008555620001a2565b82601f106200017157805160ff1916838001178555620001a2565b82800160010185558215620001a2579182015b82811115620001a157825182559160200191906001019062000184565b5b509050620001b19190620001b5565b5090565b5b80821115620001d0576000816000905550600101620001b6565b5090565b6000604051905090565b600080fd5b600080fd5b600073ffffffffffffffffffffffffffffffffffffffff82169050919050565b60006200021582620001e8565b9050919050565b620002278162000208565b81146200023357600080fd5b50565b60008151905062000247816200021c565b92915050565b600080fd5b600080fd5b6000601f19601f8301169050919050565b7f4e487b7100000000000000000000000000000000000000000000000000000000600052604160045260246000fd5b620002a28262000257565b810181811067ffffffffffffffff82111715620002c457620002c362000268565b5b80604052505050565b6000620002d9620001d4565b9050620002e7828262000297565b919050565b600067ffffffffffffffff8211156200030a576200030962000268565b5b620003158262000257565b9050602081019050919050565b60005b838110156200034257808201518184015260208101905062000325565b8381111562000352576000848401525b50505050565b60006200036f6200036984620002ec565b620002cd565b9050828152602081018484840111156200038e576200038d62000252565b5b6200039b84828562000322565b509392505050565b600082601f830112620003bb57620003ba6200024d565b5b8151620003cd84826020860162000358565b91505092915050565b6000819050919050565b620003eb81620003d6565b8114620003f757600080fd5b50565b6000815190506200040b81620003e0565b92915050565b600080600080600080600080610100898b031215620004355762000434620001de565b5b6000620004458b828c0162000236565b985050602089015167ffffffffffffffff811115620004695762000468620001e3565b5b620004778b828c01620003a3565b97505060406200048a8b828c01620003fa565b96505060606200049d8b828c01620003fa565b955050608089015167ffffffffffffffff811115620004c157620004c0620001e3565b5b620004cf8b828c01620003a3565b94505060a089015167ffffffffffffffff811115620004f357620004f2620001e3565b5b620005018b828c01620003a3565b93505060c089015167ffffffffffffffff811115620005255762000524620001e3565b5b620005338b828c01620003a3565b92505060e089015167ffffffffffffffff811115620005575762000556620001e3565b5b620005658b828c01620003a3565b9150509295985092959890939650565b7f4e487b7100000000000000000000000000000000000000000000000000000000600052602260045260246000fd5b60006002820490506001821680620005bd57607f821691505b60208210811415620005d457620005d362000575565b5b50919050565b6118c180620005ea6000396000f3fe60806040526004361061011f5760003560e01c80638a9cfd55116100a0578063caf7b75911610064578063caf7b759146103d8578063d7bb99ba14610403578063d7d1bbdb1461040d578063ef2c586f14610436578063ef430aa6146104615761011f565b80638a9cfd55146102f1578063937e09b11461031a578063953b8fb814610345578063affa7b6d14610370578063b85dfb801461039b5761011f565b8063488c2ad2116100e7578063488c2ad2146102045780634a0aee291461022f5780634a79d50c1461025a5780637284e4161461028557806381d12c58146102b05761011f565b806303441006146101245780631d565e781461014d5780633410452a146101785780634051ddac146101a3578063481c6a75146101d9575b600080fd5b34801561013057600080fd5b5061014b600480360381019061014691906111d1565b61048c565b005b34801561015957600080fd5b50610162610615565b60405161016f919061120d565b60405180910390f35b34801561018457600080fd5b5061018d61061b565b60405161019a919061120d565b60405180910390f35b3480156101af57600080fd5b506101b8610628565b6040516101d09c9b9a99989796959493929190611302565b60405180910390f35b3480156101e557600080fd5b506101ee610958565b6040516101fb91906113df565b60405180910390f35b34801561021057600080fd5b5061021961097c565b60405161022691906113fa565b60405180910390f35b34801561023b57600080fd5b50610244610a0a565b604051610251919061120d565b60405180910390f35b34801561026657600080fd5b5061026f610a10565b60405161027c91906113fa565b60405180910390f35b34801561029157600080fd5b5061029a610a9e565b6040516102a791906113fa565b60405180910390f35b3480156102bc57600080fd5b506102d760048036038101906102d291906111d1565b610b2c565b6040516102e8959493929190611437565b60405180910390f35b3480156102fd57600080fd5b50610318600480360381019061031391906115f2565b610c27565b005b34801561032657600080fd5b5061032f610d4d565b60405161033c919061120d565b60405180910390f35b34801561035157600080fd5b5061035a610d53565b604051610367919061120d565b60405180910390f35b34801561037c57600080fd5b50610385610d59565b604051610392919061120d565b60405180910390f35b3480156103a757600080fd5b506103c260048036038101906103bd9190611661565b610d5f565b6040516103cf919061168e565b60405180910390f35b3480156103e457600080fd5b506103ed610d7f565b6040516103fa91906113fa565b60405180910390f35b61040b610e0d565b005b34801561041957600080fd5b50610434600480360381019061042f91906111d1565b610f03565b005b34801561044257600080fd5b5061044b611050565b604051610458919061120d565b60405180910390f35b34801561046d57600080fd5b50610476611056565b60405161048391906113fa565b60405180910390f35b60008054906101000a900473ffffffffffffffffffffffffffffffffffffffff1673ffffffffffffffffffffffffffffffffffffffff163373ffffffffffffffffffffffffffffffffffffffff16146104e457600080fd5b6000600d82815481106104fa576104f96116a9565b5b906000526020600020906005020190506003546002826003015461051e9190611707565b1161052857600080fd5b8060020160149054906101000a900460ff161561054457600080fd5b478160010154111561055557600080fd5b8060020160009054906101000a900473ffffffffffffffffffffffffffffffffffffffff1673ffffffffffffffffffffffffffffffffffffffff166108fc82600101549081150290604051600060405180830381858888f193505050501580156105c3573d6000803e3d6000fd5b5060018160020160146101000a81548160ff021916908315150217905550600960008154809291906105f490611761565b91905055506008600081548092919061060c906117aa565b91905055505050565b60035481565b6000600d80549050905090565b6000806060806060600080600060608060008060008054906101000a900473ffffffffffffffffffffffffffffffffffffffff164760016004600a600254600b546003546005600660075460085489805461068290611803565b80601f01602080910402602001604051908101604052809291908181526020018280546106ae90611803565b80156106fb5780601f106106d0576101008083540402835291602001916106fb565b820191906000526020600020905b8154815290600101906020018083116106de57829003601f168201915b5050505050995088805461070e90611803565b80601f016020809104026020016040519081016040528092919081815260200182805461073a90611803565b80156107875780601f1061075c57610100808354040283529160200191610787565b820191906000526020600020905b81548152906001019060200180831161076a57829003601f168201915b5050505050985087805461079a90611803565b80601f01602080910402602001604051908101604052809291908181526020018280546107c690611803565b80156108135780601f106107e857610100808354040283529160200191610813565b820191906000526020600020905b8154815290600101906020018083116107f657829003601f168201915b5050505050975083805461082690611803565b80601f016020809104026020016040519081016040528092919081815260200182805461085290611803565b801561089f5780601f106108745761010080835404028352916020019161089f565b820191906000526020600020905b81548152906001019060200180831161088257829003601f168201915b505050505093508280546108b290611803565b80601f01602080910402602001604051908101604052809291908181526020018280546108de90611803565b801561092b5780601f106109005761010080835404028352916020019161092b565b820191906000526020600020905b81548152906001019060200180831161090e57829003601f168201915b505050505092509b509b509b509b509b509b509b509b509b509b509b509b50909192939495969798999a9b565b60008054906101000a900473ffffffffffffffffffffffffffffffffffffffff1681565b6005805461098990611803565b80601f01602080910402602001604051908101604052809291908181526020018280546109b590611803565b8015610a025780601f106109d757610100808354040283529160200191610a02565b820191906000526020600020905b8154815290600101906020018083116109e557829003601f168201915b505050505081565b60085481565b60018054610a1d90611803565b80601f0160208091040260200160405190810160405280929190818152602001828054610a4990611803565b8015610a965780601f10610a6b57610100808354040283529160200191610a96565b820191906000526020600020905b815481529060010190602001808311610a7957829003601f168201915b505050505081565b60048054610aab90611803565b80601f0160208091040260200160405190810160405280929190818152602001828054610ad790611803565b8015610b245780601f10610af957610100808354040283529160200191610b24565b820191906000526020600020905b815481529060010190602001808311610b0757829003601f168201915b505050505081565b600d8181548110610b3c57600080fd5b9060005260206000209060050201600091509050806000018054610b5f90611803565b80601f0160208091040260200160405190810160405280929190818152602001828054610b8b90611803565b8015610bd85780601f10610bad57610100808354040283529160200191610bd8565b820191906000526020600020905b815481529060010190602001808311610bbb57829003601f168201915b5050505050908060010154908060020160009054906101000a900473ffffffffffffffffffffffffffffffffffffffff16908060020160149054906101000a900460ff16908060030154905085565b60008054906101000a900473ffffffffffffffffffffffffffffffffffffffff1673ffffffffffffffffffffffffffffffffffffffff163373ffffffffffffffffffffffffffffffffffffffff1614610c7f57600080fd5b6000600d600181600181540180825580915050039060005260206000209060050201905083816000019080519060200190610cbb9291906110e4565b50828160010181905550818160020160006101000a81548173ffffffffffffffffffffffffffffffffffffffff021916908373ffffffffffffffffffffffffffffffffffffffff16021790555060008160020160146101000a81548160ff0219169083151502179055506000816003018190555060086000815480929190610d4290611761565b919050555050505050565b600b5481565b60025481565b60095481565b600c6020528060005260406000206000915054906101000a900460ff1681565b60068054610d8c90611803565b80601f0160208091040260200160405190810160405280929190818152602001828054610db890611803565b8015610e055780601f10610dda57610100808354040283529160200191610e05565b820191906000526020600020905b815481529060010190602001808311610de857829003601f168201915b505050505081565b600b543411610e1b57600080fd5b60001515600c60003373ffffffffffffffffffffffffffffffffffffffff1673ffffffffffffffffffffffffffffffffffffffff16815260200190815260200160002060009054906101000a900460ff16151514610e7857600080fd5b6001600c60003373ffffffffffffffffffffffffffffffffffffffff1673ffffffffffffffffffffffffffffffffffffffff16815260200190815260200160002060006101000a81548160ff02191690831515021790555060036000815480929190610ee390611761565b91905055503460076000828254610efa9190611835565b92505081905550565b6000600d8281548110610f1957610f186116a9565b5b90600052602060002090600502019050600c60003373ffffffffffffffffffffffffffffffffffffffff1673ffffffffffffffffffffffffffffffffffffffff16815260200190815260200160002060009054906101000a900460ff16610f7f57600080fd5b8060040160003373ffffffffffffffffffffffffffffffffffffffff1673ffffffffffffffffffffffffffffffffffffffff16815260200190815260200160002060009054906101000a900460ff1615610fd857600080fd5b60018160040160003373ffffffffffffffffffffffffffffffffffffffff1673ffffffffffffffffffffffffffffffffffffffff16815260200190815260200160002060006101000a81548160ff02191690831515021790555080600301600081548092919061104790611761565b91905055505050565b60075481565b600a805461106390611803565b80601f016020809104026020016040519081016040528092919081815260200182805461108f90611803565b80156110dc5780601f106110b1576101008083540402835291602001916110dc565b820191906000526020600020905b8154815290600101906020018083116110bf57829003601f168201915b505050505081565b8280546110f090611803565b90600052602060002090601f0160209004810192826111125760008555611159565b82601f1061112b57805160ff1916838001178555611159565b82800160010185558215611159579182015b8281111561115857825182559160200191906001019061113d565b5b509050611166919061116a565b5090565b5b8082111561118357600081600090555060010161116b565b5090565b6000604051905090565b600080fd5b600080fd5b6000819050919050565b6111ae8161119b565b81146111b957600080fd5b50565b6000813590506111cb816111a5565b92915050565b6000602082840312156111e7576111e6611191565b5b60006111f5848285016111bc565b91505092915050565b6112078161119b565b82525050565b600060208201905061122260008301846111fe565b92915050565b600073ffffffffffffffffffffffffffffffffffffffff82169050919050565b600061125382611228565b9050919050565b61126381611248565b82525050565b600081519050919050565b600082825260208201905092915050565b60005b838110156112a3578082015181840152602081019050611288565b838111156112b2576000848401525b50505050565b6000601f19601f8301169050919050565b60006112d482611269565b6112de8185611274565b93506112ee818560208601611285565b6112f7816112b8565b840191505092915050565b600061018082019050611318600083018f61125a565b611325602083018e6111fe565b8181036040830152611337818d6112c9565b9050818103606083015261134b818c6112c9565b9050818103608083015261135f818b6112c9565b905061136e60a083018a6111fe565b61137b60c08301896111fe565b61138860e08301886111fe565b81810361010083015261139b81876112c9565b90508181036101208301526113b081866112c9565b90506113c06101408301856111fe565b6113ce6101608301846111fe565b9d9c50505050505050505050505050565b60006020820190506113f4600083018461125a565b92915050565b6000602082019050818103600083015261141481846112c9565b905092915050565b60008115159050919050565b6114318161141c565b82525050565b600060a082019050818103600083015261145181886112c9565b905061146060208301876111fe565b61146d604083018661125a565b61147a6060830185611428565b61148760808301846111fe565b9695505050505050565b600080fd5b600080fd5b7f4e487b7100000000000000000000000000000000000000000000000000000000600052604160045260246000fd5b6114d3826112b8565b810181811067ffffffffffffffff821117156114f2576114f161149b565b5b80604052505050565b6000611505611187565b905061151182826114ca565b919050565b600067ffffffffffffffff8211156115315761153061149b565b5b61153a826112b8565b9050602081019050919050565b82818337600083830152505050565b600061156961156484611516565b6114fb565b90508281526020810184848401111561158557611584611496565b5b611590848285611547565b509392505050565b600082601f8301126115ad576115ac611491565b5b81356115bd848260208601611556565b91505092915050565b6115cf81611248565b81146115da57600080fd5b50565b6000813590506115ec816115c6565b92915050565b60008060006060848603121561160b5761160a611191565b5b600084013567ffffffffffffffff81111561162957611628611196565b5b61163586828701611598565b9350506020611646868287016111bc565b9250506040611657868287016115dd565b9150509250925092565b60006020828403121561167757611676611191565b5b6000611685848285016115dd565b91505092915050565b60006020820190506116a36000830184611428565b92915050565b7f4e487b7100000000000000000000000000000000000000000000000000000000600052603260045260246000fd5b7f4e487b7100000000000000000000000000000000000000000000000000000000600052601160045260246000fd5b60006117128261119b565b915061171d8361119b565b9250817fffffffffffffffffffffffffffffffffffffffffffffffffffffffffffffffff0483118215151615611756576117556116d8565b5b828202905092915050565b600061176c8261119b565b91507fffffffffffffffffffffffffffffffffffffffffffffffffffffffffffffffff82141561179f5761179e6116d8565b5b600182019050919050565b60006117b58261119b565b915060008214156117c9576117c86116d8565b5b600182039050919050565b7f4e487b7100000000000000000000000000000000000000000000000000000000600052602260045260246000fd5b6000600282049050600182168061181b57607f821691505b6020821081141561182f5761182e6117d4565b5b50919050565b60006118408261119b565b915061184b8361119b565b9250827fffffffffffffffffffffffffffffffffffffffffffffffffffffffffffffffff038211156118805761187f6116d8565b5b82820190509291505056fea2646970667358221220f98bfc4a7557667942a5c7dc65bd4508fd23de3fc65276c15b79a310c85b869a64736f6c63430008090033","opcodes":"PUSH1 0x80 PUSH1 0x40 MSTORE PUSH1 0x0 PUSH1 0x3 SSTORE PUSH1 0x0 PUSH1 0x7 SSTORE PUSH1 0x0 PUSH1 0x8 SSTORE PUSH1 0x0 PUSH1 0x9 SSTORE CALLVALUE DUP1 ISZERO PUSH3 0x25 JUMPI PUSH1 0x0 DUP1 REVERT JUMPDEST POP PUSH1 0x40 MLOAD PUSH3 0x1EAB CODESIZE SUB DUP1 PUSH3 0x1EAB DUP4 CODECOPY DUP2 DUP2 ADD PUSH1 0x40 MSTORE DUP2 ADD SWAP1 PUSH3 0x4B SWAP2 SWAP1 PUSH3 0x411 JUMP JUMPDEST DUP8 PUSH1 0x0 DUP1 PUSH2 0x100 EXP DUP2 SLOAD DUP2 PUSH20 0xFFFFFFFFFFFFFFFFFFFFFFFFFFFFFFFFFFFFFFFF MUL NOT AND SWAP1 DUP4 PUSH20 0xFFFFFFFFFFFFFFFFFFFFFFFFFFFFFFFFFFFFFFFF AND MUL OR SWAP1 SSTORE POP DUP7 PUSH1 0x1 SWAP1 DUP1 MLOAD SWAP1 PUSH1 0x20 ADD SWAP1 PUSH3 0xA3 SWAP3 SWAP2 SWAP1 PUSH3 0x124 JUMP JUMPDEST POP DUP6 PUSH1 0xB DUP2 SWAP1 SSTORE POP DUP5 PUSH1 0x2 DUP2 SWAP1 SSTORE POP DUP4 PUSH1 0x4 SWAP1 DUP1 MLOAD SWAP1 PUSH1 0x20 ADD SWAP1 PUSH3 0xCA SWAP3 SWAP2 SWAP1 PUSH3 0x124 JUMP JUMPDEST POP DUP3 PUSH1 0x5 SWAP1 DUP1 MLOAD SWAP1 PUSH1 0x20 ADD SWAP1 PUSH3 0xE3 SWAP3 SWAP2 SWAP1 PUSH3 0x124 JUMP JUMPDEST POP DUP2 PUSH1 0x6 SWAP1 DUP1 MLOAD SWAP1 PUSH1 0x20 ADD SWAP1 PUSH3 0xFC SWAP3 SWAP2 SWAP1 PUSH3 0x124 JUMP JUMPDEST POP DUP1 PUSH1 0xA SWAP1 DUP1 MLOAD SWAP1 PUSH1 0x20 ADD SWAP1 PUSH3 0x115 SWAP3 SWAP2 SWAP1 PUSH3 0x124 JUMP JUMPDEST POP POP POP POP POP POP POP POP POP PUSH3 0x5DA JUMP JUMPDEST DUP3 DUP1 SLOAD PUSH3 0x132 SWAP1 PUSH3 0x5A4 JUMP JUMPDEST SWAP1 PUSH1 0x0 MSTORE PUSH1 0x20 PUSH1 0x0 KECCAK256 SWAP1 PUSH1 0x1F ADD PUSH1 0x20 SWAP1 DIV DUP2 ADD SWAP3 DUP3 PUSH3 0x156 JUMPI PUSH1 0x0 DUP6 SSTORE PUSH3 0x1A2 JUMP JUMPDEST DUP3 PUSH1 0x1F LT PUSH3 0x171 JUMPI DUP1 MLOAD PUSH1 0xFF NOT AND DUP4 DUP1 ADD OR DUP6 SSTORE PUSH3 0x1A2 JUMP JUMPDEST DUP3 DUP1 ADD PUSH1 0x1 ADD DUP6 SSTORE DUP3 ISZERO PUSH3 0x1A2 JUMPI SWAP2 DUP3 ADD JUMPDEST DUP3 DUP2 GT ISZERO PUSH3 0x1A1 JUMPI DUP3 MLOAD DUP3 SSTORE SWAP2 PUSH1 0x20 ADD SWAP2 SWAP1 PUSH1 0x1 ADD SWAP1 PUSH3 0x184 JUMP JUMPDEST JUMPDEST POP SWAP1 POP PUSH3 0x1B1 SWAP2 SWAP1 PUSH3 0x1B5 JUMP JUMPDEST POP SWAP1 JUMP JUMPDEST JUMPDEST DUP1 DUP3 GT ISZERO PUSH3 0x1D0 JUMPI PUSH1 0x0 DUP2 PUSH1 0x0 SWAP1 SSTORE POP PUSH1 0x1 ADD PUSH3 0x1B6 JUMP JUMPDEST POP SWAP1 JUMP JUMPDEST PUSH1 0x0 PUSH1 0x40 MLOAD SWAP1 POP SWAP1 JUMP JUMPDEST PUSH1 0x0 DUP1 REVERT JUMPDEST PUSH1 0x0 DUP1 REVERT JUMPDEST PUSH1 0x0 PUSH20 0xFFFFFFFFFFFFFFFFFFFFFFFFFFFFFFFFFFFFFFFF DUP3 AND SWAP1 POP SWAP2 SWAP1 POP JUMP JUMPDEST PUSH1 0x0 PUSH3 0x215 DUP3 PUSH3 0x1E8 JUMP JUMPDEST SWAP1 POP SWAP2 SWAP1 POP JUMP JUMPDEST PUSH3 0x227 DUP2 PUSH3 0x208 JUMP JUMPDEST DUP2 EQ PUSH3 0x233 JUMPI PUSH1 0x0 DUP1 REVERT JUMPDEST POP JUMP JUMPDEST PUSH1 0x0 DUP2 MLOAD SWAP1 POP PUSH3 0x247 DUP2 PUSH3 0x21C JUMP JUMPDEST SWAP3 SWAP2 POP POP JUMP JUMPDEST PUSH1 0x0 DUP1 REVERT JUMPDEST PUSH1 0x0 DUP1 REVERT JUMPDEST PUSH1 0x0 PUSH1 0x1F NOT PUSH1 0x1F DUP4 ADD AND SWAP1 POP SWAP2 SWAP1 POP JUMP JUMPDEST PUSH32 0x4E487B7100000000000000000000000000000000000000000000000000000000 PUSH1 0x0 MSTORE PUSH1 0x41 PUSH1 0x4 MSTORE PUSH1 0x24 PUSH1 0x0 REVERT JUMPDEST PUSH3 0x2A2 DUP3 PUSH3 0x257 JUMP JUMPDEST DUP2 ADD DUP2 DUP2 LT PUSH8 0xFFFFFFFFFFFFFFFF DUP3 GT OR ISZERO PUSH3 0x2C4 JUMPI PUSH3 0x2C3 PUSH3 0x268 JUMP JUMPDEST JUMPDEST DUP1 PUSH1 0x40 MSTORE POP POP POP JUMP JUMPDEST PUSH1 0x0 PUSH3 0x2D9 PUSH3 0x1D4 JUMP JUMPDEST SWAP1 POP PUSH3 0x2E7 DUP3 DUP3 PUSH3 0x297 JUMP JUMPDEST SWAP2 SWAP1 POP JUMP JUMPDEST PUSH1 0x0 PUSH8 0xFFFFFFFFFFFFFFFF DUP3 GT ISZERO PUSH3 0x30A JUMPI PUSH3 0x309 PUSH3 0x268 JUMP JUMPDEST JUMPDEST PUSH3 0x315 DUP3 PUSH3 0x257 JUMP JUMPDEST SWAP1 POP PUSH1 0x20 DUP2 ADD SWAP1 POP SWAP2 SWAP1 POP JUMP JUMPDEST PUSH1 0x0 JUMPDEST DUP4 DUP2 LT ISZERO PUSH3 0x342 JUMPI DUP1 DUP3 ADD MLOAD DUP2 DUP5 ADD MSTORE PUSH1 0x20 DUP2 ADD SWAP1 POP PUSH3 0x325 JUMP JUMPDEST DUP4 DUP2 GT ISZERO PUSH3 0x352 JUMPI PUSH1 0x0 DUP5 DUP5 ADD MSTORE JUMPDEST POP POP POP POP JUMP JUMPDEST PUSH1 0x0 PUSH3 0x36F PUSH3 0x369 DUP5 PUSH3 0x2EC JUMP JUMPDEST PUSH3 0x2CD JUMP JUMPDEST SWAP1 POP DUP3 DUP2 MSTORE PUSH1 0x20 DUP2 ADD DUP5 DUP5 DUP5 ADD GT ISZERO PUSH3 0x38E JUMPI PUSH3 0x38D PUSH3 0x252 JUMP JUMPDEST JUMPDEST PUSH3 0x39B DUP5 DUP3 DUP6 PUSH3 0x322 JUMP JUMPDEST POP SWAP4 SWAP3 POP POP POP JUMP JUMPDEST PUSH1 0x0 DUP3 PUSH1 0x1F DUP4 ADD SLT PUSH3 0x3BB JUMPI PUSH3 0x3BA PUSH3 0x24D JUMP JUMPDEST JUMPDEST DUP2 MLOAD PUSH3 0x3CD DUP5 DUP3 PUSH1 0x20 DUP7 ADD PUSH3 0x358 JUMP JUMPDEST SWAP2 POP POP SWAP3 SWAP2 POP POP JUMP JUMPDEST PUSH1 0x0 DUP2 SWAP1 POP SWAP2 SWAP1 POP JUMP JUMPDEST PUSH3 0x3EB DUP2 PUSH3 0x3D6 JUMP JUMPDEST DUP2 EQ PUSH3 0x3F7 JUMPI PUSH1 0x0 DUP1 REVERT JUMPDEST POP JUMP JUMPDEST PUSH1 0x0 DUP2 MLOAD SWAP1 POP PUSH3 0x40B DUP2 PUSH3 0x3E0 JUMP JUMPDEST SWAP3 SWAP2 POP POP JUMP JUMPDEST PUSH1 0x0 DUP1 PUSH1 0x0 DUP1 PUSH1 0x0 DUP1 PUSH1 0x0 DUP1 PUSH2 0x100 DUP10 DUP12 SUB SLT ISZERO PUSH3 0x435 JUMPI PUSH3 0x434 PUSH3 0x1DE JUMP JUMPDEST JUMPDEST PUSH1 0x0 PUSH3 0x445 DUP12 DUP3 DUP13 ADD PUSH3 0x236 JUMP JUMPDEST SWAP9 POP POP PUSH1 0x20 DUP10 ADD MLOAD PUSH8 0xFFFFFFFFFFFFFFFF DUP2 GT ISZERO PUSH3 0x469 JUMPI PUSH3 0x468 PUSH3 0x1E3 JUMP JUMPDEST JUMPDEST PUSH3 0x477 DUP12 DUP3 DUP13 ADD PUSH3 0x3A3 JUMP JUMPDEST SWAP8 POP POP PUSH1 0x40 PUSH3 0x48A DUP12 DUP3 DUP13 ADD PUSH3 0x3FA JUMP JUMPDEST SWAP7 POP POP PUSH1 0x60 PUSH3 0x49D DUP12 DUP3 DUP13 ADD PUSH3 0x3FA JUMP JUMPDEST SWAP6 POP POP PUSH1 0x80 DUP10 ADD MLOAD PUSH8 0xFFFFFFFFFFFFFFFF DUP2 GT ISZERO PUSH3 0x4C1 JUMPI PUSH3 0x4C0 PUSH3 0x1E3 JUMP JUMPDEST JUMPDEST PUSH3 0x4CF DUP12 DUP3 DUP13 ADD PUSH3 0x3A3 JUMP JUMPDEST SWAP5 POP POP PUSH1 0xA0 DUP10 ADD MLOAD PUSH8 0xFFFFFFFFFFFFFFFF DUP2 GT ISZERO PUSH3 0x4F3 JUMPI PUSH3 0x4F2 PUSH3 0x1E3 JUMP JUMPDEST JUMPDEST PUSH3 0x501 DUP12 DUP3 DUP13 ADD PUSH3 0x3A3 JUMP JUMPDEST SWAP4 POP POP PUSH1 0xC0 DUP10 ADD MLOAD PUSH8 0xFFFFFFFFFFFFFFFF DUP2 GT ISZERO PUSH3 0x525 JUMPI PUSH3 0x524 PUSH3 0x1E3 JUMP JUMPDEST JUMPDEST PUSH3 0x533 DUP12 DUP3 DUP13 ADD PUSH3 0x3A3 JUMP JUMPDEST SWAP3 POP POP PUSH1 0xE0 DUP10 ADD MLOAD PUSH8 0xFFFFFFFFFFFFFFFF DUP2 GT ISZERO PUSH3 0x557 JUMPI PUSH3 0x556 PUSH3 0x1E3 JUMP JUMPDEST JUMPDEST PUSH3 0x565 DUP12 DUP3 DUP13 ADD PUSH3 0x3A3 JUMP JUMPDEST SWAP2 POP POP SWAP3 SWAP6 SWAP9 POP SWAP3 SWAP6 SWAP9 SWAP1 SWAP4 SWAP7 POP JUMP JUMPDEST PUSH32 0x4E487B7100000000000000000000000000000000000000000000000000000000 PUSH1 0x0 MSTORE PUSH1 0x22 PUSH1 0x4 MSTORE PUSH1 0x24 PUSH1 0x0 REVERT JUMPDEST PUSH1 0x0 PUSH1 0x2 DUP3 DIV SWAP1 POP PUSH1 0x1 DUP3 AND DUP1 PUSH3 0x5BD JUMPI PUSH1 0x7F DUP3 AND SWAP2 POP JUMPDEST PUSH1 0x20 DUP3 LT DUP2 EQ ISZERO PUSH3 0x5D4 JUMPI PUSH3 0x5D3 PUSH3 0x575 JUMP JUMPDEST JUMPDEST POP SWAP2 SWAP1 POP JUMP JUMPDEST PUSH2 0x18C1 DUP1 PUSH3 0x5EA PUSH1 0x0 CODECOPY PUSH1 0x0 RETURN INVALID PUSH1 0x80 PUSH1 0x40 MSTORE PUSH1 0x4 CALLDATASIZE LT PUSH2 0x11F JUMPI PUSH1 0x0 CALLDATALOAD PUSH1 0xE0 SHR DUP1 PUSH4 0x8A9CFD55 GT PUSH2 0xA0 JUMPI DUP1 PUSH4 0xCAF7B759 GT PUSH2 0x64 JUMPI DUP1 PUSH4 0xCAF7B759 EQ PUSH2 0x3D8 JUMPI DUP1 PUSH4 0xD7BB99BA EQ PUSH2 0x403 JUMPI DUP1 PUSH4 0xD7D1BBDB EQ PUSH2 0x40D JUMPI DUP1 PUSH4 0xEF2C586F EQ PUSH2 0x436 JUMPI DUP1 PUSH4 0xEF430AA6 EQ PUSH2 0x461 JUMPI PUSH2 0x11F JUMP JUMPDEST DUP1 PUSH4 0x8A9CFD55 EQ PUSH2 0x2F1 JUMPI DUP1 PUSH4 0x937E09B1 EQ PUSH2 0x31A JUMPI DUP1 PUSH4 0x953B8FB8 EQ PUSH2 0x345 JUMPI DUP1 PUSH4 0xAFFA7B6D EQ PUSH2 0x370 JUMPI DUP1 PUSH4 0xB85DFB80 EQ PUSH2 0x39B JUMPI PUSH2 0x11F JUMP JUMPDEST DUP1 PUSH4 0x488C2AD2 GT PUSH2 0xE7 JUMPI DUP1 PUSH4 0x488C2AD2 EQ PUSH2 0x204 JUMPI DUP1 PUSH4 0x4A0AEE29 EQ PUSH2 0x22F JUMPI DUP1 PUSH4 0x4A79D50C EQ PUSH2 0x25A JUMPI DUP1 PUSH4 0x7284E416 EQ PUSH2 0x285 JUMPI DUP1 PUSH4 0x81D12C58 EQ PUSH2 0x2B0 JUMPI PUSH2 0x11F JUMP JUMPDEST DUP1 PUSH4 0x3441006 EQ PUSH2 0x124 JUMPI DUP1 PUSH4 0x1D565E78 EQ PUSH2 0x14D JUMPI DUP1 PUSH4 0x3410452A EQ PUSH2 0x178 JUMPI DUP1 PUSH4 0x4051DDAC EQ PUSH2 0x1A3 JUMPI DUP1 PUSH4 0x481C6A75 EQ PUSH2 0x1D9 JUMPI JUMPDEST PUSH1 0x0 DUP1 REVERT JUMPDEST CALLVALUE DUP1 ISZERO PUSH2 0x130 JUMPI PUSH1 0x0 DUP1 REVERT JUMPDEST POP PUSH2 0x14B PUSH1 0x4 DUP1 CALLDATASIZE SUB DUP2 ADD SWAP1 PUSH2 0x146 SWAP2 SWAP1 PUSH2 0x11D1 JUMP JUMPDEST PUSH2 0x48C JUMP JUMPDEST STOP JUMPDEST CALLVALUE DUP1 ISZERO PUSH2 0x159 JUMPI PUSH1 0x0 DUP1 REVERT JUMPDEST POP PUSH2 0x162 PUSH2 0x615 JUMP JUMPDEST PUSH1 0x40 MLOAD PUSH2 0x16F SWAP2 SWAP1 PUSH2 0x120D JUMP JUMPDEST PUSH1 0x40 MLOAD DUP1 SWAP2 SUB SWAP1 RETURN JUMPDEST CALLVALUE DUP1 ISZERO PUSH2 0x184 JUMPI PUSH1 0x0 DUP1 REVERT JUMPDEST POP PUSH2 0x18D PUSH2 0x61B JUMP JUMPDEST PUSH1 0x40 MLOAD PUSH2 0x19A SWAP2 SWAP1 PUSH2 0x120D JUMP JUMPDEST PUSH1 0x40 MLOAD DUP1 SWAP2 SUB SWAP1 RETURN JUMPDEST CALLVALUE DUP1 ISZERO PUSH2 0x1AF JUMPI PUSH1 0x0 DUP1 REVERT JUMPDEST POP PUSH2 0x1B8 PUSH2 0x628 JUMP JUMPDEST PUSH1 0x40 MLOAD PUSH2 0x1D0 SWAP13 SWAP12 SWAP11 SWAP10 SWAP9 SWAP8 SWAP7 SWAP6 SWAP5 SWAP4 SWAP3 SWAP2 SWAP1 PUSH2 0x1302 JUMP JUMPDEST PUSH1 0x40 MLOAD DUP1 SWAP2 SUB SWAP1 RETURN JUMPDEST CALLVALUE DUP1 ISZERO PUSH2 0x1E5 JUMPI PUSH1 0x0 DUP1 REVERT JUMPDEST POP PUSH2 0x1EE PUSH2 0x958 JUMP JUMPDEST PUSH1 0x40 MLOAD PUSH2 0x1FB SWAP2 SWAP1 PUSH2 0x13DF JUMP JUMPDEST PUSH1 0x40 MLOAD DUP1 SWAP2 SUB SWAP1 RETURN JUMPDEST CALLVALUE DUP1 ISZERO PUSH2 0x210 JUMPI PUSH1 0x0 DUP1 REVERT JUMPDEST POP PUSH2 0x219 PUSH2 0x97C JUMP JUMPDEST PUSH1 0x40 MLOAD PUSH2 0x226 SWAP2 SWAP1 PUSH2 0x13FA JUMP JUMPDEST PUSH1 0x40 MLOAD DUP1 SWAP2 SUB SWAP1 RETURN JUMPDEST CALLVALUE DUP1 ISZERO PUSH2 0x23B JUMPI PUSH1 0x0 DUP1 REVERT JUMPDEST POP PUSH2 0x244 PUSH2 0xA0A JUMP JUMPDEST PUSH1 0x40 MLOAD PUSH2 0x251 SWAP2 SWAP1 PUSH2 0x120D JUMP JUMPDEST PUSH1 0x40 MLOAD DUP1 SWAP2 SUB SWAP1 RETURN JUMPDEST CALLVALUE DUP1 ISZERO PUSH2 0x266 JUMPI PUSH1 0x0 DUP1 REVERT JUMPDEST POP PUSH2 0x26F PUSH2 0xA10 JUMP JUMPDEST PUSH1 0x40 MLOAD PUSH2 0x27C SWAP2 SWAP1 PUSH2 0x13FA JUMP JUMPDEST PUSH1 0x40 MLOAD DUP1 SWAP2 SUB SWAP1 RETURN JUMPDEST CALLVALUE DUP1 ISZERO PUSH2 0x291 JUMPI PUSH1 0x0 DUP1 REVERT JUMPDEST POP PUSH2 0x29A PUSH2 0xA9E JUMP JUMPDEST PUSH1 0x40 MLOAD PUSH2 0x2A7 SWAP2 SWAP1 PUSH2 0x13FA JUMP JUMPDEST PUSH1 0x40 MLOAD DUP1 SWAP2 SUB SWAP1 RETURN JUMPDEST CALLVALUE DUP1 ISZERO PUSH2 0x2BC JUMPI PUSH1 0x0 DUP1 REVERT JUMPDEST POP PUSH2 0x2D7 PUSH1 0x4 DUP1 CALLDATASIZE SUB DUP2 ADD SWAP1 PUSH2 0x2D2 SWAP2 SWAP1 PUSH2 0x11D1 JUMP JUMPDEST PUSH2 0xB2C JUMP JUMPDEST PUSH1 0x40 MLOAD PUSH2 0x2E8 SWAP6 SWAP5 SWAP4 SWAP3 SWAP2 SWAP1 PUSH2 0x1437 JUMP JUMPDEST PUSH1 0x40 MLOAD DUP1 SWAP2 SUB SWAP1 RETURN JUMPDEST CALLVALUE DUP1 ISZERO PUSH2 0x2FD JUMPI PUSH1 0x0 DUP1 REVERT JUMPDEST POP PUSH2 0x318 PUSH1 0x4 DUP1 CALLDATASIZE SUB DUP2 ADD SWAP1 PUSH2 0x313 SWAP2 SWAP1 PUSH2 0x15F2 JUMP JUMPDEST PUSH2 0xC27 JUMP JUMPDEST STOP JUMPDEST CALLVALUE DUP1 ISZERO PUSH2 0x326 JUMPI PUSH1 0x0 DUP1 REVERT JUMPDEST POP PUSH2 0x32F PUSH2 0xD4D JUMP JUMPDEST PUSH1 0x40 MLOAD PUSH2 0x33C SWAP2 SWAP1 PUSH2 0x120D JUMP JUMPDEST PUSH1 0x40 MLOAD DUP1 SWAP2 SUB SWAP1 RETURN JUMPDEST CALLVALUE DUP1 ISZERO PUSH2 0x351 JUMPI PUSH1 0x0 DUP1 REVERT JUMPDEST POP PUSH2 0x35A PUSH2 0xD53 JUMP JUMPDEST PUSH1 0x40 MLOAD PUSH2 0x367 SWAP2 SWAP1 PUSH2 0x120D JUMP JUMPDEST PUSH1 0x40 MLOAD DUP1 SWAP2 SUB SWAP1 RETURN JUMPDEST CALLVALUE DUP1 ISZERO PUSH2 0x37C JUMPI PUSH1 0x0 DUP1 REVERT JUMPDEST POP PUSH2 0x385 PUSH2 0xD59 JUMP JUMPDEST PUSH1 0x40 MLOAD PUSH2 0x392 SWAP2 SWAP1 PUSH2 0x120D JUMP JUMPDEST PUSH1 0x40 MLOAD DUP1 SWAP2 SUB SWAP1 RETURN JUMPDEST CALLVALUE DUP1 ISZERO PUSH2 0x3A7 JUMPI PUSH1 0x0 DUP1 REVERT JUMPDEST POP PUSH2 0x3C2 PUSH1 0x4 DUP1 CALLDATASIZE SUB DUP2 ADD SWAP1 PUSH2 0x3BD SWAP2 SWAP1 PUSH2 0x1661 JUMP JUMPDEST PUSH2 0xD5F JUMP JUMPDEST PUSH1 0x40 MLOAD PUSH2 0x3CF SWAP2 SWAP1 PUSH2 0x168E JUMP JUMPDEST PUSH1 0x40 MLOAD DUP1 SWAP2 SUB SWAP1 RETURN JUMPDEST CALLVALUE DUP1 ISZERO PUSH2 0x3E4 JUMPI PUSH1 0x0 DUP1 REVERT JUMPDEST POP PUSH2 0x3ED PUSH2 0xD7F JUMP JUMPDEST PUSH1 0x40 MLOAD PUSH2 0x3FA SWAP2 SWAP1 PUSH2 0x13FA JUMP JUMPDEST PUSH1 0x40 MLOAD DUP1 SWAP2 SUB SWAP1 RETURN JUMPDEST PUSH2 0x40B PUSH2 0xE0D JUMP JUMPDEST STOP JUMPDEST CALLVALUE DUP1 ISZERO PUSH2 0x419 JUMPI PUSH1 0x0 DUP1 REVERT JUMPDEST POP PUSH2 0x434 PUSH1 0x4 DUP1 CALLDATASIZE SUB DUP2 ADD SWAP1 PUSH2 0x42F SWAP2 SWAP1 PUSH2 0x11D1 JUMP JUMPDEST PUSH2 0xF03 JUMP JUMPDEST STOP JUMPDEST CALLVALUE DUP1 ISZERO PUSH2 0x442 JUMPI PUSH1 0x0 DUP1 REVERT JUMPDEST POP PUSH2 0x44B PUSH2 0x1050 JUMP JUMPDEST PUSH1 0x40 MLOAD PUSH2 0x458 SWAP2 SWAP1 PUSH2 0x120D JUMP JUMPDEST PUSH1 0x40 MLOAD DUP1 SWAP2 SUB SWAP1 RETURN JUMPDEST CALLVALUE DUP1 ISZERO PUSH2 0x46D JUMPI PUSH1 0x0 DUP1 REVERT JUMPDEST POP PUSH2 0x476 PUSH2 0x1056 JUMP JUMPDEST PUSH1 0x40 MLOAD PUSH2 0x483 SWAP2 SWAP1 PUSH2 0x13FA JUMP JUMPDEST PUSH1 0x40 MLOAD DUP1 SWAP2 SUB SWAP1 RETURN JUMPDEST PUSH1 0x0 DUP1 SLOAD SWAP1 PUSH2 0x100 EXP SWAP1 DIV PUSH20 0xFFFFFFFFFFFFFFFFFFFFFFFFFFFFFFFFFFFFFFFF AND PUSH20 0xFFFFFFFFFFFFFFFFFFFFFFFFFFFFFFFFFFFFFFFF AND CALLER PUSH20 0xFFFFFFFFFFFFFFFFFFFFFFFFFFFFFFFFFFFFFFFF AND EQ PUSH2 0x4E4 JUMPI PUSH1 0x0 DUP1 REVERT JUMPDEST PUSH1 0x0 PUSH1 0xD DUP3 DUP2 SLOAD DUP2 LT PUSH2 0x4FA JUMPI PUSH2 0x4F9 PUSH2 0x16A9 JUMP JUMPDEST JUMPDEST SWAP1 PUSH1 0x0 MSTORE PUSH1 0x20 PUSH1 0x0 KECCAK256 SWAP1 PUSH1 0x5 MUL ADD SWAP1 POP PUSH1 0x3 SLOAD PUSH1 0x2 DUP3 PUSH1 0x3 ADD SLOAD PUSH2 0x51E SWAP2 SWAP1 PUSH2 0x1707 JUMP JUMPDEST GT PUSH2 0x528 JUMPI PUSH1 0x0 DUP1 REVERT JUMPDEST DUP1 PUSH1 0x2 ADD PUSH1 0x14 SWAP1 SLOAD SWAP1 PUSH2 0x100 EXP SWAP1 DIV PUSH1 0xFF AND ISZERO PUSH2 0x544 JUMPI PUSH1 0x0 DUP1 REVERT JUMPDEST SELFBALANCE DUP2 PUSH1 0x1 ADD SLOAD GT ISZERO PUSH2 0x555 JUMPI PUSH1 0x0 DUP1 REVERT JUMPDEST DUP1 PUSH1 0x2 ADD PUSH1 0x0 SWAP1 SLOAD SWAP1 PUSH2 0x100 EXP SWAP1 DIV PUSH20 0xFFFFFFFFFFFFFFFFFFFFFFFFFFFFFFFFFFFFFFFF AND PUSH20 0xFFFFFFFFFFFFFFFFFFFFFFFFFFFFFFFFFFFFFFFF AND PUSH2 0x8FC DUP3 PUSH1 0x1 ADD SLOAD SWAP1 DUP2 ISZERO MUL SWAP1 PUSH1 0x40 MLOAD PUSH1 0x0 PUSH1 0x40 MLOAD DUP1 DUP4 SUB DUP2 DUP6 DUP9 DUP9 CALL SWAP4 POP POP POP POP ISZERO DUP1 ISZERO PUSH2 0x5C3 JUMPI RETURNDATASIZE PUSH1 0x0 DUP1 RETURNDATACOPY RETURNDATASIZE PUSH1 0x0 REVERT JUMPDEST POP PUSH1 0x1 DUP2 PUSH1 0x2 ADD PUSH1 0x14 PUSH2 0x100 EXP DUP2 SLOAD DUP2 PUSH1 0xFF MUL NOT AND SWAP1 DUP4 ISZERO ISZERO MUL OR SWAP1 SSTORE POP PUSH1 0x9 PUSH1 0x0 DUP2 SLOAD DUP1 SWAP3 SWAP2 SWAP1 PUSH2 0x5F4 SWAP1 PUSH2 0x1761 JUMP JUMPDEST SWAP2 SWAP1 POP SSTORE POP PUSH1 0x8 PUSH1 0x0 DUP2 SLOAD DUP1 SWAP3 SWAP2 SWAP1 PUSH2 0x60C SWAP1 PUSH2 0x17AA JUMP JUMPDEST SWAP2 SWAP1 POP SSTORE POP POP POP JUMP JUMPDEST PUSH1 0x3 SLOAD DUP2 JUMP JUMPDEST PUSH1 0x0 PUSH1 0xD DUP1 SLOAD SWAP1 POP SWAP1 POP SWAP1 JUMP JUMPDEST PUSH1 0x0 DUP1 PUSH1 0x60 DUP1 PUSH1 0x60 PUSH1 0x0 DUP1 PUSH1 0x0 PUSH1 0x60 DUP1 PUSH1 0x0 DUP1 PUSH1 0x0 DUP1 SLOAD SWAP1 PUSH2 0x100 EXP SWAP1 DIV PUSH20 0xFFFFFFFFFFFFFFFFFFFFFFFFFFFFFFFFFFFFFFFF AND SELFBALANCE PUSH1 0x1 PUSH1 0x4 PUSH1 0xA PUSH1 0x2 SLOAD PUSH1 0xB SLOAD PUSH1 0x3 SLOAD PUSH1 0x5 PUSH1 0x6 PUSH1 0x7 SLOAD PUSH1 0x8 SLOAD DUP10 DUP1 SLOAD PUSH2 0x682 SWAP1 PUSH2 0x1803 JUMP JUMPDEST DUP1 PUSH1 0x1F ADD PUSH1 0x20 DUP1 SWAP2 DIV MUL PUSH1 0x20 ADD PUSH1 0x40 MLOAD SWAP1 DUP2 ADD PUSH1 0x40 MSTORE DUP1 SWAP3 SWAP2 SWAP1 DUP2 DUP2 MSTORE PUSH1 0x20 ADD DUP3 DUP1 SLOAD PUSH2 0x6AE SWAP1 PUSH2 0x1803 JUMP JUMPDEST DUP1 ISZERO PUSH2 0x6FB JUMPI DUP1 PUSH1 0x1F LT PUSH2 0x6D0 JUMPI PUSH2 0x100 DUP1 DUP4 SLOAD DIV MUL DUP4 MSTORE SWAP2 PUSH1 0x20 ADD SWAP2 PUSH2 0x6FB JUMP JUMPDEST DUP3 ADD SWAP2 SWAP1 PUSH1 0x0 MSTORE PUSH1 0x20 PUSH1 0x0 KECCAK256 SWAP1 JUMPDEST DUP2 SLOAD DUP2 MSTORE SWAP1 PUSH1 0x1 ADD SWAP1 PUSH1 0x20 ADD DUP1 DUP4 GT PUSH2 0x6DE JUMPI DUP3 SWAP1 SUB PUSH1 0x1F AND DUP3 ADD SWAP2 JUMPDEST POP POP POP POP POP SWAP10 POP DUP9 DUP1 SLOAD PUSH2 0x70E SWAP1 PUSH2 0x1803 JUMP JUMPDEST DUP1 PUSH1 0x1F ADD PUSH1 0x20 DUP1 SWAP2 DIV MUL PUSH1 0x20 ADD PUSH1 0x40 MLOAD SWAP1 DUP2 ADD PUSH1 0x40 MSTORE DUP1 SWAP3 SWAP2 SWAP1 DUP2 DUP2 MSTORE PUSH1 0x20 ADD DUP3 DUP1 SLOAD PUSH2 0x73A SWAP1 PUSH2 0x1803 JUMP JUMPDEST DUP1 ISZERO PUSH2 0x787 JUMPI DUP1 PUSH1 0x1F LT PUSH2 0x75C JUMPI PUSH2 0x100 DUP1 DUP4 SLOAD DIV MUL DUP4 MSTORE SWAP2 PUSH1 0x20 ADD SWAP2 PUSH2 0x787 JUMP JUMPDEST DUP3 ADD SWAP2 SWAP1 PUSH1 0x0 MSTORE PUSH1 0x20 PUSH1 0x0 KECCAK256 SWAP1 JUMPDEST DUP2 SLOAD DUP2 MSTORE SWAP1 PUSH1 0x1 ADD SWAP1 PUSH1 0x20 ADD DUP1 DUP4 GT PUSH2 0x76A JUMPI DUP3 SWAP1 SUB PUSH1 0x1F AND DUP3 ADD SWAP2 JUMPDEST POP POP POP POP POP SWAP9 POP DUP8 DUP1 SLOAD PUSH2 0x79A SWAP1 PUSH2 0x1803 JUMP JUMPDEST DUP1 PUSH1 0x1F ADD PUSH1 0x20 DUP1 SWAP2 DIV MUL PUSH1 0x20 ADD PUSH1 0x40 MLOAD SWAP1 DUP2 ADD PUSH1 0x40 MSTORE DUP1 SWAP3 SWAP2 SWAP1 DUP2 DUP2 MSTORE PUSH1 0x20 ADD DUP3 DUP1 SLOAD PUSH2 0x7C6 SWAP1 PUSH2 0x1803 JUMP JUMPDEST DUP1 ISZERO PUSH2 0x813 JUMPI DUP1 PUSH1 0x1F LT PUSH2 0x7E8 JUMPI PUSH2 0x100 DUP1 DUP4 SLOAD DIV MUL DUP4 MSTORE SWAP2 PUSH1 0x20 ADD SWAP2 PUSH2 0x813 JUMP JUMPDEST DUP3 ADD SWAP2 SWAP1 PUSH1 0x0 MSTORE PUSH1 0x20 PUSH1 0x0 KECCAK256 SWAP1 JUMPDEST DUP2 SLOAD DUP2 MSTORE SWAP1 PUSH1 0x1 ADD SWAP1 PUSH1 0x20 ADD DUP1 DUP4 GT PUSH2 0x7F6 JUMPI DUP3 SWAP1 SUB PUSH1 0x1F AND DUP3 ADD SWAP2 JUMPDEST POP POP POP POP POP SWAP8 POP DUP4 DUP1 SLOAD PUSH2 0x826 SWAP1 PUSH2 0x1803 JUMP JUMPDEST DUP1 PUSH1 0x1F ADD PUSH1 0x20 DUP1 SWAP2 DIV MUL PUSH1 0x20 ADD PUSH1 0x40 MLOAD SWAP1 DUP2 ADD PUSH1 0x40 MSTORE DUP1 SWAP3 SWAP2 SWAP1 DUP2 DUP2 MSTORE PUSH1 0x20 ADD DUP3 DUP1 SLOAD PUSH2 0x852 SWAP1 PUSH2 0x1803 JUMP JUMPDEST DUP1 ISZERO PUSH2 0x89F JUMPI DUP1 PUSH1 0x1F LT PUSH2 0x874 JUMPI PUSH2 0x100 DUP1 DUP4 SLOAD DIV MUL DUP4 MSTORE SWAP2 PUSH1 0x20 ADD SWAP2 PUSH2 0x89F JUMP JUMPDEST DUP3 ADD SWAP2 SWAP1 PUSH1 0x0 MSTORE PUSH1 0x20 PUSH1 0x0 KECCAK256 SWAP1 JUMPDEST DUP2 SLOAD DUP2 MSTORE SWAP1 PUSH1 0x1 ADD SWAP1 PUSH1 0x20 ADD DUP1 DUP4 GT PUSH2 0x882 JUMPI DUP3 SWAP1 SUB PUSH1 0x1F AND DUP3 ADD SWAP2 JUMPDEST POP POP POP POP POP SWAP4 POP DUP3 DUP1 SLOAD PUSH2 0x8B2 SWAP1 PUSH2 0x1803 JUMP JUMPDEST DUP1 PUSH1 0x1F ADD PUSH1 0x20 DUP1 SWAP2 DIV MUL PUSH1 0x20 ADD PUSH1 0x40 MLOAD SWAP1 DUP2 ADD PUSH1 0x40 MSTORE DUP1 SWAP3 SWAP2 SWAP1 DUP2 DUP2 MSTORE PUSH1 0x20 ADD DUP3 DUP1 SLOAD PUSH2 0x8DE SWAP1 PUSH2 0x1803 JUMP JUMPDEST DUP1 ISZERO PUSH2 0x92B JUMPI DUP1 PUSH1 0x1F LT PUSH2 0x900 JUMPI PUSH2 0x100 DUP1 DUP4 SLOAD DIV MUL DUP4 MSTORE SWAP2 PUSH1 0x20 ADD SWAP2 PUSH2 0x92B JUMP JUMPDEST DUP3 ADD SWAP2 SWAP1 PUSH1 0x0 MSTORE PUSH1 0x20 PUSH1 0x0 KECCAK256 SWAP1 JUMPDEST DUP2 SLOAD DUP2 MSTORE SWAP1 PUSH1 0x1 ADD SWAP1 PUSH1 0x20 ADD DUP1 DUP4 GT PUSH2 0x90E JUMPI DUP3 SWAP1 SUB PUSH1 0x1F AND DUP3 ADD SWAP2 JUMPDEST POP POP POP POP POP SWAP3 POP SWAP12 POP SWAP12 POP SWAP12 POP SWAP12 POP SWAP12 POP SWAP12 POP SWAP12 POP SWAP12 POP SWAP12 POP SWAP12 POP SWAP12 POP SWAP12 POP SWAP1 SWAP2 SWAP3 SWAP4 SWAP5 SWAP6 SWAP7 SWAP8 SWAP9 SWAP10 SWAP11 SWAP12 JUMP JUMPDEST PUSH1 0x0 DUP1 SLOAD SWAP1 PUSH2 0x100 EXP SWAP1 DIV PUSH20 0xFFFFFFFFFFFFFFFFFFFFFFFFFFFFFFFFFFFFFFFF AND DUP2 JUMP JUMPDEST PUSH1 0x5 DUP1 SLOAD PUSH2 0x989 SWAP1 PUSH2 0x1803 JUMP JUMPDEST DUP1 PUSH1 0x1F ADD PUSH1 0x20 DUP1 SWAP2 DIV MUL PUSH1 0x20 ADD PUSH1 0x40 MLOAD SWAP1 DUP2 ADD PUSH1 0x40 MSTORE DUP1 SWAP3 SWAP2 SWAP1 DUP2 DUP2 MSTORE PUSH1 0x20 ADD DUP3 DUP1 SLOAD PUSH2 0x9B5 SWAP1 PUSH2 0x1803 JUMP JUMPDEST DUP1 ISZERO PUSH2 0xA02 JUMPI DUP1 PUSH1 0x1F LT PUSH2 0x9D7 JUMPI PUSH2 0x100 DUP1 DUP4 SLOAD DIV MUL DUP4 MSTORE SWAP2 PUSH1 0x20 ADD SWAP2 PUSH2 0xA02 JUMP JUMPDEST DUP3 ADD SWAP2 SWAP1 PUSH1 0x0 MSTORE PUSH1 0x20 PUSH1 0x0 KECCAK256 SWAP1 JUMPDEST DUP2 SLOAD DUP2 MSTORE SWAP1 PUSH1 0x1 ADD SWAP1 PUSH1 0x20 ADD DUP1 DUP4 GT PUSH2 0x9E5 JUMPI DUP3 SWAP1 SUB PUSH1 0x1F AND DUP3 ADD SWAP2 JUMPDEST POP POP POP POP POP DUP2 JUMP JUMPDEST PUSH1 0x8 SLOAD DUP2 JUMP JUMPDEST PUSH1 0x1 DUP1 SLOAD PUSH2 0xA1D SWAP1 PUSH2 0x1803 JUMP JUMPDEST DUP1 PUSH1 0x1F ADD PUSH1 0x20 DUP1 SWAP2 DIV MUL PUSH1 0x20 ADD PUSH1 0x40 MLOAD SWAP1 DUP2 ADD PUSH1 0x40 MSTORE DUP1 SWAP3 SWAP2 SWAP1 DUP2 DUP2 MSTORE PUSH1 0x20 ADD DUP3 DUP1 SLOAD PUSH2 0xA49 SWAP1 PUSH2 0x1803 JUMP JUMPDEST DUP1 ISZERO PUSH2 0xA96 JUMPI DUP1 PUSH1 0x1F LT PUSH2 0xA6B JUMPI PUSH2 0x100 DUP1 DUP4 SLOAD DIV MUL DUP4 MSTORE SWAP2 PUSH1 0x20 ADD SWAP2 PUSH2 0xA96 JUMP JUMPDEST DUP3 ADD SWAP2 SWAP1 PUSH1 0x0 MSTORE PUSH1 0x20 PUSH1 0x0 KECCAK256 SWAP1 JUMPDEST DUP2 SLOAD DUP2 MSTORE SWAP1 PUSH1 0x1 ADD SWAP1 PUSH1 0x20 ADD DUP1 DUP4 GT PUSH2 0xA79 JUMPI DUP3 SWAP1 SUB PUSH1 0x1F AND DUP3 ADD SWAP2 JUMPDEST POP POP POP POP POP DUP2 JUMP JUMPDEST PUSH1 0x4 DUP1 SLOAD PUSH2 0xAAB SWAP1 PUSH2 0x1803 JUMP JUMPDEST DUP1 PUSH1 0x1F ADD PUSH1 0x20 DUP1 SWAP2 DIV MUL PUSH1 0x20 ADD PUSH1 0x40 MLOAD SWAP1 DUP2 ADD PUSH1 0x40 MSTORE DUP1 SWAP3 SWAP2 SWAP1 DUP2 DUP2 MSTORE PUSH1 0x20 ADD DUP3 DUP1 SLOAD PUSH2 0xAD7 SWAP1 PUSH2 0x1803 JUMP JUMPDEST DUP1 ISZERO PUSH2 0xB24 JUMPI DUP1 PUSH1 0x1F LT PUSH2 0xAF9 JUMPI PUSH2 0x100 DUP1 DUP4 SLOAD DIV MUL DUP4 MSTORE SWAP2 PUSH1 0x20 ADD SWAP2 PUSH2 0xB24 JUMP JUMPDEST DUP3 ADD SWAP2 SWAP1 PUSH1 0x0 MSTORE PUSH1 0x20 PUSH1 0x0 KECCAK256 SWAP1 JUMPDEST DUP2 SLOAD DUP2 MSTORE SWAP1 PUSH1 0x1 ADD SWAP1 PUSH1 0x20 ADD DUP1 DUP4 GT PUSH2 0xB07 JUMPI DUP3 SWAP1 SUB PUSH1 0x1F AND DUP3 ADD SWAP2 JUMPDEST POP POP POP POP POP DUP2 JUMP JUMPDEST PUSH1 0xD DUP2 DUP2 SLOAD DUP2 LT PUSH2 0xB3C JUMPI PUSH1 0x0 DUP1 REVERT JUMPDEST SWAP1 PUSH1 0x0 MSTORE PUSH1 0x20 PUSH1 0x0 KECCAK256 SWAP1 PUSH1 0x5 MUL ADD PUSH1 0x0 SWAP2 POP SWAP1 POP DUP1 PUSH1 0x0 ADD DUP1 SLOAD PUSH2 0xB5F SWAP1 PUSH2 0x1803 JUMP JUMPDEST DUP1 PUSH1 0x1F ADD PUSH1 0x20 DUP1 SWAP2 DIV MUL PUSH1 0x20 ADD PUSH1 0x40 MLOAD SWAP1 DUP2 ADD PUSH1 0x40 MSTORE DUP1 SWAP3 SWAP2 SWAP1 DUP2 DUP2 MSTORE PUSH1 0x20 ADD DUP3 DUP1 SLOAD PUSH2 0xB8B SWAP1 PUSH2 0x1803 JUMP JUMPDEST DUP1 ISZERO PUSH2 0xBD8 JUMPI DUP1 PUSH1 0x1F LT PUSH2 0xBAD JUMPI PUSH2 0x100 DUP1 DUP4 SLOAD DIV MUL DUP4 MSTORE SWAP2 PUSH1 0x20 ADD SWAP2 PUSH2 0xBD8 JUMP JUMPDEST DUP3 ADD SWAP2 SWAP1 PUSH1 0x0 MSTORE PUSH1 0x20 PUSH1 0x0 KECCAK256 SWAP1 JUMPDEST DUP2 SLOAD DUP2 MSTORE SWAP1 PUSH1 0x1 ADD SWAP1 PUSH1 0x20 ADD DUP1 DUP4 GT PUSH2 0xBBB JUMPI DUP3 SWAP1 SUB PUSH1 0x1F AND DUP3 ADD SWAP2 JUMPDEST POP POP POP POP POP SWAP1 DUP1 PUSH1 0x1 ADD SLOAD SWAP1 DUP1 PUSH1 0x2 ADD PUSH1 0x0 SWAP1 SLOAD SWAP1 PUSH2 0x100 EXP SWAP1 DIV PUSH20 0xFFFFFFFFFFFFFFFFFFFFFFFFFFFFFFFFFFFFFFFF AND SWAP1 DUP1 PUSH1 0x2 ADD PUSH1 0x14 SWAP1 SLOAD SWAP1 PUSH2 0x100 EXP SWAP1 DIV PUSH1 0xFF AND SWAP1 DUP1 PUSH1 0x3 ADD SLOAD SWAP1 POP DUP6 JUMP JUMPDEST PUSH1 0x0 DUP1 SLOAD SWAP1 PUSH2 0x100 EXP SWAP1 DIV PUSH20 0xFFFFFFFFFFFFFFFFFFFFFFFFFFFFFFFFFFFFFFFF AND PUSH20 0xFFFFFFFFFFFFFFFFFFFFFFFFFFFFFFFFFFFFFFFF AND CALLER PUSH20 0xFFFFFFFFFFFFFFFFFFFFFFFFFFFFFFFFFFFFFFFF AND EQ PUSH2 0xC7F JUMPI PUSH1 0x0 DUP1 REVERT JUMPDEST PUSH1 0x0 PUSH1 0xD PUSH1 0x1 DUP2 PUSH1 0x1 DUP2 SLOAD ADD DUP1 DUP3 SSTORE DUP1 SWAP2 POP POP SUB SWAP1 PUSH1 0x0 MSTORE PUSH1 0x20 PUSH1 0x0 KECCAK256 SWAP1 PUSH1 0x5 MUL ADD SWAP1 POP DUP4 DUP2 PUSH1 0x0 ADD SWAP1 DUP1 MLOAD SWAP1 PUSH1 0x20 ADD SWAP1 PUSH2 0xCBB SWAP3 SWAP2 SWAP1 PUSH2 0x10E4 JUMP JUMPDEST POP DUP3 DUP2 PUSH1 0x1 ADD DUP2 SWAP1 SSTORE POP DUP2 DUP2 PUSH1 0x2 ADD PUSH1 0x0 PUSH2 0x100 EXP DUP2 SLOAD DUP2 PUSH20 0xFFFFFFFFFFFFFFFFFFFFFFFFFFFFFFFFFFFFFFFF MUL NOT AND SWAP1 DUP4 PUSH20 0xFFFFFFFFFFFFFFFFFFFFFFFFFFFFFFFFFFFFFFFF AND MUL OR SWAP1 SSTORE POP PUSH1 0x0 DUP2 PUSH1 0x2 ADD PUSH1 0x14 PUSH2 0x100 EXP DUP2 SLOAD DUP2 PUSH1 0xFF MUL NOT AND SWAP1 DUP4 ISZERO ISZERO MUL OR SWAP1 SSTORE POP PUSH1 0x0 DUP2 PUSH1 0x3 ADD DUP2 SWAP1 SSTORE POP PUSH1 0x8 PUSH1 0x0 DUP2 SLOAD DUP1 SWAP3 SWAP2 SWAP1 PUSH2 0xD42 SWAP1 PUSH2 0x1761 JUMP JUMPDEST SWAP2 SWAP1 POP SSTORE POP POP POP POP POP JUMP JUMPDEST PUSH1 0xB SLOAD DUP2 JUMP JUMPDEST PUSH1 0x2 SLOAD DUP2 JUMP JUMPDEST PUSH1 0x9 SLOAD DUP2 JUMP JUMPDEST PUSH1 0xC PUSH1 0x20 MSTORE DUP1 PUSH1 0x0 MSTORE PUSH1 0x40 PUSH1 0x0 KECCAK256 PUSH1 0x0 SWAP2 POP SLOAD SWAP1 PUSH2 0x100 EXP SWAP1 DIV PUSH1 0xFF AND DUP2 JUMP JUMPDEST PUSH1 0x6 DUP1 SLOAD PUSH2 0xD8C SWAP1 PUSH2 0x1803 JUMP JUMPDEST DUP1 PUSH1 0x1F ADD PUSH1 0x20 DUP1 SWAP2 DIV MUL PUSH1 0x20 ADD PUSH1 0x40 MLOAD SWAP1 DUP2 ADD PUSH1 0x40 MSTORE DUP1 SWAP3 SWAP2 SWAP1 DUP2 DUP2 MSTORE PUSH1 0x20 ADD DUP3 DUP1 SLOAD PUSH2 0xDB8 SWAP1 PUSH2 0x1803 JUMP JUMPDEST DUP1 ISZERO PUSH2 0xE05 JUMPI DUP1 PUSH1 0x1F LT PUSH2 0xDDA JUMPI PUSH2 0x100 DUP1 DUP4 SLOAD DIV MUL DUP4 MSTORE SWAP2 PUSH1 0x20 ADD SWAP2 PUSH2 0xE05 JUMP JUMPDEST DUP3 ADD SWAP2 SWAP1 PUSH1 0x0 MSTORE PUSH1 0x20 PUSH1 0x0 KECCAK256 SWAP1 JUMPDEST DUP2 SLOAD DUP2 MSTORE SWAP1 PUSH1 0x1 ADD SWAP1 PUSH1 0x20 ADD DUP1 DUP4 GT PUSH2 0xDE8 JUMPI DUP3 SWAP1 SUB PUSH1 0x1F AND DUP3 ADD SWAP2 JUMPDEST POP POP POP POP POP DUP2 JUMP JUMPDEST PUSH1 0xB SLOAD CALLVALUE GT PUSH2 0xE1B JUMPI PUSH1 0x0 DUP1 REVERT JUMPDEST PUSH1 0x0 ISZERO ISZERO PUSH1 0xC PUSH1 0x0 CALLER PUSH20 0xFFFFFFFFFFFFFFFFFFFFFFFFFFFFFFFFFFFFFFFF AND PUSH20 0xFFFFFFFFFFFFFFFFFFFFFFFFFFFFFFFFFFFFFFFF AND DUP2 MSTORE PUSH1 0x20 ADD SWAP1 DUP2 MSTORE PUSH1 0x20 ADD PUSH1 0x0 KECCAK256 PUSH1 0x0 SWAP1 SLOAD SWAP1 PUSH2 0x100 EXP SWAP1 DIV PUSH1 0xFF AND ISZERO ISZERO EQ PUSH2 0xE78 JUMPI PUSH1 0x0 DUP1 REVERT JUMPDEST PUSH1 0x1 PUSH1 0xC PUSH1 0x0 CALLER PUSH20 0xFFFFFFFFFFFFFFFFFFFFFFFFFFFFFFFFFFFFFFFF AND PUSH20 0xFFFFFFFFFFFFFFFFFFFFFFFFFFFFFFFFFFFFFFFF AND DUP2 MSTORE PUSH1 0x20 ADD SWAP1 DUP2 MSTORE PUSH1 0x20 ADD PUSH1 0x0 KECCAK256 PUSH1 0x0 PUSH2 0x100 EXP DUP2 SLOAD DUP2 PUSH1 0xFF MUL NOT AND SWAP1 DUP4 ISZERO ISZERO MUL OR SWAP1 SSTORE POP PUSH1 0x3 PUSH1 0x0 DUP2 SLOAD DUP1 SWAP3 SWAP2 SWAP1 PUSH2 0xEE3 SWAP1 PUSH2 0x1761 JUMP JUMPDEST SWAP2 SWAP1 POP SSTORE POP CALLVALUE PUSH1 0x7 PUSH1 0x0 DUP3 DUP3 SLOAD PUSH2 0xEFA SWAP2 SWAP1 PUSH2 0x1835 JUMP JUMPDEST SWAP3 POP POP DUP2 SWAP1 SSTORE POP JUMP JUMPDEST PUSH1 0x0 PUSH1 0xD DUP3 DUP2 SLOAD DUP2 LT PUSH2 0xF19 JUMPI PUSH2 0xF18 PUSH2 0x16A9 JUMP JUMPDEST JUMPDEST SWAP1 PUSH1 0x0 MSTORE PUSH1 0x20 PUSH1 0x0 KECCAK256 SWAP1 PUSH1 0x5 MUL ADD SWAP1 POP PUSH1 0xC PUSH1 0x0 CALLER PUSH20 0xFFFFFFFFFFFFFFFFFFFFFFFFFFFFFFFFFFFFFFFF AND PUSH20 0xFFFFFFFFFFFFFFFFFFFFFFFFFFFFFFFFFFFFFFFF AND DUP2 MSTORE PUSH1 0x20 ADD SWAP1 DUP2 MSTORE PUSH1 0x20 ADD PUSH1 0x0 KECCAK256 PUSH1 0x0 SWAP1 SLOAD SWAP1 PUSH2 0x100 EXP SWAP1 DIV PUSH1 0xFF AND PUSH2 0xF7F JUMPI PUSH1 0x0 DUP1 REVERT JUMPDEST DUP1 PUSH1 0x4 ADD PUSH1 0x0 CALLER PUSH20 0xFFFFFFFFFFFFFFFFFFFFFFFFFFFFFFFFFFFFFFFF AND PUSH20 0xFFFFFFFFFFFFFFFFFFFFFFFFFFFFFFFFFFFFFFFF AND DUP2 MSTORE PUSH1 0x20 ADD SWAP1 DUP2 MSTORE PUSH1 0x20 ADD PUSH1 0x0 KECCAK256 PUSH1 0x0 SWAP1 SLOAD SWAP1 PUSH2 0x100 EXP SWAP1 DIV PUSH1 0xFF AND ISZERO PUSH2 0xFD8 JUMPI PUSH1 0x0 DUP1 REVERT JUMPDEST PUSH1 0x1 DUP2 PUSH1 0x4 ADD PUSH1 0x0 CALLER PUSH20 0xFFFFFFFFFFFFFFFFFFFFFFFFFFFFFFFFFFFFFFFF AND PUSH20 0xFFFFFFFFFFFFFFFFFFFFFFFFFFFFFFFFFFFFFFFF AND DUP2 MSTORE PUSH1 0x20 ADD SWAP1 DUP2 MSTORE PUSH1 0x20 ADD PUSH1 0x0 KECCAK256 PUSH1 0x0 PUSH2 0x100 EXP DUP2 SLOAD DUP2 PUSH1 0xFF MUL NOT AND SWAP1 DUP4 ISZERO ISZERO MUL OR SWAP1 SSTORE POP DUP1 PUSH1 0x3 ADD PUSH1 0x0 DUP2 SLOAD DUP1 SWAP3 SWAP2 SWAP1 PUSH2 0x1047 SWAP1 PUSH2 0x1761 JUMP JUMPDEST SWAP2 SWAP1 POP SSTORE POP POP POP JUMP JUMPDEST PUSH1 0x7 SLOAD DUP2 JUMP JUMPDEST PUSH1 0xA DUP1 SLOAD PUSH2 0x1063 SWAP1 PUSH2 0x1803 JUMP JUMPDEST DUP1 PUSH1 0x1F ADD PUSH1 0x20 DUP1 SWAP2 DIV MUL PUSH1 0x20 ADD PUSH1 0x40 MLOAD SWAP1 DUP2 ADD PUSH1 0x40 MSTORE DUP1 SWAP3 SWAP2 SWAP1 DUP2 DUP2 MSTORE PUSH1 0x20 ADD DUP3 DUP1 SLOAD PUSH2 0x108F SWAP1 PUSH2 0x1803 JUMP JUMPDEST DUP1 ISZERO PUSH2 0x10DC JUMPI DUP1 PUSH1 0x1F LT PUSH2 0x10B1 JUMPI PUSH2 0x100 DUP1 DUP4 SLOAD DIV MUL DUP4 MSTORE SWAP2 PUSH1 0x20 ADD SWAP2 PUSH2 0x10DC JUMP JUMPDEST DUP3 ADD SWAP2 SWAP1 PUSH1 0x0 MSTORE PUSH1 0x20 PUSH1 0x0 KECCAK256 SWAP1 JUMPDEST DUP2 SLOAD DUP2 MSTORE SWAP1 PUSH1 0x1 ADD SWAP1 PUSH1 0x20 ADD DUP1 DUP4 GT PUSH2 0x10BF JUMPI DUP3 SWAP1 SUB PUSH1 0x1F AND DUP3 ADD SWAP2 JUMPDEST POP POP POP POP POP DUP2 JUMP JUMPDEST DUP3 DUP1 SLOAD PUSH2 0x10F0 SWAP1 PUSH2 0x1803 JUMP JUMPDEST SWAP1 PUSH1 0x0 MSTORE PUSH1 0x20 PUSH1 0x0 KECCAK256 SWAP1 PUSH1 0x1F ADD PUSH1 0x20 SWAP1 DIV DUP2 ADD SWAP3 DUP3 PUSH2 0x1112 JUMPI PUSH1 0x0 DUP6 SSTORE PUSH2 0x1159 JUMP JUMPDEST DUP3 PUSH1 0x1F LT PUSH2 0x112B JUMPI DUP1 MLOAD PUSH1 0xFF NOT AND DUP4 DUP1 ADD OR DUP6 SSTORE PUSH2 0x1159 JUMP JUMPDEST DUP3 DUP1 ADD PUSH1 0x1 ADD DUP6 SSTORE DUP3 ISZERO PUSH2 0x1159 JUMPI SWAP2 DUP3 ADD JUMPDEST DUP3 DUP2 GT ISZERO PUSH2 0x1158 JUMPI DUP3 MLOAD DUP3 SSTORE SWAP2 PUSH1 0x20 ADD SWAP2 SWAP1 PUSH1 0x1 ADD SWAP1 PUSH2 0x113D JUMP JUMPDEST JUMPDEST POP SWAP1 POP PUSH2 0x1166 SWAP2 SWAP1 PUSH2 0x116A JUMP JUMPDEST POP SWAP1 JUMP JUMPDEST JUMPDEST DUP1 DUP3 GT ISZERO PUSH2 0x1183 JUMPI PUSH1 0x0 DUP2 PUSH1 0x0 SWAP1 SSTORE POP PUSH1 0x1 ADD PUSH2 0x116B JUMP JUMPDEST POP SWAP1 JUMP JUMPDEST PUSH1 0x0 PUSH1 0x40 MLOAD SWAP1 POP SWAP1 JUMP JUMPDEST PUSH1 0x0 DUP1 REVERT JUMPDEST PUSH1 0x0 DUP1 REVERT JUMPDEST PUSH1 0x0 DUP2 SWAP1 POP SWAP2 SWAP1 POP JUMP JUMPDEST PUSH2 0x11AE DUP2 PUSH2 0x119B JUMP JUMPDEST DUP2 EQ PUSH2 0x11B9 JUMPI PUSH1 0x0 DUP1 REVERT JUMPDEST POP JUMP JUMPDEST PUSH1 0x0 DUP2 CALLDATALOAD SWAP1 POP PUSH2 0x11CB DUP2 PUSH2 0x11A5 JUMP JUMPDEST SWAP3 SWAP2 POP POP JUMP JUMPDEST PUSH1 0x0 PUSH1 0x20 DUP3 DUP5 SUB SLT ISZERO PUSH2 0x11E7 JUMPI PUSH2 0x11E6 PUSH2 0x1191 JUMP JUMPDEST JUMPDEST PUSH1 0x0 PUSH2 0x11F5 DUP5 DUP3 DUP6 ADD PUSH2 0x11BC JUMP JUMPDEST SWAP2 POP POP SWAP3 SWAP2 POP POP JUMP JUMPDEST PUSH2 0x1207 DUP2 PUSH2 0x119B JUMP JUMPDEST DUP3 MSTORE POP POP JUMP JUMPDEST PUSH1 0x0 PUSH1 0x20 DUP3 ADD SWAP1 POP PUSH2 0x1222 PUSH1 0x0 DUP4 ADD DUP5 PUSH2 0x11FE JUMP JUMPDEST SWAP3 SWAP2 POP POP JUMP JUMPDEST PUSH1 0x0 PUSH20 0xFFFFFFFFFFFFFFFFFFFFFFFFFFFFFFFFFFFFFFFF DUP3 AND SWAP1 POP SWAP2 SWAP1 POP JUMP JUMPDEST PUSH1 0x0 PUSH2 0x1253 DUP3 PUSH2 0x1228 JUMP JUMPDEST SWAP1 POP SWAP2 SWAP1 POP JUMP JUMPDEST PUSH2 0x1263 DUP2 PUSH2 0x1248 JUMP JUMPDEST DUP3 MSTORE POP POP JUMP JUMPDEST PUSH1 0x0 DUP2 MLOAD SWAP1 POP SWAP2 SWAP1 POP JUMP JUMPDEST PUSH1 0x0 DUP3 DUP3 MSTORE PUSH1 0x20 DUP3 ADD SWAP1 POP SWAP3 SWAP2 POP POP JUMP JUMPDEST PUSH1 0x0 JUMPDEST DUP4 DUP2 LT ISZERO PUSH2 0x12A3 JUMPI DUP1 DUP3 ADD MLOAD DUP2 DUP5 ADD MSTORE PUSH1 0x20 DUP2 ADD SWAP1 POP PUSH2 0x1288 JUMP JUMPDEST DUP4 DUP2 GT ISZERO PUSH2 0x12B2 JUMPI PUSH1 0x0 DUP5 DUP5 ADD MSTORE JUMPDEST POP POP POP POP JUMP JUMPDEST PUSH1 0x0 PUSH1 0x1F NOT PUSH1 0x1F DUP4 ADD AND SWAP1 POP SWAP2 SWAP1 POP JUMP JUMPDEST PUSH1 0x0 PUSH2 0x12D4 DUP3 PUSH2 0x1269 JUMP JUMPDEST PUSH2 0x12DE DUP2 DUP6 PUSH2 0x1274 JUMP JUMPDEST SWAP4 POP PUSH2 0x12EE DUP2 DUP6 PUSH1 0x20 DUP7 ADD PUSH2 0x1285 JUMP JUMPDEST PUSH2 0x12F7 DUP2 PUSH2 0x12B8 JUMP JUMPDEST DUP5 ADD SWAP2 POP POP SWAP3 SWAP2 POP POP JUMP JUMPDEST PUSH1 0x0 PUSH2 0x180 DUP3 ADD SWAP1 POP PUSH2 0x1318 PUSH1 0x0 DUP4 ADD DUP16 PUSH2 0x125A JUMP JUMPDEST PUSH2 0x1325 PUSH1 0x20 DUP4 ADD DUP15 PUSH2 0x11FE JUMP JUMPDEST DUP2 DUP2 SUB PUSH1 0x40 DUP4 ADD MSTORE PUSH2 0x1337 DUP2 DUP14 PUSH2 0x12C9 JUMP JUMPDEST SWAP1 POP DUP2 DUP2 SUB PUSH1 0x60 DUP4 ADD MSTORE PUSH2 0x134B DUP2 DUP13 PUSH2 0x12C9 JUMP JUMPDEST SWAP1 POP DUP2 DUP2 SUB PUSH1 0x80 DUP4 ADD MSTORE PUSH2 0x135F DUP2 DUP12 PUSH2 0x12C9 JUMP JUMPDEST SWAP1 POP PUSH2 0x136E PUSH1 0xA0 DUP4 ADD DUP11 PUSH2 0x11FE JUMP JUMPDEST PUSH2 0x137B PUSH1 0xC0 DUP4 ADD DUP10 PUSH2 0x11FE JUMP JUMPDEST PUSH2 0x1388 PUSH1 0xE0 DUP4 ADD DUP9 PUSH2 0x11FE JUMP JUMPDEST DUP2 DUP2 SUB PUSH2 0x100 DUP4 ADD MSTORE PUSH2 0x139B DUP2 DUP8 PUSH2 0x12C9 JUMP JUMPDEST SWAP1 POP DUP2 DUP2 SUB PUSH2 0x120 DUP4 ADD MSTORE PUSH2 0x13B0 DUP2 DUP7 PUSH2 0x12C9 JUMP JUMPDEST SWAP1 POP PUSH2 0x13C0 PUSH2 0x140 DUP4 ADD DUP6 PUSH2 0x11FE JUMP JUMPDEST PUSH2 0x13CE PUSH2 0x160 DUP4 ADD DUP5 PUSH2 0x11FE JUMP JUMPDEST SWAP14 SWAP13 POP POP POP POP POP POP POP POP POP POP POP POP POP JUMP JUMPDEST PUSH1 0x0 PUSH1 0x20 DUP3 ADD SWAP1 POP PUSH2 0x13F4 PUSH1 0x0 DUP4 ADD DUP5 PUSH2 0x125A JUMP JUMPDEST SWAP3 SWAP2 POP POP JUMP JUMPDEST PUSH1 0x0 PUSH1 0x20 DUP3 ADD SWAP1 POP DUP2 DUP2 SUB PUSH1 0x0 DUP4 ADD MSTORE PUSH2 0x1414 DUP2 DUP5 PUSH2 0x12C9 JUMP JUMPDEST SWAP1 POP SWAP3 SWAP2 POP POP JUMP JUMPDEST PUSH1 0x0 DUP2 ISZERO ISZERO SWAP1 POP SWAP2 SWAP1 POP JUMP JUMPDEST PUSH2 0x1431 DUP2 PUSH2 0x141C JUMP JUMPDEST DUP3 MSTORE POP POP JUMP JUMPDEST PUSH1 0x0 PUSH1 0xA0 DUP3 ADD SWAP1 POP DUP2 DUP2 SUB PUSH1 0x0 DUP4 ADD MSTORE PUSH2 0x1451 DUP2 DUP9 PUSH2 0x12C9 JUMP JUMPDEST SWAP1 POP PUSH2 0x1460 PUSH1 0x20 DUP4 ADD DUP8 PUSH2 0x11FE JUMP JUMPDEST PUSH2 0x146D PUSH1 0x40 DUP4 ADD DUP7 PUSH2 0x125A JUMP JUMPDEST PUSH2 0x147A PUSH1 0x60 DUP4 ADD DUP6 PUSH2 0x1428 JUMP JUMPDEST PUSH2 0x1487 PUSH1 0x80 DUP4 ADD DUP5 PUSH2 0x11FE JUMP JUMPDEST SWAP7 SWAP6 POP POP POP POP POP POP JUMP JUMPDEST PUSH1 0x0 DUP1 REVERT JUMPDEST PUSH1 0x0 DUP1 REVERT JUMPDEST PUSH32 0x4E487B7100000000000000000000000000000000000000000000000000000000 PUSH1 0x0 MSTORE PUSH1 0x41 PUSH1 0x4 MSTORE PUSH1 0x24 PUSH1 0x0 REVERT JUMPDEST PUSH2 0x14D3 DUP3 PUSH2 0x12B8 JUMP JUMPDEST DUP2 ADD DUP2 DUP2 LT PUSH8 0xFFFFFFFFFFFFFFFF DUP3 GT OR ISZERO PUSH2 0x14F2 JUMPI PUSH2 0x14F1 PUSH2 0x149B JUMP JUMPDEST JUMPDEST DUP1 PUSH1 0x40 MSTORE POP POP POP JUMP JUMPDEST PUSH1 0x0 PUSH2 0x1505 PUSH2 0x1187 JUMP JUMPDEST SWAP1 POP PUSH2 0x1511 DUP3 DUP3 PUSH2 0x14CA JUMP JUMPDEST SWAP2 SWAP1 POP JUMP JUMPDEST PUSH1 0x0 PUSH8 0xFFFFFFFFFFFFFFFF DUP3 GT ISZERO PUSH2 0x1531 JUMPI PUSH2 0x1530 PUSH2 0x149B JUMP JUMPDEST JUMPDEST PUSH2 0x153A DUP3 PUSH2 0x12B8 JUMP JUMPDEST SWAP1 POP PUSH1 0x20 DUP2 ADD SWAP1 POP SWAP2 SWAP1 POP JUMP JUMPDEST DUP3 DUP2 DUP4 CALLDATACOPY PUSH1 0x0 DUP4 DUP4 ADD MSTORE POP POP POP JUMP JUMPDEST PUSH1 0x0 PUSH2 0x1569 PUSH2 0x1564 DUP5 PUSH2 0x1516 JUMP JUMPDEST PUSH2 0x14FB JUMP JUMPDEST SWAP1 POP DUP3 DUP2 MSTORE PUSH1 0x20 DUP2 ADD DUP5 DUP5 DUP5 ADD GT ISZERO PUSH2 0x1585 JUMPI PUSH2 0x1584 PUSH2 0x1496 JUMP JUMPDEST JUMPDEST PUSH2 0x1590 DUP5 DUP3 DUP6 PUSH2 0x1547 JUMP JUMPDEST POP SWAP4 SWAP3 POP POP POP JUMP JUMPDEST PUSH1 0x0 DUP3 PUSH1 0x1F DUP4 ADD SLT PUSH2 0x15AD JUMPI PUSH2 0x15AC PUSH2 0x1491 JUMP JUMPDEST JUMPDEST DUP2 CALLDATALOAD PUSH2 0x15BD DUP5 DUP3 PUSH1 0x20 DUP7 ADD PUSH2 0x1556 JUMP JUMPDEST SWAP2 POP POP SWAP3 SWAP2 POP POP JUMP JUMPDEST PUSH2 0x15CF DUP2 PUSH2 0x1248 JUMP JUMPDEST DUP2 EQ PUSH2 0x15DA JUMPI PUSH1 0x0 DUP1 REVERT JUMPDEST POP JUMP JUMPDEST PUSH1 0x0 DUP2 CALLDATALOAD SWAP1 POP PUSH2 0x15EC DUP2 PUSH2 0x15C6 JUMP JUMPDEST SWAP3 SWAP2 POP POP JUMP JUMPDEST PUSH1 0x0 DUP1 PUSH1 0x0 PUSH1 0x60 DUP5 DUP7 SUB SLT ISZERO PUSH2 0x160B JUMPI PUSH2 0x160A PUSH2 0x1191 JUMP JUMPDEST JUMPDEST PUSH1 0x0 DUP5 ADD CALLDATALOAD PUSH8 0xFFFFFFFFFFFFFFFF DUP2 GT ISZERO PUSH2 0x1629 JUMPI PUSH2 0x1628 PUSH2 0x1196 JUMP JUMPDEST JUMPDEST PUSH2 0x1635 DUP7 DUP3 DUP8 ADD PUSH2 0x1598 JUMP JUMPDEST SWAP4 POP POP PUSH1 0x20 PUSH2 0x1646 DUP7 DUP3 DUP8 ADD PUSH2 0x11BC JUMP JUMPDEST SWAP3 POP POP PUSH1 0x40 PUSH2 0x1657 DUP7 DUP3 DUP8 ADD PUSH2 0x15DD JUMP JUMPDEST SWAP2 POP POP SWAP3 POP SWAP3 POP SWAP3 JUMP JUMPDEST PUSH1 0x0 PUSH1 0x20 DUP3 DUP5 SUB SLT ISZERO PUSH2 0x1677 JUMPI PUSH2 0x1676 PUSH2 0x1191 JUMP JUMPDEST JUMPDEST PUSH1 0x0 PUSH2 0x1685 DUP5 DUP3 DUP6 ADD PUSH2 0x15DD JUMP JUMPDEST SWAP2 POP POP SWAP3 SWAP2 POP POP JUMP JUMPDEST PUSH1 0x0 PUSH1 0x20 DUP3 ADD SWAP1 POP PUSH2 0x16A3 PUSH1 0x0 DUP4 ADD DUP5 PUSH2 0x1428 JUMP JUMPDEST SWAP3 SWAP2 POP POP JUMP JUMPDEST PUSH32 0x4E487B7100000000000000000000000000000000000000000000000000000000 PUSH1 0x0 MSTORE PUSH1 0x32 PUSH1 0x4 MSTORE PUSH1 0x24 PUSH1 0x0 REVERT JUMPDEST PUSH32 0x4E487B7100000000000000000000000000000000000000000000000000000000 PUSH1 0x0 MSTORE PUSH1 0x11 PUSH1 0x4 MSTORE PUSH1 0x24 PUSH1 0x0 REVERT JUMPDEST PUSH1 0x0 PUSH2 0x1712 DUP3 PUSH2 0x119B JUMP JUMPDEST SWAP2 POP PUSH2 0x171D DUP4 PUSH2 0x119B JUMP JUMPDEST SWAP3 POP DUP2 PUSH32 0xFFFFFFFFFFFFFFFFFFFFFFFFFFFFFFFFFFFFFFFFFFFFFFFFFFFFFFFFFFFFFFFF DIV DUP4 GT DUP3 ISZERO ISZERO AND ISZERO PUSH2 0x1756 JUMPI PUSH2 0x1755 PUSH2 0x16D8 JUMP JUMPDEST JUMPDEST DUP3 DUP3 MUL SWAP1 POP SWAP3 SWAP2 POP POP JUMP JUMPDEST PUSH1 0x0 PUSH2 0x176C DUP3 PUSH2 0x119B JUMP JUMPDEST SWAP2 POP PUSH32 0xFFFFFFFFFFFFFFFFFFFFFFFFFFFFFFFFFFFFFFFFFFFFFFFFFFFFFFFFFFFFFFFF DUP3 EQ ISZERO PUSH2 0x179F JUMPI PUSH2 0x179E PUSH2 0x16D8 JUMP JUMPDEST JUMPDEST PUSH1 0x1 DUP3 ADD SWAP1 POP SWAP2 SWAP1 POP JUMP JUMPDEST PUSH1 0x0 PUSH2 0x17B5 DUP3 PUSH2 0x119B JUMP JUMPDEST SWAP2 POP PUSH1 0x0 DUP3 EQ ISZERO PUSH2 0x17C9 JUMPI PUSH2 0x17C8 PUSH2 0x16D8 JUMP JUMPDEST JUMPDEST PUSH1 0x1 DUP3 SUB SWAP1 POP SWAP2 SWAP1 POP JUMP JUMPDEST PUSH32 0x4E487B7100000000000000000000000000000000000000000000000000000000 PUSH1 0x0 MSTORE PUSH1 0x22 PUSH1 0x4 MSTORE PUSH1 0x24 PUSH1 0x0 REVERT JUMPDEST PUSH1 0x0 PUSH1 0x2 DUP3 DIV SWAP1 POP PUSH1 0x1 DUP3 AND DUP1 PUSH2 0x181B JUMPI PUSH1 0x7F DUP3 AND SWAP2 POP JUMPDEST PUSH1 0x20 DUP3 LT DUP2 EQ ISZERO PUSH2 0x182F JUMPI PUSH2 0x182E PUSH2 0x17D4 JUMP JUMPDEST JUMPDEST POP SWAP2 SWAP1 POP JUMP JUMPDEST PUSH1 0x0 PUSH2 0x1840 DUP3 PUSH2 0x119B JUMP JUMPDEST SWAP2 POP PUSH2 0x184B DUP4 PUSH2 0x119B JUMP JUMPDEST SWAP3 POP DUP3 PUSH32 0xFFFFFFFFFFFFFFFFFFFFFFFFFFFFFFFFFFFFFFFFFFFFFFFFFFFFFFFFFFFFFFFF SUB DUP3 GT ISZERO PUSH2 0x1880 JUMPI PUSH2 0x187F PUSH2 0x16D8 JUMP JUMPDEST JUMPDEST DUP3 DUP3 ADD SWAP1 POP SWAP3 SWAP2 POP POP JUMP INVALID LOG2 PUSH5 0x6970667358 0x22 SLT KECCAK256 0xF9 DUP12 0xFC 0x4A PUSH22 0x57667942A5C7DC65BD4508FD23DE3FC65276C15B79A3 LT 0xC8 JUMPDEST DUP7 SWAP11 PUSH5 0x736F6C6343 STOP ADDMOD MULMOD STOP CALLER "},"gasEstimates":{"creation":{"codeDepositCost":"1267400","executionCost":"infinite","totalCost":"infinite"},"external":{"approveRequest(uint256)":"infinite","backers(address)":"2956","backersCount()":"2475","category()":"infinite","contribute()":"infinite","createRequest(string,uint256,address)":"infinite","description()":"infinite","finalizeRequest(uint256)":"infinite","finalizedRequests()":"2518","fundingReceived()":"2517","getRequestsCount()":"2513","getSummary()":"infinite","imageLink()":"infinite","manager()":"2623","minimumContribution()":"2474","pendingRequests()":"2474","requests(uint256)":"infinite","targetAmount()":"2496","targetDate()":"infinite","title()":"infinite"}},"methodIdentifiers":{"approveRequest(uint256)":"d7d1bbdb","backers(address)":"b85dfb80","backersCount()":"1d565e78","category()":"ef430aa6","contribute()":"d7bb99ba","createRequest(string,uint256,address)":"8a9cfd55","description()":"7284e416","finalizeRequest(uint256)":"03441006","finalizedRequests()":"affa7b6d","fundingReceived()":"ef2c586f","getRequestsCount()":"3410452a","getSummary()":"4051ddac","imageLink()":"caf7b759","manager()":"481c6a75","minimumContribution()":"937e09b1","pendingRequests()":"4a0aee29","requests(uint256)":"81d12c58","targetAmount()":"953b8fb8","targetDate()":"488c2ad2","title()":"4a79d50c"}},"storageLayout":{"storage":[{"astId":166,"contract":"Project.sol:Project","label":"manager","offset":0,"slot":"0","type":"t_address"},{"astId":168,"contract":"Project.sol:Project","label":"title","offset":0,"slot":"1","type":"t_string_storage"},{"astId":170,"contract":"Project.sol:Project","label":"targetAmount","offset":0,"slot":"2","type":"t_uint256"},{"astId":173,"contract":"Project.sol:Project","label":"backersCount","offset":0,"slot":"3","type":"t_uint256"},{"astId":175,"contract":"Project.sol:Project","label":"description","offset":0,"slot":"4","type":"t_string_storage"},{"astId":177,"contract":"Project.sol:Project","label":"targetDate","offset":0,"slot":"5","type":"t_string_storage"},{"astId":179,"contract":"Project.sol:Project","label":"imageLink","offset":0,"slot":"6","type":"t_string_storage"},{"astId":182,"contract":"Project.sol:Project","label":"fundingReceived","offset":0,"slot":"7","type":"t_uint256"},{"astId":185,"contract":"Project.sol:Project","label":"pendingRequests","offset":0,"slot":"8","type":"t_uint256"},{"astId":188,"contract":"Project.sol:Project","label":"finalizedRequests","offset":0,"slot":"9","type":"t_uint256"},{"astId":190,"contract":"Project.sol:Project","label":"category","offset":0,"slot":"10","type":"t_string_storage"},{"astId":192,"contract":"Project.sol:Project","label":"minimumContribution","offset":0,"slot":"11","type":"t_uint256"},{"astId":196,"contract":"Project.sol:Project","label":"backers","offset":0,"slot":"12","type":"t_mapping(t_address,t_bool)"},{"astId":215,"contract":"Project.sol:Project","label":"requests","offset":0,"slot":"13","type":"t_array(t_struct(Request)211_storage)dyn_storage"}],"types":{"t_address":{"encoding":"inplace","label":"address","numberOfBytes":"20"},"t_array(t_struct(Request)211_storage)dyn_storage":{"base":"t_struct(Request)211_storage","encoding":"dynamic_array","label":"struct Project.Request[]","numberOfBytes":"32"},"t_bool":{"encoding":"inplace","label":"bool","numberOfBytes":"1"},"t_mapping(t_address,t_bool)":{"encoding":"mapping","key":"t_address","label":"mapping(address => bool)","numberOfBytes":"32","value":"t_bool"},"t_string_storage":{"encoding":"bytes","label":"string","numberOfBytes":"32"},"t_struct(Request)211_storage":{"encoding":"inplace","label":"struct Project.Request","members":[{"astId":198,"contract":"Project.sol:Project","label":"description","offset":0,"slot":"0","type":"t_string_storage"},{"astId":200,"contract":"Project.sol:Project","label":"amount","offset":0,"slot":"1","type":"t_uint256"},{"astId":202,"contract":"Project.sol:Project","label":"recipient","offset":0,"slot":"2","type":"t_address"},{"astId":204,"contract":"Project.sol:Project","label":"complete","offset":20,"slot":"2","type":"t_bool"},{"astId":206,"contract":"Project.sol:Project","label":"approvalCount","offset":0,"slot":"3","type":"t_uint256"},{"astId":210,"contract":"Project.sol:Project","label":"approvals","offset":0,"slot":"4","type":"t_mapping(t_address,t_bool)"}],"numberOfBytes":"160"},"t_uint256":{"encoding":"inplace","label":"uint256","numberOfBytes":"32"}}},"userdoc":{"kind":"user","methods":{},"version":1}}